{
	"data": {
		"bytecode": {
			"linkReferences": {},
			"object": "608060405260405180608001604052806051815260200162004f8460519139600d90805190602001906200003592919062000210565b506040518060400160405280600581526020017f2e6a736f6e000000000000000000000000000000000000000000000000000000815250600e90805190602001906200008392919062000210565b5066038d7ea4c68000600f55655af3107a40006010556103e860115560056012556000601360006101000a81548160ff02191690831515021790555060405162004fd538038062004fd58339818101604052810190620000e491906200033e565b81818160009080519060200190620000fe92919062000210565b5080600190805190602001906200011792919062000210565b5050506200013a6200012e6200014260201b60201c565b6200014a60201b60201c565b505062000547565b600033905090565b6000600a60009054906101000a900473ffffffffffffffffffffffffffffffffffffffff16905081600a60006101000a81548173ffffffffffffffffffffffffffffffffffffffff021916908373ffffffffffffffffffffffffffffffffffffffff1602179055508173ffffffffffffffffffffffffffffffffffffffff168173ffffffffffffffffffffffffffffffffffffffff167f8be0079c531659141344cd1fd0a4f28419497f9722a3daafe3b4186f6b6457e060405160405180910390a35050565b8280546200021e9062000458565b90600052602060002090601f0160209004810192826200024257600085556200028e565b82601f106200025d57805160ff19168380011785556200028e565b828001600101855582156200028e579182015b828111156200028d57825182559160200191906001019062000270565b5b5090506200029d9190620002a1565b5090565b5b80821115620002bc576000816000905550600101620002a2565b5090565b6000620002d7620002d184620003ec565b620003c3565b905082815260208101848484011115620002f657620002f562000527565b5b6200030384828562000422565b509392505050565b600082601f83011262000323576200032262000522565b5b815162000335848260208601620002c0565b91505092915050565b6000806040838503121562000358576200035762000531565b5b600083015167ffffffffffffffff8111156200037957620003786200052c565b5b62000387858286016200030b565b925050602083015167ffffffffffffffff811115620003ab57620003aa6200052c565b5b620003b9858286016200030b565b9150509250929050565b6000620003cf620003e2565b9050620003dd82826200048e565b919050565b6000604051905090565b600067ffffffffffffffff8211156200040a5762000409620004f3565b5b620004158262000536565b9050602081019050919050565b60005b838110156200044257808201518184015260208101905062000425565b8381111562000452576000848401525b50505050565b600060028204905060018216806200047157607f821691505b60208210811415620004885762000487620004c4565b5b50919050565b620004998262000536565b810181811067ffffffffffffffff82111715620004bb57620004ba620004f3565b5b80604052505050565b7f4e487b7100000000000000000000000000000000000000000000000000000000600052602260045260246000fd5b7f4e487b7100000000000000000000000000000000000000000000000000000000600052604160045260246000fd5b600080fd5b600080fd5b600080fd5b600080fd5b6000601f19601f8301169050919050565b614a2d80620005576000396000f3fe6080604052600436106102725760003560e01c8063715018a61161014f578063baa431ab116100c1578063e7cd4a041161007a578063e7cd4a041461094c578063e985e9c514610975578063eecaf78f146109b2578063f2fde38b146109e2578063f5537ede14610a0b578063fc6f946814610a3457610272565b8063baa431ab14610826578063c4e41b2214610863578063c66828621461088e578063c87b56dd146108b9578063d137874b146108f6578063d5abeb011461092157610272565b806395d89b411161011357806395d89b411461072857806398d5fdca14610753578063a035b1fe1461077e578063a22cb465146107a9578063b6db75a0146107d2578063b88d4fde146107fd57610272565b8063715018a61461066b5780637f00c7a614610682578063888e9485146106ab5780638da5cb5b146106d45780638f283970146106ff57610272565b80633ccfd60b116101e85780635c975abb116101ac5780635c975abb146105595780636352211e146105845780636b6f4a9d146105c15780636c0360eb146105ec5780636d5aaf801461061757806370a082311461062e57610272565b80633ccfd60b1461049757806342842e0e146104a157806344a0d68a146104ca5780634f6ccce7146104f357806355f804b31461053057610272565b806318160ddd1161023a57806318160ddd146103755780632042e5c2146103a0578063239c70ae146103c957806323b872dd146103f45780632f745c591461041d578063372c12b11461045a57610272565b806301ffc9a71461027757806306fdde03146102b4578063081812fc146102df578063095ea7b31461031c5780630aa1485614610345575b600080fd5b34801561028357600080fd5b5061029e6004803603810190610299919061369c565b610a5f565b6040516102ab9190613c95565b60405180910390f35b3480156102c057600080fd5b506102c9610ad9565b6040516102d69190613cb0565b60405180910390f35b3480156102eb57600080fd5b506103066004803603810190610301919061373f565b610b6b565b6040516103139190613c2e565b60405180910390f35b34801561032857600080fd5b50610343600480360381019061033e919061362f565b610bb1565b005b61035f600480360381019061035a919061376c565b610cc9565b60405161036c9190613f92565b60405180910390f35b34801561038157600080fd5b5061038a610de8565b6040516103979190613f92565b60405180910390f35b3480156103ac57600080fd5b506103c760048036038101906103c291906134ac565b610df5565b005b3480156103d557600080fd5b506103de610ee0565b6040516103eb9190613f92565b60405180910390f35b34801561040057600080fd5b5061041b60048036038101906104169190613519565b610ee6565b005b34801561042957600080fd5b50610444600480360381019061043f919061362f565b610f46565b6040516104519190613f92565b60405180910390f35b34801561046657600080fd5b50610481600480360381019061047c91906134ac565b610feb565b60405161048e9190613c95565b60405180910390f35b61049f61100b565b005b3480156104ad57600080fd5b506104c860048036038101906104c39190613519565b61118c565b005b3480156104d657600080fd5b506104f160048036038101906104ec919061373f565b6111ac565b005b3480156104ff57600080fd5b5061051a6004803603810190610515919061373f565b611246565b6040516105279190613f92565b60405180910390f35b34801561053c57600080fd5b50610557600480360381019061055291906136f6565b6112b7565b005b34801561056557600080fd5b5061056e611361565b60405161057b9190613c95565b60405180910390f35b34801561059057600080fd5b506105ab60048036038101906105a6919061373f565b611374565b6040516105b89190613c2e565b60405180910390f35b3480156105cd57600080fd5b506105d6611426565b6040516105e39190613f92565b60405180910390f35b3480156105f857600080fd5b5061060161142c565b60405161060e9190613cb0565b60405180910390f35b34801561062357600080fd5b5061062c6114ba565b005b34801561063a57600080fd5b50610655600480360381019061065091906134ac565b6114fd565b6040516106629190613f92565b60405180910390f35b34801561067757600080fd5b506106806115b5565b005b34801561068e57600080fd5b506106a960048036038101906106a4919061373f565b6115c9565b005b3480156106b757600080fd5b506106d260048036038101906106cd919061366f565b611663565b005b3480156106e057600080fd5b506106e9611710565b6040516106f69190613c2e565b60405180910390f35b34801561070b57600080fd5b50610726600480360381019061072191906134ac565b61173a565b005b34801561073457600080fd5b5061073d61180e565b60405161074a9190613cb0565b60405180910390f35b34801561075f57600080fd5b506107686118a0565b6040516107759190613f92565b60405180910390f35b34801561078a57600080fd5b506107936118aa565b6040516107a09190613f92565b60405180910390f35b3480156107b557600080fd5b506107d060048036038101906107cb91906135ef565b6118b0565b005b3480156107de57600080fd5b506107e76118c6565b6040516107f49190613c2e565b60405180910390f35b34801561080957600080fd5b50610824600480360381019061081f919061356c565b6118f0565b005b34801561083257600080fd5b5061084d6004803603810190610848919061373f565b611952565b60405161085a9190613c2e565b60405180910390f35b34801561086f57600080fd5b50610878611964565b6040516108859190613f92565b60405180910390f35b34801561089a57600080fd5b506108a3611980565b6040516108b09190613cb0565b60405180910390f35b3480156108c557600080fd5b506108e060048036038101906108db919061373f565b611a0e565b6040516108ed9190613cb0565b60405180910390f35b34801561090257600080fd5b5061090b611ab8565b6040516109189190613f92565b60405180910390f35b34801561092d57600080fd5b50610936611ac2565b6040516109439190613f92565b60405180910390f35b34801561095857600080fd5b50610973600480360381019061096e91906134ac565b611ac8565b005b34801561098157600080fd5b5061099c600480360381019061099791906134d9565b611bb3565b6040516109a99190613c95565b60405180910390f35b6109cc60048036038101906109c7919061376c565b611c47565b6040516109d99190613f92565b60405180910390f35b3480156109ee57600080fd5b50610a096004803603810190610a0491906134ac565b611e7b565b005b348015610a1757600080fd5b50610a326004803603810190610a2d9190613519565b611eff565b005b348015610a4057600080fd5b50610a49611f85565b604051610a569190613c2e565b60405180910390f35b60007f780e9d63000000000000000000000000000000000000000000000000000000007bffffffffffffffffffffffffffffffffffffffffffffffffffffffff1916827bffffffffffffffffffffffffffffffffffffffffffffffffffffffff19161480610ad25750610ad182611fab565b5b9050919050565b606060008054610ae890614257565b80601f0160208091040260200160405190810160405280929190818152602001828054610b1490614257565b8015610b615780601f10610b3657610100808354040283529160200191610b61565b820191906000526020600020905b815481529060010190602001808311610b4457829003601f168201915b5050505050905090565b6000610b768261208d565b6004600083815260200190815260200160002060009054906101000a900473ffffffffffffffffffffffffffffffffffffffff169050919050565b6000610bbc82611374565b90508073ffffffffffffffffffffffffffffffffffffffff168373ffffffffffffffffffffffffffffffffffffffff161415610c2d576040517f08c379a0000000000000000000000000000000000000000000000000000000008152600401610c2490613ef2565b60405180910390fd5b8073ffffffffffffffffffffffffffffffffffffffff16610c4c6120d8565b73ffffffffffffffffffffffffffffffffffffffff161480610c7b5750610c7a81610c756120d8565b611bb3565b5b610cba576040517f08c379a0000000000000000000000000000000000000000000000000000000008152600401610cb190613e52565b60405180910390fd5b610cc483836120e0565b505050565b600080610cd4610de8565b905060008411610ce357600080fd5b601254841115610cf257600080fd5b6012548482610d01919061408c565b1115610d0c57600080fd5b83600f54610d1a9190614113565b341015610d2657600080fd5b610d30600c612199565b6000610d3c600c6121af565b90506005851415610d9a576000600190505b600186610d5b919061408c565b8111610d9457610d76338285610d71919061408c565b6121bd565b610d818560016118b0565b8080610d8c906142ba565b915050610d4e565b50610ddd565b6000600190505b858111610ddb57610dbd338285610db8919061408c565b6121bd565b610dc88560016118b0565b8080610dd3906142ba565b915050610da1565b505b809250505092915050565b6000600880549050905090565b3373ffffffffffffffffffffffffffffffffffffffff16600b60009054906101000a900473ffffffffffffffffffffffffffffffffffffffff1673ffffffffffffffffffffffffffffffffffffffff1614610e85576040517f08c379a0000000000000000000000000000000000000000000000000000000008152600401610e7c90613df2565b60405180910390fd5b6000601460008373ffffffffffffffffffffffffffffffffffffffff1673ffffffffffffffffffffffffffffffffffffffff16815260200190815260200160002060006101000a81548160ff02191690831515021790555050565b60125481565b610ef7610ef16120d8565b826121db565b610f36576040517f08c379a0000000000000000000000000000000000000000000000000000000008152600401610f2d90613f52565b60405180910390fd5b610f41838383612270565b505050565b6000610f51836114fd565b8210610f92576040517f08c379a0000000000000000000000000000000000000000000000000000000008152600401610f8990613cf2565b60405180910390fd5b600660008473ffffffffffffffffffffffffffffffffffffffff1673ffffffffffffffffffffffffffffffffffffffff168152602001908152602001600020600083815260200190815260200160002054905092915050565b60146020528060005260406000206000915054906101000a900460ff1681565b3373ffffffffffffffffffffffffffffffffffffffff16600b60009054906101000a900473ffffffffffffffffffffffffffffffffffffffff1673ffffffffffffffffffffffffffffffffffffffff161461109b576040517f08c379a000000000000000000000000000000000000000000000000000000000815260040161109290613df2565b60405180910390fd5b600a60149054906101000a900460ff16156110eb576040517f08c379a00000000000000000000000000000000000000000000000000000000081526004016110e290613f12565b60405180910390fd5b6001600a60146101000a81548160ff021916908315150217905550600b60009054906101000a900473ffffffffffffffffffffffffffffffffffffffff1673ffffffffffffffffffffffffffffffffffffffff166108fc479081150290604051600060405180830381858888f1935050505015801561116e573d6000803e3d6000fd5b506000600a60146101000a81548160ff021916908315150217905550565b6111a7838383604051806020016040528060008152506118f0565b505050565b3373ffffffffffffffffffffffffffffffffffffffff16600b60009054906101000a900473ffffffffffffffffffffffffffffffffffffffff1673ffffffffffffffffffffffffffffffffffffffff161461123c576040517f08c379a000000000000000000000000000000000000000000000000000000000815260040161123390613df2565b60405180910390fd5b80600f8190555050565b6000611250610de8565b8210611291576040517f08c379a000000000000000000000000000000000000000000000000000000000815260040161128890613f32565b60405180910390fd5b600882815481106112a5576112a46143f0565b5b90600052602060002001549050919050565b3373ffffffffffffffffffffffffffffffffffffffff16600b60009054906101000a900473ffffffffffffffffffffffffffffffffffffffff1673ffffffffffffffffffffffffffffffffffffffff1614611347576040517f08c379a000000000000000000000000000000000000000000000000000000000815260040161133e90613df2565b60405180910390fd5b80600d908051906020019061135d9291906132c0565b5050565b601360009054906101000a900460ff1681565b6000806002600084815260200190815260200160002060009054906101000a900473ffffffffffffffffffffffffffffffffffffffff169050600073ffffffffffffffffffffffffffffffffffffffff168173ffffffffffffffffffffffffffffffffffffffff16141561141d576040517f08c379a000000000000000000000000000000000000000000000000000000000815260040161141490613ed2565b60405180910390fd5b80915050919050565b60105481565b600d805461143990614257565b80601f016020809104026020016040519081016040528092919081815260200182805461146590614257565b80156114b25780601f10611487576101008083540402835291602001916114b2565b820191906000526020600020905b81548152906001019060200180831161149557829003601f168201915b505050505081565b33600b60006101000a81548173ffffffffffffffffffffffffffffffffffffffff021916908373ffffffffffffffffffffffffffffffffffffffff160217905550565b60008073ffffffffffffffffffffffffffffffffffffffff168273ffffffffffffffffffffffffffffffffffffffff16141561156e576040517f08c379a000000000000000000000000000000000000000000000000000000000815260040161156590613e12565b60405180910390fd5b600360008373ffffffffffffffffffffffffffffffffffffffff1673ffffffffffffffffffffffffffffffffffffffff168152602001908152602001600020549050919050565b6115bd6124d7565b6115c76000612555565b565b3373ffffffffffffffffffffffffffffffffffffffff16600b60009054906101000a900473ffffffffffffffffffffffffffffffffffffffff1673ffffffffffffffffffffffffffffffffffffffff1614611659576040517f08c379a000000000000000000000000000000000000000000000000000000000815260040161165090613df2565b60405180910390fd5b8060128190555050565b3373ffffffffffffffffffffffffffffffffffffffff16600b60009054906101000a900473ffffffffffffffffffffffffffffffffffffffff1673ffffffffffffffffffffffffffffffffffffffff16146116f3576040517f08c379a00000000000000000000000000000000000000000000000000000000081526004016116ea90613df2565b60405180910390fd5b80601360006101000a81548160ff02191690831515021790555050565b6000600a60009054906101000a900473ffffffffffffffffffffffffffffffffffffffff16905090565b3373ffffffffffffffffffffffffffffffffffffffff16600b60009054906101000a900473ffffffffffffffffffffffffffffffffffffffff1673ffffffffffffffffffffffffffffffffffffffff16146117ca576040517f08c379a00000000000000000000000000000000000000000000000000000000081526004016117c190613df2565b60405180910390fd5b80600b60006101000a81548173ffffffffffffffffffffffffffffffffffffffff021916908373ffffffffffffffffffffffffffffffffffffffff16021790555050565b60606001805461181d90614257565b80601f016020809104026020016040519081016040528092919081815260200182805461184990614257565b80156118965780601f1061186b57610100808354040283529160200191611896565b820191906000526020600020905b81548152906001019060200180831161187957829003601f168201915b5050505050905090565b6000600f54905090565b600f5481565b6118c26118bb6120d8565b838361261b565b5050565b6000600b60009054906101000a900473ffffffffffffffffffffffffffffffffffffffff16905090565b6119016118fb6120d8565b836121db565b611940576040517f08c379a000000000000000000000000000000000000000000000000000000000815260040161193790613f52565b60405180910390fd5b61194c84848484612788565b50505050565b600061195d82611374565b9050919050565b600061196e610de8565b60115461197b919061416d565b905090565b600e805461198d90614257565b80601f01602080910402602001604051908101604052809291908181526020018280546119b990614257565b8015611a065780601f106119db57610100808354040283529160200191611a06565b820191906000526020600020905b8154815290600101906020018083116119e957829003601f168201915b505050505081565b6060611a19826127e4565b611a58576040517f08c379a0000000000000000000000000000000000000000000000000000000008152600401611a4f90613eb2565b60405180910390fd5b6000611a62612850565b90506000815111611a825760405180602001604052806000815250611ab0565b80611a8c846128e2565b600e604051602001611aa093929190613bfd565b6040516020818303038152906040525b915050919050565b6000601054905090565b60115481565b3373ffffffffffffffffffffffffffffffffffffffff16600b60009054906101000a900473ffffffffffffffffffffffffffffffffffffffff1673ffffffffffffffffffffffffffffffffffffffff1614611b58576040517f08c379a0000000000000000000000000000000000000000000000000000000008152600401611b4f90613df2565b60405180910390fd5b6001601460008373ffffffffffffffffffffffffffffffffffffffff1673ffffffffffffffffffffffffffffffffffffffff16815260200190815260200160002060006101000a81548160ff02191690831515021790555050565b6000600560008473ffffffffffffffffffffffffffffffffffffffff1673ffffffffffffffffffffffffffffffffffffffff16815260200190815260200160002060008373ffffffffffffffffffffffffffffffffffffffff1673ffffffffffffffffffffffffffffffffffffffff16815260200190815260200160002060009054906101000a900460ff16905092915050565b600033601460008273ffffffffffffffffffffffffffffffffffffffff1673ffffffffffffffffffffffffffffffffffffffff16815260200190815260200160002060009054906101000a900460ff16611cd6576040517f08c379a0000000000000000000000000000000000000000000000000000000008152600401611ccd90613e32565b60405180910390fd5b6000611ce0610de8565b9050601360009054906101000a900460ff1615611d32576040517f08c379a0000000000000000000000000000000000000000000000000000000008152600401611d2990613dd2565b60405180910390fd5b60008511611d3f57600080fd5b601254851115611d84576040517f08c379a0000000000000000000000000000000000000000000000000000000008152600401611d7b90613cd2565b60405180910390fd5b6012548582611d93919061408c565b1115611d9e57600080fd5b84601054611dac9190614113565b341015611db857600080fd5b611dc2600c612199565b6000611dce600c6121af565b90506005861415611e2c576000600190505b600187611ded919061408c565b8111611e2657611e08338285611e03919061408c565b6121bd565b611e138660016118b0565b8080611e1e906142ba565b915050611de0565b50611e6f565b6000600190505b868111611e6d57611e4f338285611e4a919061408c565b6121bd565b611e5a8660016118b0565b8080611e65906142ba565b915050611e33565b505b80935050505092915050565b611e836124d7565b600073ffffffffffffffffffffffffffffffffffffffff168173ffffffffffffffffffffffffffffffffffffffff161415611ef3576040517f08c379a0000000000000000000000000000000000000000000000000000000008152600401611eea90613d32565b60405180910390fd5b611efc81612555565b50565b8273ffffffffffffffffffffffffffffffffffffffff16611f1f82611374565b73ffffffffffffffffffffffffffffffffffffffff1614611f75576040517f08c379a0000000000000000000000000000000000000000000000000000000008152600401611f6c90613f72565b60405180910390fd5b611f80838383612270565b505050565b600b60009054906101000a900473ffffffffffffffffffffffffffffffffffffffff1681565b60007f80ac58cd000000000000000000000000000000000000000000000000000000007bffffffffffffffffffffffffffffffffffffffffffffffffffffffff1916827bffffffffffffffffffffffffffffffffffffffffffffffffffffffff1916148061207657507f5b5e139f000000000000000000000000000000000000000000000000000000007bffffffffffffffffffffffffffffffffffffffffffffffffffffffff1916827bffffffffffffffffffffffffffffffffffffffffffffffffffffffff1916145b80612086575061208582612a43565b5b9050919050565b612096816127e4565b6120d5576040517f08c379a00000000000000000000000000000000000000000000000000000000081526004016120cc90613ed2565b60405180910390fd5b50565b600033905090565b816004600083815260200190815260200160002060006101000a81548173ffffffffffffffffffffffffffffffffffffffff021916908373ffffffffffffffffffffffffffffffffffffffff160217905550808273ffffffffffffffffffffffffffffffffffffffff1661215383611374565b73ffffffffffffffffffffffffffffffffffffffff167f8c5be1e5ebec7d5bd14f71427d1e84f3dd0314c0f7b2291e5b200ac8c7c3b92560405160405180910390a45050565b6001816000016000828254019250508190555050565b600081600001549050919050565b6121d7828260405180602001604052806000815250612aad565b5050565b6000806121e783611374565b90508073ffffffffffffffffffffffffffffffffffffffff168473ffffffffffffffffffffffffffffffffffffffff16148061222957506122288185611bb3565b5b8061226757508373ffffffffffffffffffffffffffffffffffffffff1661224f84610b6b565b73ffffffffffffffffffffffffffffffffffffffff16145b91505092915050565b8273ffffffffffffffffffffffffffffffffffffffff1661229082611374565b73ffffffffffffffffffffffffffffffffffffffff16146122e6576040517f08c379a00000000000000000000000000000000000000000000000000000000081526004016122dd90613d52565b60405180910390fd5b600073ffffffffffffffffffffffffffffffffffffffff168273ffffffffffffffffffffffffffffffffffffffff161415612356576040517f08c379a000000000000000000000000000000000000000000000000000000000815260040161234d90613d92565b60405180910390fd5b612361838383612b08565b61236c6000826120e0565b6001600360008573ffffffffffffffffffffffffffffffffffffffff1673ffffffffffffffffffffffffffffffffffffffff16815260200190815260200160002060008282546123bc919061416d565b925050819055506001600360008473ffffffffffffffffffffffffffffffffffffffff1673ffffffffffffffffffffffffffffffffffffffff1681526020019081526020016000206000828254612413919061408c565b92505081905550816002600083815260200190815260200160002060006101000a81548173ffffffffffffffffffffffffffffffffffffffff021916908373ffffffffffffffffffffffffffffffffffffffff160217905550808273ffffffffffffffffffffffffffffffffffffffff168473ffffffffffffffffffffffffffffffffffffffff167fddf252ad1be2c89b69c2b068fc378daa952ba7f163c4a11628f55a4df523b3ef60405160405180910390a46124d2838383612c1c565b505050565b6124df6120d8565b73ffffffffffffffffffffffffffffffffffffffff166124fd611710565b73ffffffffffffffffffffffffffffffffffffffff1614612553576040517f08c379a000000000000000000000000000000000000000000000000000000000815260040161254a90613e92565b60405180910390fd5b565b6000600a60009054906101000a900473ffffffffffffffffffffffffffffffffffffffff16905081600a60006101000a81548173ffffffffffffffffffffffffffffffffffffffff021916908373ffffffffffffffffffffffffffffffffffffffff1602179055508173ffffffffffffffffffffffffffffffffffffffff168173ffffffffffffffffffffffffffffffffffffffff167f8be0079c531659141344cd1fd0a4f28419497f9722a3daafe3b4186f6b6457e060405160405180910390a35050565b8173ffffffffffffffffffffffffffffffffffffffff168373ffffffffffffffffffffffffffffffffffffffff16141561268a576040517f08c379a000000000000000000000000000000000000000000000000000000000815260040161268190613db2565b60405180910390fd5b80600560008573ffffffffffffffffffffffffffffffffffffffff1673ffffffffffffffffffffffffffffffffffffffff16815260200190815260200160002060008473ffffffffffffffffffffffffffffffffffffffff1673ffffffffffffffffffffffffffffffffffffffff16815260200190815260200160002060006101000a81548160ff0219169083151502179055508173ffffffffffffffffffffffffffffffffffffffff168373ffffffffffffffffffffffffffffffffffffffff167f17307eab39ab6107e8899845ad3d59bd9653f200f220920489ca2b5937696c318360405161277b9190613c95565b60405180910390a3505050565b612793848484612270565b61279f84848484612c21565b6127de576040517f08c379a00000000000000000000000000000000000000000000000000000000081526004016127d590613d12565b60405180910390fd5b50505050565b60008073ffffffffffffffffffffffffffffffffffffffff166002600084815260200190815260200160002060009054906101000a900473ffffffffffffffffffffffffffffffffffffffff1673ffffffffffffffffffffffffffffffffffffffff1614159050919050565b6060600d805461285f90614257565b80601f016020809104026020016040519081016040528092919081815260200182805461288b90614257565b80156128d85780601f106128ad576101008083540402835291602001916128d8565b820191906000526020600020905b8154815290600101906020018083116128bb57829003601f168201915b5050505050905090565b6060600082141561292a576040518060400160405280600181526020017f30000000000000000000000000000000000000000000000000000000000000008152509050612a3e565b600082905060005b6000821461295c578080612945906142ba565b915050600a8261295591906140e2565b9150612932565b60008167ffffffffffffffff8111156129785761297761441f565b5b6040519080825280601f01601f1916602001820160405280156129aa5781602001600182028036833780820191505090505b5090505b60008514612a37576001826129c3919061416d565b9150600a856129d29190614303565b60306129de919061408c565b60f81b8183815181106129f4576129f36143f0565b5b60200101907effffffffffffffffffffffffffffffffffffffffffffffffffffffffffffff1916908160001a905350600a85612a3091906140e2565b94506129ae565b8093505050505b919050565b60007f01ffc9a7000000000000000000000000000000000000000000000000000000007bffffffffffffffffffffffffffffffffffffffffffffffffffffffff1916827bffffffffffffffffffffffffffffffffffffffffffffffffffffffff1916149050919050565b612ab78383612db8565b612ac46000848484612c21565b612b03576040517f08c379a0000000000000000000000000000000000000000000000000000000008152600401612afa90613d12565b60405180910390fd5b505050565b612b13838383612f92565b600073ffffffffffffffffffffffffffffffffffffffff168373ffffffffffffffffffffffffffffffffffffffff161415612b5657612b5181612f97565b612b95565b8173ffffffffffffffffffffffffffffffffffffffff168373ffffffffffffffffffffffffffffffffffffffff1614612b9457612b938382612fe0565b5b5b600073ffffffffffffffffffffffffffffffffffffffff168273ffffffffffffffffffffffffffffffffffffffff161415612bd857612bd38161314d565b612c17565b8273ffffffffffffffffffffffffffffffffffffffff168273ffffffffffffffffffffffffffffffffffffffff1614612c1657612c15828261321e565b5b5b505050565b505050565b6000612c428473ffffffffffffffffffffffffffffffffffffffff1661329d565b15612dab578373ffffffffffffffffffffffffffffffffffffffff1663150b7a02612c6b6120d8565b8786866040518563ffffffff1660e01b8152600401612c8d9493929190613c49565b602060405180830381600087803b158015612ca757600080fd5b505af1925050508015612cd857506040513d601f19601f82011682018060405250810190612cd591906136c9565b60015b612d5b573d8060008114612d08576040519150601f19603f3d011682016040523d82523d6000602084013e612d0d565b606091505b50600081511415612d53576040517f08c379a0000000000000000000000000000000000000000000000000000000008152600401612d4a90613d12565b60405180910390fd5b805181602001fd5b63150b7a0260e01b7bffffffffffffffffffffffffffffffffffffffffffffffffffffffff1916817bffffffffffffffffffffffffffffffffffffffffffffffffffffffff191614915050612db0565b600190505b949350505050565b600073ffffffffffffffffffffffffffffffffffffffff168273ffffffffffffffffffffffffffffffffffffffff161415612e28576040517f08c379a0000000000000000000000000000000000000000000000000000000008152600401612e1f90613e72565b60405180910390fd5b612e31816127e4565b15612e71576040517f08c379a0000000000000000000000000000000000000000000000000000000008152600401612e6890613d72565b60405180910390fd5b612e7d60008383612b08565b6001600360008473ffffffffffffffffffffffffffffffffffffffff1673ffffffffffffffffffffffffffffffffffffffff1681526020019081526020016000206000828254612ecd919061408c565b92505081905550816002600083815260200190815260200160002060006101000a81548173ffffffffffffffffffffffffffffffffffffffff021916908373ffffffffffffffffffffffffffffffffffffffff160217905550808273ffffffffffffffffffffffffffffffffffffffff16600073ffffffffffffffffffffffffffffffffffffffff167fddf252ad1be2c89b69c2b068fc378daa952ba7f163c4a11628f55a4df523b3ef60405160405180910390a4612f8e60008383612c1c565b5050565b505050565b6008805490506009600083815260200190815260200160002081905550600881908060018154018082558091505060019003906000526020600020016000909190919091505550565b60006001612fed846114fd565b612ff7919061416d565b90506000600760008481526020019081526020016000205490508181146130dc576000600660008673ffffffffffffffffffffffffffffffffffffffff1673ffffffffffffffffffffffffffffffffffffffff168152602001908152602001600020600084815260200190815260200160002054905080600660008773ffffffffffffffffffffffffffffffffffffffff1673ffffffffffffffffffffffffffffffffffffffff168152602001908152602001600020600084815260200190815260200160002081905550816007600083815260200190815260200160002081905550505b6007600084815260200190815260200160002060009055600660008573ffffffffffffffffffffffffffffffffffffffff1673ffffffffffffffffffffffffffffffffffffffff16815260200190815260200160002060008381526020019081526020016000206000905550505050565b60006001600880549050613161919061416d565b9050600060096000848152602001908152602001600020549050600060088381548110613191576131906143f0565b5b9060005260206000200154905080600883815481106131b3576131b26143f0565b5b906000526020600020018190555081600960008381526020019081526020016000208190555060096000858152602001908152602001600020600090556008805480613202576132016143c1565b5b6001900381819060005260206000200160009055905550505050565b6000613229836114fd565b905081600660008573ffffffffffffffffffffffffffffffffffffffff1673ffffffffffffffffffffffffffffffffffffffff168152602001908152602001600020600083815260200190815260200160002081905550806007600084815260200190815260200160002081905550505050565b6000808273ffffffffffffffffffffffffffffffffffffffff163b119050919050565b8280546132cc90614257565b90600052602060002090601f0160209004810192826132ee5760008555613335565b82601f1061330757805160ff1916838001178555613335565b82800160010185558215613335579182015b82811115613334578251825591602001919060010190613319565b5b5090506133429190613346565b5090565b5b8082111561335f576000816000905550600101613347565b5090565b600061337661337184613fd2565b613fad565b90508281526020810184848401111561339257613391614453565b5b61339d848285614215565b509392505050565b60006133b86133b384614003565b613fad565b9050828152602081018484840111156133d4576133d3614453565b5b6133df848285614215565b509392505050565b6000813590506133f68161499b565b92915050565b60008135905061340b816149b2565b92915050565b600081359050613420816149c9565b92915050565b600081519050613435816149c9565b92915050565b600082601f8301126134505761344f61444e565b5b8135613460848260208601613363565b91505092915050565b600082601f83011261347e5761347d61444e565b5b813561348e8482602086016133a5565b91505092915050565b6000813590506134a6816149e0565b92915050565b6000602082840312156134c2576134c161445d565b5b60006134d0848285016133e7565b91505092915050565b600080604083850312156134f0576134ef61445d565b5b60006134fe858286016133e7565b925050602061350f858286016133e7565b9150509250929050565b6000806000606084860312156135325761353161445d565b5b6000613540868287016133e7565b9350506020613551868287016133e7565b925050604061356286828701613497565b9150509250925092565b600080600080608085870312156135865761358561445d565b5b6000613594878288016133e7565b94505060206135a5878288016133e7565b93505060406135b687828801613497565b925050606085013567ffffffffffffffff8111156135d7576135d6614458565b5b6135e38782880161343b565b91505092959194509250565b600080604083850312156136065761360561445d565b5b6000613614858286016133e7565b9250506020613625858286016133fc565b9150509250929050565b600080604083850312156136465761364561445d565b5b6000613654858286016133e7565b925050602061366585828601613497565b9150509250929050565b6000602082840312156136855761368461445d565b5b6000613693848285016133fc565b91505092915050565b6000602082840312156136b2576136b161445d565b5b60006136c084828501613411565b91505092915050565b6000602082840312156136df576136de61445d565b5b60006136ed84828501613426565b91505092915050565b60006020828403121561370c5761370b61445d565b5b600082013567ffffffffffffffff81111561372a57613729614458565b5b61373684828501613469565b91505092915050565b6000602082840312156137555761375461445d565b5b600061376384828501613497565b91505092915050565b600080604083850312156137835761378261445d565b5b600061379185828601613497565b92505060206137a2858286016133e7565b9150509250929050565b6137b5816141a1565b82525050565b6137c4816141b3565b82525050565b60006137d582614049565b6137df818561405f565b93506137ef818560208601614224565b6137f881614462565b840191505092915050565b600061380e82614054565b6138188185614070565b9350613828818560208601614224565b61383181614462565b840191505092915050565b600061384782614054565b6138518185614081565b9350613861818560208601614224565b80840191505092915050565b6000815461387a81614257565b6138848186614081565b9450600182166000811461389f57600181146138b0576138e3565b60ff198316865281860193506138e3565b6138b985614034565b60005b838110156138db578154818901526001820191506020810190506138bc565b838801955050505b50505092915050565b60006138f9601583614070565b915061390482614473565b602082019050919050565b600061391c602b83614070565b91506139278261449c565b604082019050919050565b600061393f603283614070565b915061394a826144eb565b604082019050919050565b6000613962602683614070565b915061396d8261453a565b604082019050919050565b6000613985602583614070565b915061399082614589565b604082019050919050565b60006139a8601c83614070565b91506139b3826145d8565b602082019050919050565b60006139cb602483614070565b91506139d682614601565b604082019050919050565b60006139ee601983614070565b91506139f982614650565b602082019050919050565b6000613a11601483614070565b9150613a1c82614679565b602082019050919050565b6000613a34601083614070565b9150613a3f826146a2565b602082019050919050565b6000613a57602983614070565b9150613a62826146cb565b604082019050919050565b6000613a7a601883614070565b9150613a858261471a565b602082019050919050565b6000613a9d603e83614070565b9150613aa882614743565b604082019050919050565b6000613ac0602083614070565b9150613acb82614792565b602082019050919050565b6000613ae3602083614070565b9150613aee826147bb565b602082019050919050565b6000613b06602f83614070565b9150613b11826147e4565b604082019050919050565b6000613b29601883614070565b9150613b3482614833565b602082019050919050565b6000613b4c602183614070565b9150613b578261485c565b604082019050919050565b6000613b6f600e83614070565b9150613b7a826148ab565b602082019050919050565b6000613b92602c83614070565b9150613b9d826148d4565b604082019050919050565b6000613bb5602e83614070565b9150613bc082614923565b604082019050919050565b6000613bd8602083614070565b9150613be382614972565b602082019050919050565b613bf78161420b565b82525050565b6000613c09828661383c565b9150613c15828561383c565b9150613c21828461386d565b9150819050949350505050565b6000602082019050613c4360008301846137ac565b92915050565b6000608082019050613c5e60008301876137ac565b613c6b60208301866137ac565b613c786040830185613bee565b8181036060830152613c8a81846137ca565b905095945050505050565b6000602082019050613caa60008301846137bb565b92915050565b60006020820190508181036000830152613cca8184613803565b905092915050565b60006020820190508181036000830152613ceb816138ec565b9050919050565b60006020820190508181036000830152613d0b8161390f565b9050919050565b60006020820190508181036000830152613d2b81613932565b9050919050565b60006020820190508181036000830152613d4b81613955565b9050919050565b60006020820190508181036000830152613d6b81613978565b9050919050565b60006020820190508181036000830152613d8b8161399b565b9050919050565b60006020820190508181036000830152613dab816139be565b9050919050565b60006020820190508181036000830152613dcb816139e1565b9050919050565b60006020820190508181036000830152613deb81613a04565b9050919050565b60006020820190508181036000830152613e0b81613a27565b9050919050565b60006020820190508181036000830152613e2b81613a4a565b9050919050565b60006020820190508181036000830152613e4b81613a6d565b9050919050565b60006020820190508181036000830152613e6b81613a90565b9050919050565b60006020820190508181036000830152613e8b81613ab3565b9050919050565b60006020820190508181036000830152613eab81613ad6565b9050919050565b60006020820190508181036000830152613ecb81613af9565b9050919050565b60006020820190508181036000830152613eeb81613b1c565b9050919050565b60006020820190508181036000830152613f0b81613b3f565b9050919050565b60006020820190508181036000830152613f2b81613b62565b9050919050565b60006020820190508181036000830152613f4b81613b85565b9050919050565b60006020820190508181036000830152613f6b81613ba8565b9050919050565b60006020820190508181036000830152613f8b81613bcb565b9050919050565b6000602082019050613fa76000830184613bee565b92915050565b6000613fb7613fc8565b9050613fc38282614289565b919050565b6000604051905090565b600067ffffffffffffffff821115613fed57613fec61441f565b5b613ff682614462565b9050602081019050919050565b600067ffffffffffffffff82111561401e5761401d61441f565b5b61402782614462565b9050602081019050919050565b60008190508160005260206000209050919050565b600081519050919050565b600081519050919050565b600082825260208201905092915050565b600082825260208201905092915050565b600081905092915050565b60006140978261420b565b91506140a28361420b565b9250827fffffffffffffffffffffffffffffffffffffffffffffffffffffffffffffffff038211156140d7576140d6614334565b5b828201905092915050565b60006140ed8261420b565b91506140f88361420b565b92508261410857614107614363565b5b828204905092915050565b600061411e8261420b565b91506141298361420b565b9250817fffffffffffffffffffffffffffffffffffffffffffffffffffffffffffffffff048311821515161561416257614161614334565b5b828202905092915050565b60006141788261420b565b91506141838361420b565b92508282101561419657614195614334565b5b828203905092915050565b60006141ac826141eb565b9050919050565b60008115159050919050565b60007fffffffff0000000000000000000000000000000000000000000000000000000082169050919050565b600073ffffffffffffffffffffffffffffffffffffffff82169050919050565b6000819050919050565b82818337600083830152505050565b60005b83811015614242578082015181840152602081019050614227565b83811115614251576000848401525b50505050565b6000600282049050600182168061426f57607f821691505b6020821081141561428357614282614392565b5b50919050565b61429282614462565b810181811067ffffffffffffffff821117156142b1576142b061441f565b5b80604052505050565b60006142c58261420b565b91507fffffffffffffffffffffffffffffffffffffffffffffffffffffffffffffffff8214156142f8576142f7614334565b5b600182019050919050565b600061430e8261420b565b91506143198361420b565b92508261432957614328614363565b5b828206905092915050565b7f4e487b7100000000000000000000000000000000000000000000000000000000600052601160045260246000fd5b7f4e487b7100000000000000000000000000000000000000000000000000000000600052601260045260246000fd5b7f4e487b7100000000000000000000000000000000000000000000000000000000600052602260045260246000fd5b7f4e487b7100000000000000000000000000000000000000000000000000000000600052603160045260246000fd5b7f4e487b7100000000000000000000000000000000000000000000000000000000600052603260045260246000fd5b7f4e487b7100000000000000000000000000000000000000000000000000000000600052604160045260246000fd5b600080fd5b600080fd5b600080fd5b600080fd5b6000601f19601f8301169050919050565b7f596f7520646f6e2774206d696e74206f76657220350000000000000000000000600082015250565b7f455243373231456e756d657261626c653a206f776e657220696e646578206f7560008201527f74206f6620626f756e6473000000000000000000000000000000000000000000602082015250565b7f4552433732313a207472616e7366657220746f206e6f6e20455243373231526560008201527f63656976657220696d706c656d656e7465720000000000000000000000000000602082015250565b7f4f776e61626c653a206e6577206f776e657220697320746865207a65726f206160008201527f6464726573730000000000000000000000000000000000000000000000000000602082015250565b7f4552433732313a207472616e736665722066726f6d20696e636f72726563742060008201527f6f776e6572000000000000000000000000000000000000000000000000000000602082015250565b7f4552433732313a20746f6b656e20616c7265616479206d696e74656400000000600082015250565b7f4552433732313a207472616e7366657220746f20746865207a65726f2061646460008201527f7265737300000000000000000000000000000000000000000000000000000000602082015250565b7f4552433732313a20617070726f766520746f2063616c6c657200000000000000600082015250565b7f70726553616c652069732066696e697368656421000000000000000000000000600082015250565b7f596f75277265206e6f742061646d696e00000000000000000000000000000000600082015250565b7f4552433732313a2061646472657373207a65726f206973206e6f74206120766160008201527f6c6964206f776e65720000000000000000000000000000000000000000000000602082015250565b7f596f75277265206e6f742057686974654c697374557365720000000000000000600082015250565b7f4552433732313a20617070726f76652063616c6c6572206973206e6f7420746f60008201527f6b656e206f776e6572206e6f7220617070726f76656420666f7220616c6c0000602082015250565b7f4552433732313a206d696e7420746f20746865207a65726f2061646472657373600082015250565b7f4f776e61626c653a2063616c6c6572206973206e6f7420746865206f776e6572600082015250565b7f4552433732314d657461646174613a2055524920717565727920666f72206e6f60008201527f6e6578697374656e7420746f6b656e0000000000000000000000000000000000602082015250565b7f4552433732313a20696e76616c696420746f6b656e2049440000000000000000600082015250565b7f4552433732313a20617070726f76616c20746f2063757272656e74206f776e6560008201527f7200000000000000000000000000000000000000000000000000000000000000602082015250565b7f4e6f2072652d656e7472616e6379000000000000000000000000000000000000600082015250565b7f455243373231456e756d657261626c653a20676c6f62616c20696e646578206f60008201527f7574206f6620626f756e64730000000000000000000000000000000000000000602082015250565b7f4552433732313a2063616c6c6572206973206e6f7420746f6b656e206f776e6560008201527f72206e6f7220617070726f766564000000000000000000000000000000000000602082015250565b7f46726f6d2061646472657373206d75737420626520746f6b656e206f776e6572600082015250565b6149a4816141a1565b81146149af57600080fd5b50565b6149bb816141b3565b81146149c657600080fd5b50565b6149d2816141bf565b81146149dd57600080fd5b50565b6149e98161420b565b81146149f457600080fd5b5056fea264697066735822122050c613dae0c3b3fdf078ade3e77a094510ef6c687ad5fa92d750ad767b8078f064736f6c6343000807003368747470733a2f2f676174657761792e70696e6174612e636c6f75642f697066732f516d51655a455253316e72784e6275736f5559535038756142585173365875616a596b4a67587a6f6341696261532f",
			"opcodes": "PUSH1 0x80 PUSH1 0x40 MSTORE PUSH1 0x40 MLOAD DUP1 PUSH1 0x80 ADD PUSH1 0x40 MSTORE DUP1 PUSH1 0x51 DUP2 MSTORE PUSH1 0x20 ADD PUSH3 0x4F84 PUSH1 0x51 SWAP2 CODECOPY PUSH1 0xD SWAP1 DUP1 MLOAD SWAP1 PUSH1 0x20 ADD SWAP1 PUSH3 0x35 SWAP3 SWAP2 SWAP1 PUSH3 0x210 JUMP JUMPDEST POP PUSH1 0x40 MLOAD DUP1 PUSH1 0x40 ADD PUSH1 0x40 MSTORE DUP1 PUSH1 0x5 DUP2 MSTORE PUSH1 0x20 ADD PUSH32 0x2E6A736F6E000000000000000000000000000000000000000000000000000000 DUP2 MSTORE POP PUSH1 0xE SWAP1 DUP1 MLOAD SWAP1 PUSH1 0x20 ADD SWAP1 PUSH3 0x83 SWAP3 SWAP2 SWAP1 PUSH3 0x210 JUMP JUMPDEST POP PUSH7 0x38D7EA4C68000 PUSH1 0xF SSTORE PUSH6 0x5AF3107A4000 PUSH1 0x10 SSTORE PUSH2 0x3E8 PUSH1 0x11 SSTORE PUSH1 0x5 PUSH1 0x12 SSTORE PUSH1 0x0 PUSH1 0x13 PUSH1 0x0 PUSH2 0x100 EXP DUP2 SLOAD DUP2 PUSH1 0xFF MUL NOT AND SWAP1 DUP4 ISZERO ISZERO MUL OR SWAP1 SSTORE POP PUSH1 0x40 MLOAD PUSH3 0x4FD5 CODESIZE SUB DUP1 PUSH3 0x4FD5 DUP4 CODECOPY DUP2 DUP2 ADD PUSH1 0x40 MSTORE DUP2 ADD SWAP1 PUSH3 0xE4 SWAP2 SWAP1 PUSH3 0x33E JUMP JUMPDEST DUP2 DUP2 DUP2 PUSH1 0x0 SWAP1 DUP1 MLOAD SWAP1 PUSH1 0x20 ADD SWAP1 PUSH3 0xFE SWAP3 SWAP2 SWAP1 PUSH3 0x210 JUMP JUMPDEST POP DUP1 PUSH1 0x1 SWAP1 DUP1 MLOAD SWAP1 PUSH1 0x20 ADD SWAP1 PUSH3 0x117 SWAP3 SWAP2 SWAP1 PUSH3 0x210 JUMP JUMPDEST POP POP POP PUSH3 0x13A PUSH3 0x12E PUSH3 0x142 PUSH1 0x20 SHL PUSH1 0x20 SHR JUMP JUMPDEST PUSH3 0x14A PUSH1 0x20 SHL PUSH1 0x20 SHR JUMP JUMPDEST POP POP PUSH3 0x547 JUMP JUMPDEST PUSH1 0x0 CALLER SWAP1 POP SWAP1 JUMP JUMPDEST PUSH1 0x0 PUSH1 0xA PUSH1 0x0 SWAP1 SLOAD SWAP1 PUSH2 0x100 EXP SWAP1 DIV PUSH20 0xFFFFFFFFFFFFFFFFFFFFFFFFFFFFFFFFFFFFFFFF AND SWAP1 POP DUP2 PUSH1 0xA PUSH1 0x0 PUSH2 0x100 EXP DUP2 SLOAD DUP2 PUSH20 0xFFFFFFFFFFFFFFFFFFFFFFFFFFFFFFFFFFFFFFFF MUL NOT AND SWAP1 DUP4 PUSH20 0xFFFFFFFFFFFFFFFFFFFFFFFFFFFFFFFFFFFFFFFF AND MUL OR SWAP1 SSTORE POP DUP2 PUSH20 0xFFFFFFFFFFFFFFFFFFFFFFFFFFFFFFFFFFFFFFFF AND DUP2 PUSH20 0xFFFFFFFFFFFFFFFFFFFFFFFFFFFFFFFFFFFFFFFF AND PUSH32 0x8BE0079C531659141344CD1FD0A4F28419497F9722A3DAAFE3B4186F6B6457E0 PUSH1 0x40 MLOAD PUSH1 0x40 MLOAD DUP1 SWAP2 SUB SWAP1 LOG3 POP POP JUMP JUMPDEST DUP3 DUP1 SLOAD PUSH3 0x21E SWAP1 PUSH3 0x458 JUMP JUMPDEST SWAP1 PUSH1 0x0 MSTORE PUSH1 0x20 PUSH1 0x0 KECCAK256 SWAP1 PUSH1 0x1F ADD PUSH1 0x20 SWAP1 DIV DUP2 ADD SWAP3 DUP3 PUSH3 0x242 JUMPI PUSH1 0x0 DUP6 SSTORE PUSH3 0x28E JUMP JUMPDEST DUP3 PUSH1 0x1F LT PUSH3 0x25D JUMPI DUP1 MLOAD PUSH1 0xFF NOT AND DUP4 DUP1 ADD OR DUP6 SSTORE PUSH3 0x28E JUMP JUMPDEST DUP3 DUP1 ADD PUSH1 0x1 ADD DUP6 SSTORE DUP3 ISZERO PUSH3 0x28E JUMPI SWAP2 DUP3 ADD JUMPDEST DUP3 DUP2 GT ISZERO PUSH3 0x28D JUMPI DUP3 MLOAD DUP3 SSTORE SWAP2 PUSH1 0x20 ADD SWAP2 SWAP1 PUSH1 0x1 ADD SWAP1 PUSH3 0x270 JUMP JUMPDEST JUMPDEST POP SWAP1 POP PUSH3 0x29D SWAP2 SWAP1 PUSH3 0x2A1 JUMP JUMPDEST POP SWAP1 JUMP JUMPDEST JUMPDEST DUP1 DUP3 GT ISZERO PUSH3 0x2BC JUMPI PUSH1 0x0 DUP2 PUSH1 0x0 SWAP1 SSTORE POP PUSH1 0x1 ADD PUSH3 0x2A2 JUMP JUMPDEST POP SWAP1 JUMP JUMPDEST PUSH1 0x0 PUSH3 0x2D7 PUSH3 0x2D1 DUP5 PUSH3 0x3EC JUMP JUMPDEST PUSH3 0x3C3 JUMP JUMPDEST SWAP1 POP DUP3 DUP2 MSTORE PUSH1 0x20 DUP2 ADD DUP5 DUP5 DUP5 ADD GT ISZERO PUSH3 0x2F6 JUMPI PUSH3 0x2F5 PUSH3 0x527 JUMP JUMPDEST JUMPDEST PUSH3 0x303 DUP5 DUP3 DUP6 PUSH3 0x422 JUMP JUMPDEST POP SWAP4 SWAP3 POP POP POP JUMP JUMPDEST PUSH1 0x0 DUP3 PUSH1 0x1F DUP4 ADD SLT PUSH3 0x323 JUMPI PUSH3 0x322 PUSH3 0x522 JUMP JUMPDEST JUMPDEST DUP2 MLOAD PUSH3 0x335 DUP5 DUP3 PUSH1 0x20 DUP7 ADD PUSH3 0x2C0 JUMP JUMPDEST SWAP2 POP POP SWAP3 SWAP2 POP POP JUMP JUMPDEST PUSH1 0x0 DUP1 PUSH1 0x40 DUP4 DUP6 SUB SLT ISZERO PUSH3 0x358 JUMPI PUSH3 0x357 PUSH3 0x531 JUMP JUMPDEST JUMPDEST PUSH1 0x0 DUP4 ADD MLOAD PUSH8 0xFFFFFFFFFFFFFFFF DUP2 GT ISZERO PUSH3 0x379 JUMPI PUSH3 0x378 PUSH3 0x52C JUMP JUMPDEST JUMPDEST PUSH3 0x387 DUP6 DUP3 DUP7 ADD PUSH3 0x30B JUMP JUMPDEST SWAP3 POP POP PUSH1 0x20 DUP4 ADD MLOAD PUSH8 0xFFFFFFFFFFFFFFFF DUP2 GT ISZERO PUSH3 0x3AB JUMPI PUSH3 0x3AA PUSH3 0x52C JUMP JUMPDEST JUMPDEST PUSH3 0x3B9 DUP6 DUP3 DUP7 ADD PUSH3 0x30B JUMP JUMPDEST SWAP2 POP POP SWAP3 POP SWAP3 SWAP1 POP JUMP JUMPDEST PUSH1 0x0 PUSH3 0x3CF PUSH3 0x3E2 JUMP JUMPDEST SWAP1 POP PUSH3 0x3DD DUP3 DUP3 PUSH3 0x48E JUMP JUMPDEST SWAP2 SWAP1 POP JUMP JUMPDEST PUSH1 0x0 PUSH1 0x40 MLOAD SWAP1 POP SWAP1 JUMP JUMPDEST PUSH1 0x0 PUSH8 0xFFFFFFFFFFFFFFFF DUP3 GT ISZERO PUSH3 0x40A JUMPI PUSH3 0x409 PUSH3 0x4F3 JUMP JUMPDEST JUMPDEST PUSH3 0x415 DUP3 PUSH3 0x536 JUMP JUMPDEST SWAP1 POP PUSH1 0x20 DUP2 ADD SWAP1 POP SWAP2 SWAP1 POP JUMP JUMPDEST PUSH1 0x0 JUMPDEST DUP4 DUP2 LT ISZERO PUSH3 0x442 JUMPI DUP1 DUP3 ADD MLOAD DUP2 DUP5 ADD MSTORE PUSH1 0x20 DUP2 ADD SWAP1 POP PUSH3 0x425 JUMP JUMPDEST DUP4 DUP2 GT ISZERO PUSH3 0x452 JUMPI PUSH1 0x0 DUP5 DUP5 ADD MSTORE JUMPDEST POP POP POP POP JUMP JUMPDEST PUSH1 0x0 PUSH1 0x2 DUP3 DIV SWAP1 POP PUSH1 0x1 DUP3 AND DUP1 PUSH3 0x471 JUMPI PUSH1 0x7F DUP3 AND SWAP2 POP JUMPDEST PUSH1 0x20 DUP3 LT DUP2 EQ ISZERO PUSH3 0x488 JUMPI PUSH3 0x487 PUSH3 0x4C4 JUMP JUMPDEST JUMPDEST POP SWAP2 SWAP1 POP JUMP JUMPDEST PUSH3 0x499 DUP3 PUSH3 0x536 JUMP JUMPDEST DUP2 ADD DUP2 DUP2 LT PUSH8 0xFFFFFFFFFFFFFFFF DUP3 GT OR ISZERO PUSH3 0x4BB JUMPI PUSH3 0x4BA PUSH3 0x4F3 JUMP JUMPDEST JUMPDEST DUP1 PUSH1 0x40 MSTORE POP POP POP JUMP JUMPDEST PUSH32 0x4E487B7100000000000000000000000000000000000000000000000000000000 PUSH1 0x0 MSTORE PUSH1 0x22 PUSH1 0x4 MSTORE PUSH1 0x24 PUSH1 0x0 REVERT JUMPDEST PUSH32 0x4E487B7100000000000000000000000000000000000000000000000000000000 PUSH1 0x0 MSTORE PUSH1 0x41 PUSH1 0x4 MSTORE PUSH1 0x24 PUSH1 0x0 REVERT JUMPDEST PUSH1 0x0 DUP1 REVERT JUMPDEST PUSH1 0x0 DUP1 REVERT JUMPDEST PUSH1 0x0 DUP1 REVERT JUMPDEST PUSH1 0x0 DUP1 REVERT JUMPDEST PUSH1 0x0 PUSH1 0x1F NOT PUSH1 0x1F DUP4 ADD AND SWAP1 POP SWAP2 SWAP1 POP JUMP JUMPDEST PUSH2 0x4A2D DUP1 PUSH3 0x557 PUSH1 0x0 CODECOPY PUSH1 0x0 RETURN INVALID PUSH1 0x80 PUSH1 0x40 MSTORE PUSH1 0x4 CALLDATASIZE LT PUSH2 0x272 JUMPI PUSH1 0x0 CALLDATALOAD PUSH1 0xE0 SHR DUP1 PUSH4 0x715018A6 GT PUSH2 0x14F JUMPI DUP1 PUSH4 0xBAA431AB GT PUSH2 0xC1 JUMPI DUP1 PUSH4 0xE7CD4A04 GT PUSH2 0x7A JUMPI DUP1 PUSH4 0xE7CD4A04 EQ PUSH2 0x94C JUMPI DUP1 PUSH4 0xE985E9C5 EQ PUSH2 0x975 JUMPI DUP1 PUSH4 0xEECAF78F EQ PUSH2 0x9B2 JUMPI DUP1 PUSH4 0xF2FDE38B EQ PUSH2 0x9E2 JUMPI DUP1 PUSH4 0xF5537EDE EQ PUSH2 0xA0B JUMPI DUP1 PUSH4 0xFC6F9468 EQ PUSH2 0xA34 JUMPI PUSH2 0x272 JUMP JUMPDEST DUP1 PUSH4 0xBAA431AB EQ PUSH2 0x826 JUMPI DUP1 PUSH4 0xC4E41B22 EQ PUSH2 0x863 JUMPI DUP1 PUSH4 0xC6682862 EQ PUSH2 0x88E JUMPI DUP1 PUSH4 0xC87B56DD EQ PUSH2 0x8B9 JUMPI DUP1 PUSH4 0xD137874B EQ PUSH2 0x8F6 JUMPI DUP1 PUSH4 0xD5ABEB01 EQ PUSH2 0x921 JUMPI PUSH2 0x272 JUMP JUMPDEST DUP1 PUSH4 0x95D89B41 GT PUSH2 0x113 JUMPI DUP1 PUSH4 0x95D89B41 EQ PUSH2 0x728 JUMPI DUP1 PUSH4 0x98D5FDCA EQ PUSH2 0x753 JUMPI DUP1 PUSH4 0xA035B1FE EQ PUSH2 0x77E JUMPI DUP1 PUSH4 0xA22CB465 EQ PUSH2 0x7A9 JUMPI DUP1 PUSH4 0xB6DB75A0 EQ PUSH2 0x7D2 JUMPI DUP1 PUSH4 0xB88D4FDE EQ PUSH2 0x7FD JUMPI PUSH2 0x272 JUMP JUMPDEST DUP1 PUSH4 0x715018A6 EQ PUSH2 0x66B JUMPI DUP1 PUSH4 0x7F00C7A6 EQ PUSH2 0x682 JUMPI DUP1 PUSH4 0x888E9485 EQ PUSH2 0x6AB JUMPI DUP1 PUSH4 0x8DA5CB5B EQ PUSH2 0x6D4 JUMPI DUP1 PUSH4 0x8F283970 EQ PUSH2 0x6FF JUMPI PUSH2 0x272 JUMP JUMPDEST DUP1 PUSH4 0x3CCFD60B GT PUSH2 0x1E8 JUMPI DUP1 PUSH4 0x5C975ABB GT PUSH2 0x1AC JUMPI DUP1 PUSH4 0x5C975ABB EQ PUSH2 0x559 JUMPI DUP1 PUSH4 0x6352211E EQ PUSH2 0x584 JUMPI DUP1 PUSH4 0x6B6F4A9D EQ PUSH2 0x5C1 JUMPI DUP1 PUSH4 0x6C0360EB EQ PUSH2 0x5EC JUMPI DUP1 PUSH4 0x6D5AAF80 EQ PUSH2 0x617 JUMPI DUP1 PUSH4 0x70A08231 EQ PUSH2 0x62E JUMPI PUSH2 0x272 JUMP JUMPDEST DUP1 PUSH4 0x3CCFD60B EQ PUSH2 0x497 JUMPI DUP1 PUSH4 0x42842E0E EQ PUSH2 0x4A1 JUMPI DUP1 PUSH4 0x44A0D68A EQ PUSH2 0x4CA JUMPI DUP1 PUSH4 0x4F6CCCE7 EQ PUSH2 0x4F3 JUMPI DUP1 PUSH4 0x55F804B3 EQ PUSH2 0x530 JUMPI PUSH2 0x272 JUMP JUMPDEST DUP1 PUSH4 0x18160DDD GT PUSH2 0x23A JUMPI DUP1 PUSH4 0x18160DDD EQ PUSH2 0x375 JUMPI DUP1 PUSH4 0x2042E5C2 EQ PUSH2 0x3A0 JUMPI DUP1 PUSH4 0x239C70AE EQ PUSH2 0x3C9 JUMPI DUP1 PUSH4 0x23B872DD EQ PUSH2 0x3F4 JUMPI DUP1 PUSH4 0x2F745C59 EQ PUSH2 0x41D JUMPI DUP1 PUSH4 0x372C12B1 EQ PUSH2 0x45A JUMPI PUSH2 0x272 JUMP JUMPDEST DUP1 PUSH4 0x1FFC9A7 EQ PUSH2 0x277 JUMPI DUP1 PUSH4 0x6FDDE03 EQ PUSH2 0x2B4 JUMPI DUP1 PUSH4 0x81812FC EQ PUSH2 0x2DF JUMPI DUP1 PUSH4 0x95EA7B3 EQ PUSH2 0x31C JUMPI DUP1 PUSH4 0xAA14856 EQ PUSH2 0x345 JUMPI JUMPDEST PUSH1 0x0 DUP1 REVERT JUMPDEST CALLVALUE DUP1 ISZERO PUSH2 0x283 JUMPI PUSH1 0x0 DUP1 REVERT JUMPDEST POP PUSH2 0x29E PUSH1 0x4 DUP1 CALLDATASIZE SUB DUP2 ADD SWAP1 PUSH2 0x299 SWAP2 SWAP1 PUSH2 0x369C JUMP JUMPDEST PUSH2 0xA5F JUMP JUMPDEST PUSH1 0x40 MLOAD PUSH2 0x2AB SWAP2 SWAP1 PUSH2 0x3C95 JUMP JUMPDEST PUSH1 0x40 MLOAD DUP1 SWAP2 SUB SWAP1 RETURN JUMPDEST CALLVALUE DUP1 ISZERO PUSH2 0x2C0 JUMPI PUSH1 0x0 DUP1 REVERT JUMPDEST POP PUSH2 0x2C9 PUSH2 0xAD9 JUMP JUMPDEST PUSH1 0x40 MLOAD PUSH2 0x2D6 SWAP2 SWAP1 PUSH2 0x3CB0 JUMP JUMPDEST PUSH1 0x40 MLOAD DUP1 SWAP2 SUB SWAP1 RETURN JUMPDEST CALLVALUE DUP1 ISZERO PUSH2 0x2EB JUMPI PUSH1 0x0 DUP1 REVERT JUMPDEST POP PUSH2 0x306 PUSH1 0x4 DUP1 CALLDATASIZE SUB DUP2 ADD SWAP1 PUSH2 0x301 SWAP2 SWAP1 PUSH2 0x373F JUMP JUMPDEST PUSH2 0xB6B JUMP JUMPDEST PUSH1 0x40 MLOAD PUSH2 0x313 SWAP2 SWAP1 PUSH2 0x3C2E JUMP JUMPDEST PUSH1 0x40 MLOAD DUP1 SWAP2 SUB SWAP1 RETURN JUMPDEST CALLVALUE DUP1 ISZERO PUSH2 0x328 JUMPI PUSH1 0x0 DUP1 REVERT JUMPDEST POP PUSH2 0x343 PUSH1 0x4 DUP1 CALLDATASIZE SUB DUP2 ADD SWAP1 PUSH2 0x33E SWAP2 SWAP1 PUSH2 0x362F JUMP JUMPDEST PUSH2 0xBB1 JUMP JUMPDEST STOP JUMPDEST PUSH2 0x35F PUSH1 0x4 DUP1 CALLDATASIZE SUB DUP2 ADD SWAP1 PUSH2 0x35A SWAP2 SWAP1 PUSH2 0x376C JUMP JUMPDEST PUSH2 0xCC9 JUMP JUMPDEST PUSH1 0x40 MLOAD PUSH2 0x36C SWAP2 SWAP1 PUSH2 0x3F92 JUMP JUMPDEST PUSH1 0x40 MLOAD DUP1 SWAP2 SUB SWAP1 RETURN JUMPDEST CALLVALUE DUP1 ISZERO PUSH2 0x381 JUMPI PUSH1 0x0 DUP1 REVERT JUMPDEST POP PUSH2 0x38A PUSH2 0xDE8 JUMP JUMPDEST PUSH1 0x40 MLOAD PUSH2 0x397 SWAP2 SWAP1 PUSH2 0x3F92 JUMP JUMPDEST PUSH1 0x40 MLOAD DUP1 SWAP2 SUB SWAP1 RETURN JUMPDEST CALLVALUE DUP1 ISZERO PUSH2 0x3AC JUMPI PUSH1 0x0 DUP1 REVERT JUMPDEST POP PUSH2 0x3C7 PUSH1 0x4 DUP1 CALLDATASIZE SUB DUP2 ADD SWAP1 PUSH2 0x3C2 SWAP2 SWAP1 PUSH2 0x34AC JUMP JUMPDEST PUSH2 0xDF5 JUMP JUMPDEST STOP JUMPDEST CALLVALUE DUP1 ISZERO PUSH2 0x3D5 JUMPI PUSH1 0x0 DUP1 REVERT JUMPDEST POP PUSH2 0x3DE PUSH2 0xEE0 JUMP JUMPDEST PUSH1 0x40 MLOAD PUSH2 0x3EB SWAP2 SWAP1 PUSH2 0x3F92 JUMP JUMPDEST PUSH1 0x40 MLOAD DUP1 SWAP2 SUB SWAP1 RETURN JUMPDEST CALLVALUE DUP1 ISZERO PUSH2 0x400 JUMPI PUSH1 0x0 DUP1 REVERT JUMPDEST POP PUSH2 0x41B PUSH1 0x4 DUP1 CALLDATASIZE SUB DUP2 ADD SWAP1 PUSH2 0x416 SWAP2 SWAP1 PUSH2 0x3519 JUMP JUMPDEST PUSH2 0xEE6 JUMP JUMPDEST STOP JUMPDEST CALLVALUE DUP1 ISZERO PUSH2 0x429 JUMPI PUSH1 0x0 DUP1 REVERT JUMPDEST POP PUSH2 0x444 PUSH1 0x4 DUP1 CALLDATASIZE SUB DUP2 ADD SWAP1 PUSH2 0x43F SWAP2 SWAP1 PUSH2 0x362F JUMP JUMPDEST PUSH2 0xF46 JUMP JUMPDEST PUSH1 0x40 MLOAD PUSH2 0x451 SWAP2 SWAP1 PUSH2 0x3F92 JUMP JUMPDEST PUSH1 0x40 MLOAD DUP1 SWAP2 SUB SWAP1 RETURN JUMPDEST CALLVALUE DUP1 ISZERO PUSH2 0x466 JUMPI PUSH1 0x0 DUP1 REVERT JUMPDEST POP PUSH2 0x481 PUSH1 0x4 DUP1 CALLDATASIZE SUB DUP2 ADD SWAP1 PUSH2 0x47C SWAP2 SWAP1 PUSH2 0x34AC JUMP JUMPDEST PUSH2 0xFEB JUMP JUMPDEST PUSH1 0x40 MLOAD PUSH2 0x48E SWAP2 SWAP1 PUSH2 0x3C95 JUMP JUMPDEST PUSH1 0x40 MLOAD DUP1 SWAP2 SUB SWAP1 RETURN JUMPDEST PUSH2 0x49F PUSH2 0x100B JUMP JUMPDEST STOP JUMPDEST CALLVALUE DUP1 ISZERO PUSH2 0x4AD JUMPI PUSH1 0x0 DUP1 REVERT JUMPDEST POP PUSH2 0x4C8 PUSH1 0x4 DUP1 CALLDATASIZE SUB DUP2 ADD SWAP1 PUSH2 0x4C3 SWAP2 SWAP1 PUSH2 0x3519 JUMP JUMPDEST PUSH2 0x118C JUMP JUMPDEST STOP JUMPDEST CALLVALUE DUP1 ISZERO PUSH2 0x4D6 JUMPI PUSH1 0x0 DUP1 REVERT JUMPDEST POP PUSH2 0x4F1 PUSH1 0x4 DUP1 CALLDATASIZE SUB DUP2 ADD SWAP1 PUSH2 0x4EC SWAP2 SWAP1 PUSH2 0x373F JUMP JUMPDEST PUSH2 0x11AC JUMP JUMPDEST STOP JUMPDEST CALLVALUE DUP1 ISZERO PUSH2 0x4FF JUMPI PUSH1 0x0 DUP1 REVERT JUMPDEST POP PUSH2 0x51A PUSH1 0x4 DUP1 CALLDATASIZE SUB DUP2 ADD SWAP1 PUSH2 0x515 SWAP2 SWAP1 PUSH2 0x373F JUMP JUMPDEST PUSH2 0x1246 JUMP JUMPDEST PUSH1 0x40 MLOAD PUSH2 0x527 SWAP2 SWAP1 PUSH2 0x3F92 JUMP JUMPDEST PUSH1 0x40 MLOAD DUP1 SWAP2 SUB SWAP1 RETURN JUMPDEST CALLVALUE DUP1 ISZERO PUSH2 0x53C JUMPI PUSH1 0x0 DUP1 REVERT JUMPDEST POP PUSH2 0x557 PUSH1 0x4 DUP1 CALLDATASIZE SUB DUP2 ADD SWAP1 PUSH2 0x552 SWAP2 SWAP1 PUSH2 0x36F6 JUMP JUMPDEST PUSH2 0x12B7 JUMP JUMPDEST STOP JUMPDEST CALLVALUE DUP1 ISZERO PUSH2 0x565 JUMPI PUSH1 0x0 DUP1 REVERT JUMPDEST POP PUSH2 0x56E PUSH2 0x1361 JUMP JUMPDEST PUSH1 0x40 MLOAD PUSH2 0x57B SWAP2 SWAP1 PUSH2 0x3C95 JUMP JUMPDEST PUSH1 0x40 MLOAD DUP1 SWAP2 SUB SWAP1 RETURN JUMPDEST CALLVALUE DUP1 ISZERO PUSH2 0x590 JUMPI PUSH1 0x0 DUP1 REVERT JUMPDEST POP PUSH2 0x5AB PUSH1 0x4 DUP1 CALLDATASIZE SUB DUP2 ADD SWAP1 PUSH2 0x5A6 SWAP2 SWAP1 PUSH2 0x373F JUMP JUMPDEST PUSH2 0x1374 JUMP JUMPDEST PUSH1 0x40 MLOAD PUSH2 0x5B8 SWAP2 SWAP1 PUSH2 0x3C2E JUMP JUMPDEST PUSH1 0x40 MLOAD DUP1 SWAP2 SUB SWAP1 RETURN JUMPDEST CALLVALUE DUP1 ISZERO PUSH2 0x5CD JUMPI PUSH1 0x0 DUP1 REVERT JUMPDEST POP PUSH2 0x5D6 PUSH2 0x1426 JUMP JUMPDEST PUSH1 0x40 MLOAD PUSH2 0x5E3 SWAP2 SWAP1 PUSH2 0x3F92 JUMP JUMPDEST PUSH1 0x40 MLOAD DUP1 SWAP2 SUB SWAP1 RETURN JUMPDEST CALLVALUE DUP1 ISZERO PUSH2 0x5F8 JUMPI PUSH1 0x0 DUP1 REVERT JUMPDEST POP PUSH2 0x601 PUSH2 0x142C JUMP JUMPDEST PUSH1 0x40 MLOAD PUSH2 0x60E SWAP2 SWAP1 PUSH2 0x3CB0 JUMP JUMPDEST PUSH1 0x40 MLOAD DUP1 SWAP2 SUB SWAP1 RETURN JUMPDEST CALLVALUE DUP1 ISZERO PUSH2 0x623 JUMPI PUSH1 0x0 DUP1 REVERT JUMPDEST POP PUSH2 0x62C PUSH2 0x14BA JUMP JUMPDEST STOP JUMPDEST CALLVALUE DUP1 ISZERO PUSH2 0x63A JUMPI PUSH1 0x0 DUP1 REVERT JUMPDEST POP PUSH2 0x655 PUSH1 0x4 DUP1 CALLDATASIZE SUB DUP2 ADD SWAP1 PUSH2 0x650 SWAP2 SWAP1 PUSH2 0x34AC JUMP JUMPDEST PUSH2 0x14FD JUMP JUMPDEST PUSH1 0x40 MLOAD PUSH2 0x662 SWAP2 SWAP1 PUSH2 0x3F92 JUMP JUMPDEST PUSH1 0x40 MLOAD DUP1 SWAP2 SUB SWAP1 RETURN JUMPDEST CALLVALUE DUP1 ISZERO PUSH2 0x677 JUMPI PUSH1 0x0 DUP1 REVERT JUMPDEST POP PUSH2 0x680 PUSH2 0x15B5 JUMP JUMPDEST STOP JUMPDEST CALLVALUE DUP1 ISZERO PUSH2 0x68E JUMPI PUSH1 0x0 DUP1 REVERT JUMPDEST POP PUSH2 0x6A9 PUSH1 0x4 DUP1 CALLDATASIZE SUB DUP2 ADD SWAP1 PUSH2 0x6A4 SWAP2 SWAP1 PUSH2 0x373F JUMP JUMPDEST PUSH2 0x15C9 JUMP JUMPDEST STOP JUMPDEST CALLVALUE DUP1 ISZERO PUSH2 0x6B7 JUMPI PUSH1 0x0 DUP1 REVERT JUMPDEST POP PUSH2 0x6D2 PUSH1 0x4 DUP1 CALLDATASIZE SUB DUP2 ADD SWAP1 PUSH2 0x6CD SWAP2 SWAP1 PUSH2 0x366F JUMP JUMPDEST PUSH2 0x1663 JUMP JUMPDEST STOP JUMPDEST CALLVALUE DUP1 ISZERO PUSH2 0x6E0 JUMPI PUSH1 0x0 DUP1 REVERT JUMPDEST POP PUSH2 0x6E9 PUSH2 0x1710 JUMP JUMPDEST PUSH1 0x40 MLOAD PUSH2 0x6F6 SWAP2 SWAP1 PUSH2 0x3C2E JUMP JUMPDEST PUSH1 0x40 MLOAD DUP1 SWAP2 SUB SWAP1 RETURN JUMPDEST CALLVALUE DUP1 ISZERO PUSH2 0x70B JUMPI PUSH1 0x0 DUP1 REVERT JUMPDEST POP PUSH2 0x726 PUSH1 0x4 DUP1 CALLDATASIZE SUB DUP2 ADD SWAP1 PUSH2 0x721 SWAP2 SWAP1 PUSH2 0x34AC JUMP JUMPDEST PUSH2 0x173A JUMP JUMPDEST STOP JUMPDEST CALLVALUE DUP1 ISZERO PUSH2 0x734 JUMPI PUSH1 0x0 DUP1 REVERT JUMPDEST POP PUSH2 0x73D PUSH2 0x180E JUMP JUMPDEST PUSH1 0x40 MLOAD PUSH2 0x74A SWAP2 SWAP1 PUSH2 0x3CB0 JUMP JUMPDEST PUSH1 0x40 MLOAD DUP1 SWAP2 SUB SWAP1 RETURN JUMPDEST CALLVALUE DUP1 ISZERO PUSH2 0x75F JUMPI PUSH1 0x0 DUP1 REVERT JUMPDEST POP PUSH2 0x768 PUSH2 0x18A0 JUMP JUMPDEST PUSH1 0x40 MLOAD PUSH2 0x775 SWAP2 SWAP1 PUSH2 0x3F92 JUMP JUMPDEST PUSH1 0x40 MLOAD DUP1 SWAP2 SUB SWAP1 RETURN JUMPDEST CALLVALUE DUP1 ISZERO PUSH2 0x78A JUMPI PUSH1 0x0 DUP1 REVERT JUMPDEST POP PUSH2 0x793 PUSH2 0x18AA JUMP JUMPDEST PUSH1 0x40 MLOAD PUSH2 0x7A0 SWAP2 SWAP1 PUSH2 0x3F92 JUMP JUMPDEST PUSH1 0x40 MLOAD DUP1 SWAP2 SUB SWAP1 RETURN JUMPDEST CALLVALUE DUP1 ISZERO PUSH2 0x7B5 JUMPI PUSH1 0x0 DUP1 REVERT JUMPDEST POP PUSH2 0x7D0 PUSH1 0x4 DUP1 CALLDATASIZE SUB DUP2 ADD SWAP1 PUSH2 0x7CB SWAP2 SWAP1 PUSH2 0x35EF JUMP JUMPDEST PUSH2 0x18B0 JUMP JUMPDEST STOP JUMPDEST CALLVALUE DUP1 ISZERO PUSH2 0x7DE JUMPI PUSH1 0x0 DUP1 REVERT JUMPDEST POP PUSH2 0x7E7 PUSH2 0x18C6 JUMP JUMPDEST PUSH1 0x40 MLOAD PUSH2 0x7F4 SWAP2 SWAP1 PUSH2 0x3C2E JUMP JUMPDEST PUSH1 0x40 MLOAD DUP1 SWAP2 SUB SWAP1 RETURN JUMPDEST CALLVALUE DUP1 ISZERO PUSH2 0x809 JUMPI PUSH1 0x0 DUP1 REVERT JUMPDEST POP PUSH2 0x824 PUSH1 0x4 DUP1 CALLDATASIZE SUB DUP2 ADD SWAP1 PUSH2 0x81F SWAP2 SWAP1 PUSH2 0x356C JUMP JUMPDEST PUSH2 0x18F0 JUMP JUMPDEST STOP JUMPDEST CALLVALUE DUP1 ISZERO PUSH2 0x832 JUMPI PUSH1 0x0 DUP1 REVERT JUMPDEST POP PUSH2 0x84D PUSH1 0x4 DUP1 CALLDATASIZE SUB DUP2 ADD SWAP1 PUSH2 0x848 SWAP2 SWAP1 PUSH2 0x373F JUMP JUMPDEST PUSH2 0x1952 JUMP JUMPDEST PUSH1 0x40 MLOAD PUSH2 0x85A SWAP2 SWAP1 PUSH2 0x3C2E JUMP JUMPDEST PUSH1 0x40 MLOAD DUP1 SWAP2 SUB SWAP1 RETURN JUMPDEST CALLVALUE DUP1 ISZERO PUSH2 0x86F JUMPI PUSH1 0x0 DUP1 REVERT JUMPDEST POP PUSH2 0x878 PUSH2 0x1964 JUMP JUMPDEST PUSH1 0x40 MLOAD PUSH2 0x885 SWAP2 SWAP1 PUSH2 0x3F92 JUMP JUMPDEST PUSH1 0x40 MLOAD DUP1 SWAP2 SUB SWAP1 RETURN JUMPDEST CALLVALUE DUP1 ISZERO PUSH2 0x89A JUMPI PUSH1 0x0 DUP1 REVERT JUMPDEST POP PUSH2 0x8A3 PUSH2 0x1980 JUMP JUMPDEST PUSH1 0x40 MLOAD PUSH2 0x8B0 SWAP2 SWAP1 PUSH2 0x3CB0 JUMP JUMPDEST PUSH1 0x40 MLOAD DUP1 SWAP2 SUB SWAP1 RETURN JUMPDEST CALLVALUE DUP1 ISZERO PUSH2 0x8C5 JUMPI PUSH1 0x0 DUP1 REVERT JUMPDEST POP PUSH2 0x8E0 PUSH1 0x4 DUP1 CALLDATASIZE SUB DUP2 ADD SWAP1 PUSH2 0x8DB SWAP2 SWAP1 PUSH2 0x373F JUMP JUMPDEST PUSH2 0x1A0E JUMP JUMPDEST PUSH1 0x40 MLOAD PUSH2 0x8ED SWAP2 SWAP1 PUSH2 0x3CB0 JUMP JUMPDEST PUSH1 0x40 MLOAD DUP1 SWAP2 SUB SWAP1 RETURN JUMPDEST CALLVALUE DUP1 ISZERO PUSH2 0x902 JUMPI PUSH1 0x0 DUP1 REVERT JUMPDEST POP PUSH2 0x90B PUSH2 0x1AB8 JUMP JUMPDEST PUSH1 0x40 MLOAD PUSH2 0x918 SWAP2 SWAP1 PUSH2 0x3F92 JUMP JUMPDEST PUSH1 0x40 MLOAD DUP1 SWAP2 SUB SWAP1 RETURN JUMPDEST CALLVALUE DUP1 ISZERO PUSH2 0x92D JUMPI PUSH1 0x0 DUP1 REVERT JUMPDEST POP PUSH2 0x936 PUSH2 0x1AC2 JUMP JUMPDEST PUSH1 0x40 MLOAD PUSH2 0x943 SWAP2 SWAP1 PUSH2 0x3F92 JUMP JUMPDEST PUSH1 0x40 MLOAD DUP1 SWAP2 SUB SWAP1 RETURN JUMPDEST CALLVALUE DUP1 ISZERO PUSH2 0x958 JUMPI PUSH1 0x0 DUP1 REVERT JUMPDEST POP PUSH2 0x973 PUSH1 0x4 DUP1 CALLDATASIZE SUB DUP2 ADD SWAP1 PUSH2 0x96E SWAP2 SWAP1 PUSH2 0x34AC JUMP JUMPDEST PUSH2 0x1AC8 JUMP JUMPDEST STOP JUMPDEST CALLVALUE DUP1 ISZERO PUSH2 0x981 JUMPI PUSH1 0x0 DUP1 REVERT JUMPDEST POP PUSH2 0x99C PUSH1 0x4 DUP1 CALLDATASIZE SUB DUP2 ADD SWAP1 PUSH2 0x997 SWAP2 SWAP1 PUSH2 0x34D9 JUMP JUMPDEST PUSH2 0x1BB3 JUMP JUMPDEST PUSH1 0x40 MLOAD PUSH2 0x9A9 SWAP2 SWAP1 PUSH2 0x3C95 JUMP JUMPDEST PUSH1 0x40 MLOAD DUP1 SWAP2 SUB SWAP1 RETURN JUMPDEST PUSH2 0x9CC PUSH1 0x4 DUP1 CALLDATASIZE SUB DUP2 ADD SWAP1 PUSH2 0x9C7 SWAP2 SWAP1 PUSH2 0x376C JUMP JUMPDEST PUSH2 0x1C47 JUMP JUMPDEST PUSH1 0x40 MLOAD PUSH2 0x9D9 SWAP2 SWAP1 PUSH2 0x3F92 JUMP JUMPDEST PUSH1 0x40 MLOAD DUP1 SWAP2 SUB SWAP1 RETURN JUMPDEST CALLVALUE DUP1 ISZERO PUSH2 0x9EE JUMPI PUSH1 0x0 DUP1 REVERT JUMPDEST POP PUSH2 0xA09 PUSH1 0x4 DUP1 CALLDATASIZE SUB DUP2 ADD SWAP1 PUSH2 0xA04 SWAP2 SWAP1 PUSH2 0x34AC JUMP JUMPDEST PUSH2 0x1E7B JUMP JUMPDEST STOP JUMPDEST CALLVALUE DUP1 ISZERO PUSH2 0xA17 JUMPI PUSH1 0x0 DUP1 REVERT JUMPDEST POP PUSH2 0xA32 PUSH1 0x4 DUP1 CALLDATASIZE SUB DUP2 ADD SWAP1 PUSH2 0xA2D SWAP2 SWAP1 PUSH2 0x3519 JUMP JUMPDEST PUSH2 0x1EFF JUMP JUMPDEST STOP JUMPDEST CALLVALUE DUP1 ISZERO PUSH2 0xA40 JUMPI PUSH1 0x0 DUP1 REVERT JUMPDEST POP PUSH2 0xA49 PUSH2 0x1F85 JUMP JUMPDEST PUSH1 0x40 MLOAD PUSH2 0xA56 SWAP2 SWAP1 PUSH2 0x3C2E JUMP JUMPDEST PUSH1 0x40 MLOAD DUP1 SWAP2 SUB SWAP1 RETURN JUMPDEST PUSH1 0x0 PUSH32 0x780E9D6300000000000000000000000000000000000000000000000000000000 PUSH28 0xFFFFFFFFFFFFFFFFFFFFFFFFFFFFFFFFFFFFFFFFFFFFFFFFFFFFFFFF NOT AND DUP3 PUSH28 0xFFFFFFFFFFFFFFFFFFFFFFFFFFFFFFFFFFFFFFFFFFFFFFFFFFFFFFFF NOT AND EQ DUP1 PUSH2 0xAD2 JUMPI POP PUSH2 0xAD1 DUP3 PUSH2 0x1FAB JUMP JUMPDEST JUMPDEST SWAP1 POP SWAP2 SWAP1 POP JUMP JUMPDEST PUSH1 0x60 PUSH1 0x0 DUP1 SLOAD PUSH2 0xAE8 SWAP1 PUSH2 0x4257 JUMP JUMPDEST DUP1 PUSH1 0x1F ADD PUSH1 0x20 DUP1 SWAP2 DIV MUL PUSH1 0x20 ADD PUSH1 0x40 MLOAD SWAP1 DUP2 ADD PUSH1 0x40 MSTORE DUP1 SWAP3 SWAP2 SWAP1 DUP2 DUP2 MSTORE PUSH1 0x20 ADD DUP3 DUP1 SLOAD PUSH2 0xB14 SWAP1 PUSH2 0x4257 JUMP JUMPDEST DUP1 ISZERO PUSH2 0xB61 JUMPI DUP1 PUSH1 0x1F LT PUSH2 0xB36 JUMPI PUSH2 0x100 DUP1 DUP4 SLOAD DIV MUL DUP4 MSTORE SWAP2 PUSH1 0x20 ADD SWAP2 PUSH2 0xB61 JUMP JUMPDEST DUP3 ADD SWAP2 SWAP1 PUSH1 0x0 MSTORE PUSH1 0x20 PUSH1 0x0 KECCAK256 SWAP1 JUMPDEST DUP2 SLOAD DUP2 MSTORE SWAP1 PUSH1 0x1 ADD SWAP1 PUSH1 0x20 ADD DUP1 DUP4 GT PUSH2 0xB44 JUMPI DUP3 SWAP1 SUB PUSH1 0x1F AND DUP3 ADD SWAP2 JUMPDEST POP POP POP POP POP SWAP1 POP SWAP1 JUMP JUMPDEST PUSH1 0x0 PUSH2 0xB76 DUP3 PUSH2 0x208D JUMP JUMPDEST PUSH1 0x4 PUSH1 0x0 DUP4 DUP2 MSTORE PUSH1 0x20 ADD SWAP1 DUP2 MSTORE PUSH1 0x20 ADD PUSH1 0x0 KECCAK256 PUSH1 0x0 SWAP1 SLOAD SWAP1 PUSH2 0x100 EXP SWAP1 DIV PUSH20 0xFFFFFFFFFFFFFFFFFFFFFFFFFFFFFFFFFFFFFFFF AND SWAP1 POP SWAP2 SWAP1 POP JUMP JUMPDEST PUSH1 0x0 PUSH2 0xBBC DUP3 PUSH2 0x1374 JUMP JUMPDEST SWAP1 POP DUP1 PUSH20 0xFFFFFFFFFFFFFFFFFFFFFFFFFFFFFFFFFFFFFFFF AND DUP4 PUSH20 0xFFFFFFFFFFFFFFFFFFFFFFFFFFFFFFFFFFFFFFFF AND EQ ISZERO PUSH2 0xC2D JUMPI PUSH1 0x40 MLOAD PUSH32 0x8C379A000000000000000000000000000000000000000000000000000000000 DUP2 MSTORE PUSH1 0x4 ADD PUSH2 0xC24 SWAP1 PUSH2 0x3EF2 JUMP JUMPDEST PUSH1 0x40 MLOAD DUP1 SWAP2 SUB SWAP1 REVERT JUMPDEST DUP1 PUSH20 0xFFFFFFFFFFFFFFFFFFFFFFFFFFFFFFFFFFFFFFFF AND PUSH2 0xC4C PUSH2 0x20D8 JUMP JUMPDEST PUSH20 0xFFFFFFFFFFFFFFFFFFFFFFFFFFFFFFFFFFFFFFFF AND EQ DUP1 PUSH2 0xC7B JUMPI POP PUSH2 0xC7A DUP2 PUSH2 0xC75 PUSH2 0x20D8 JUMP JUMPDEST PUSH2 0x1BB3 JUMP JUMPDEST JUMPDEST PUSH2 0xCBA JUMPI PUSH1 0x40 MLOAD PUSH32 0x8C379A000000000000000000000000000000000000000000000000000000000 DUP2 MSTORE PUSH1 0x4 ADD PUSH2 0xCB1 SWAP1 PUSH2 0x3E52 JUMP JUMPDEST PUSH1 0x40 MLOAD DUP1 SWAP2 SUB SWAP1 REVERT JUMPDEST PUSH2 0xCC4 DUP4 DUP4 PUSH2 0x20E0 JUMP JUMPDEST POP POP POP JUMP JUMPDEST PUSH1 0x0 DUP1 PUSH2 0xCD4 PUSH2 0xDE8 JUMP JUMPDEST SWAP1 POP PUSH1 0x0 DUP5 GT PUSH2 0xCE3 JUMPI PUSH1 0x0 DUP1 REVERT JUMPDEST PUSH1 0x12 SLOAD DUP5 GT ISZERO PUSH2 0xCF2 JUMPI PUSH1 0x0 DUP1 REVERT JUMPDEST PUSH1 0x12 SLOAD DUP5 DUP3 PUSH2 0xD01 SWAP2 SWAP1 PUSH2 0x408C JUMP JUMPDEST GT ISZERO PUSH2 0xD0C JUMPI PUSH1 0x0 DUP1 REVERT JUMPDEST DUP4 PUSH1 0xF SLOAD PUSH2 0xD1A SWAP2 SWAP1 PUSH2 0x4113 JUMP JUMPDEST CALLVALUE LT ISZERO PUSH2 0xD26 JUMPI PUSH1 0x0 DUP1 REVERT JUMPDEST PUSH2 0xD30 PUSH1 0xC PUSH2 0x2199 JUMP JUMPDEST PUSH1 0x0 PUSH2 0xD3C PUSH1 0xC PUSH2 0x21AF JUMP JUMPDEST SWAP1 POP PUSH1 0x5 DUP6 EQ ISZERO PUSH2 0xD9A JUMPI PUSH1 0x0 PUSH1 0x1 SWAP1 POP JUMPDEST PUSH1 0x1 DUP7 PUSH2 0xD5B SWAP2 SWAP1 PUSH2 0x408C JUMP JUMPDEST DUP2 GT PUSH2 0xD94 JUMPI PUSH2 0xD76 CALLER DUP3 DUP6 PUSH2 0xD71 SWAP2 SWAP1 PUSH2 0x408C JUMP JUMPDEST PUSH2 0x21BD JUMP JUMPDEST PUSH2 0xD81 DUP6 PUSH1 0x1 PUSH2 0x18B0 JUMP JUMPDEST DUP1 DUP1 PUSH2 0xD8C SWAP1 PUSH2 0x42BA JUMP JUMPDEST SWAP2 POP POP PUSH2 0xD4E JUMP JUMPDEST POP PUSH2 0xDDD JUMP JUMPDEST PUSH1 0x0 PUSH1 0x1 SWAP1 POP JUMPDEST DUP6 DUP2 GT PUSH2 0xDDB JUMPI PUSH2 0xDBD CALLER DUP3 DUP6 PUSH2 0xDB8 SWAP2 SWAP1 PUSH2 0x408C JUMP JUMPDEST PUSH2 0x21BD JUMP JUMPDEST PUSH2 0xDC8 DUP6 PUSH1 0x1 PUSH2 0x18B0 JUMP JUMPDEST DUP1 DUP1 PUSH2 0xDD3 SWAP1 PUSH2 0x42BA JUMP JUMPDEST SWAP2 POP POP PUSH2 0xDA1 JUMP JUMPDEST POP JUMPDEST DUP1 SWAP3 POP POP POP SWAP3 SWAP2 POP POP JUMP JUMPDEST PUSH1 0x0 PUSH1 0x8 DUP1 SLOAD SWAP1 POP SWAP1 POP SWAP1 JUMP JUMPDEST CALLER PUSH20 0xFFFFFFFFFFFFFFFFFFFFFFFFFFFFFFFFFFFFFFFF AND PUSH1 0xB PUSH1 0x0 SWAP1 SLOAD SWAP1 PUSH2 0x100 EXP SWAP1 DIV PUSH20 0xFFFFFFFFFFFFFFFFFFFFFFFFFFFFFFFFFFFFFFFF AND PUSH20 0xFFFFFFFFFFFFFFFFFFFFFFFFFFFFFFFFFFFFFFFF AND EQ PUSH2 0xE85 JUMPI PUSH1 0x40 MLOAD PUSH32 0x8C379A000000000000000000000000000000000000000000000000000000000 DUP2 MSTORE PUSH1 0x4 ADD PUSH2 0xE7C SWAP1 PUSH2 0x3DF2 JUMP JUMPDEST PUSH1 0x40 MLOAD DUP1 SWAP2 SUB SWAP1 REVERT JUMPDEST PUSH1 0x0 PUSH1 0x14 PUSH1 0x0 DUP4 PUSH20 0xFFFFFFFFFFFFFFFFFFFFFFFFFFFFFFFFFFFFFFFF AND PUSH20 0xFFFFFFFFFFFFFFFFFFFFFFFFFFFFFFFFFFFFFFFF AND DUP2 MSTORE PUSH1 0x20 ADD SWAP1 DUP2 MSTORE PUSH1 0x20 ADD PUSH1 0x0 KECCAK256 PUSH1 0x0 PUSH2 0x100 EXP DUP2 SLOAD DUP2 PUSH1 0xFF MUL NOT AND SWAP1 DUP4 ISZERO ISZERO MUL OR SWAP1 SSTORE POP POP JUMP JUMPDEST PUSH1 0x12 SLOAD DUP2 JUMP JUMPDEST PUSH2 0xEF7 PUSH2 0xEF1 PUSH2 0x20D8 JUMP JUMPDEST DUP3 PUSH2 0x21DB JUMP JUMPDEST PUSH2 0xF36 JUMPI PUSH1 0x40 MLOAD PUSH32 0x8C379A000000000000000000000000000000000000000000000000000000000 DUP2 MSTORE PUSH1 0x4 ADD PUSH2 0xF2D SWAP1 PUSH2 0x3F52 JUMP JUMPDEST PUSH1 0x40 MLOAD DUP1 SWAP2 SUB SWAP1 REVERT JUMPDEST PUSH2 0xF41 DUP4 DUP4 DUP4 PUSH2 0x2270 JUMP JUMPDEST POP POP POP JUMP JUMPDEST PUSH1 0x0 PUSH2 0xF51 DUP4 PUSH2 0x14FD JUMP JUMPDEST DUP3 LT PUSH2 0xF92 JUMPI PUSH1 0x40 MLOAD PUSH32 0x8C379A000000000000000000000000000000000000000000000000000000000 DUP2 MSTORE PUSH1 0x4 ADD PUSH2 0xF89 SWAP1 PUSH2 0x3CF2 JUMP JUMPDEST PUSH1 0x40 MLOAD DUP1 SWAP2 SUB SWAP1 REVERT JUMPDEST PUSH1 0x6 PUSH1 0x0 DUP5 PUSH20 0xFFFFFFFFFFFFFFFFFFFFFFFFFFFFFFFFFFFFFFFF AND PUSH20 0xFFFFFFFFFFFFFFFFFFFFFFFFFFFFFFFFFFFFFFFF AND DUP2 MSTORE PUSH1 0x20 ADD SWAP1 DUP2 MSTORE PUSH1 0x20 ADD PUSH1 0x0 KECCAK256 PUSH1 0x0 DUP4 DUP2 MSTORE PUSH1 0x20 ADD SWAP1 DUP2 MSTORE PUSH1 0x20 ADD PUSH1 0x0 KECCAK256 SLOAD SWAP1 POP SWAP3 SWAP2 POP POP JUMP JUMPDEST PUSH1 0x14 PUSH1 0x20 MSTORE DUP1 PUSH1 0x0 MSTORE PUSH1 0x40 PUSH1 0x0 KECCAK256 PUSH1 0x0 SWAP2 POP SLOAD SWAP1 PUSH2 0x100 EXP SWAP1 DIV PUSH1 0xFF AND DUP2 JUMP JUMPDEST CALLER PUSH20 0xFFFFFFFFFFFFFFFFFFFFFFFFFFFFFFFFFFFFFFFF AND PUSH1 0xB PUSH1 0x0 SWAP1 SLOAD SWAP1 PUSH2 0x100 EXP SWAP1 DIV PUSH20 0xFFFFFFFFFFFFFFFFFFFFFFFFFFFFFFFFFFFFFFFF AND PUSH20 0xFFFFFFFFFFFFFFFFFFFFFFFFFFFFFFFFFFFFFFFF AND EQ PUSH2 0x109B JUMPI PUSH1 0x40 MLOAD PUSH32 0x8C379A000000000000000000000000000000000000000000000000000000000 DUP2 MSTORE PUSH1 0x4 ADD PUSH2 0x1092 SWAP1 PUSH2 0x3DF2 JUMP JUMPDEST PUSH1 0x40 MLOAD DUP1 SWAP2 SUB SWAP1 REVERT JUMPDEST PUSH1 0xA PUSH1 0x14 SWAP1 SLOAD SWAP1 PUSH2 0x100 EXP SWAP1 DIV PUSH1 0xFF AND ISZERO PUSH2 0x10EB JUMPI PUSH1 0x40 MLOAD PUSH32 0x8C379A000000000000000000000000000000000000000000000000000000000 DUP2 MSTORE PUSH1 0x4 ADD PUSH2 0x10E2 SWAP1 PUSH2 0x3F12 JUMP JUMPDEST PUSH1 0x40 MLOAD DUP1 SWAP2 SUB SWAP1 REVERT JUMPDEST PUSH1 0x1 PUSH1 0xA PUSH1 0x14 PUSH2 0x100 EXP DUP2 SLOAD DUP2 PUSH1 0xFF MUL NOT AND SWAP1 DUP4 ISZERO ISZERO MUL OR SWAP1 SSTORE POP PUSH1 0xB PUSH1 0x0 SWAP1 SLOAD SWAP1 PUSH2 0x100 EXP SWAP1 DIV PUSH20 0xFFFFFFFFFFFFFFFFFFFFFFFFFFFFFFFFFFFFFFFF AND PUSH20 0xFFFFFFFFFFFFFFFFFFFFFFFFFFFFFFFFFFFFFFFF AND PUSH2 0x8FC SELFBALANCE SWAP1 DUP2 ISZERO MUL SWAP1 PUSH1 0x40 MLOAD PUSH1 0x0 PUSH1 0x40 MLOAD DUP1 DUP4 SUB DUP2 DUP6 DUP9 DUP9 CALL SWAP4 POP POP POP POP ISZERO DUP1 ISZERO PUSH2 0x116E JUMPI RETURNDATASIZE PUSH1 0x0 DUP1 RETURNDATACOPY RETURNDATASIZE PUSH1 0x0 REVERT JUMPDEST POP PUSH1 0x0 PUSH1 0xA PUSH1 0x14 PUSH2 0x100 EXP DUP2 SLOAD DUP2 PUSH1 0xFF MUL NOT AND SWAP1 DUP4 ISZERO ISZERO MUL OR SWAP1 SSTORE POP JUMP JUMPDEST PUSH2 0x11A7 DUP4 DUP4 DUP4 PUSH1 0x40 MLOAD DUP1 PUSH1 0x20 ADD PUSH1 0x40 MSTORE DUP1 PUSH1 0x0 DUP2 MSTORE POP PUSH2 0x18F0 JUMP JUMPDEST POP POP POP JUMP JUMPDEST CALLER PUSH20 0xFFFFFFFFFFFFFFFFFFFFFFFFFFFFFFFFFFFFFFFF AND PUSH1 0xB PUSH1 0x0 SWAP1 SLOAD SWAP1 PUSH2 0x100 EXP SWAP1 DIV PUSH20 0xFFFFFFFFFFFFFFFFFFFFFFFFFFFFFFFFFFFFFFFF AND PUSH20 0xFFFFFFFFFFFFFFFFFFFFFFFFFFFFFFFFFFFFFFFF AND EQ PUSH2 0x123C JUMPI PUSH1 0x40 MLOAD PUSH32 0x8C379A000000000000000000000000000000000000000000000000000000000 DUP2 MSTORE PUSH1 0x4 ADD PUSH2 0x1233 SWAP1 PUSH2 0x3DF2 JUMP JUMPDEST PUSH1 0x40 MLOAD DUP1 SWAP2 SUB SWAP1 REVERT JUMPDEST DUP1 PUSH1 0xF DUP2 SWAP1 SSTORE POP POP JUMP JUMPDEST PUSH1 0x0 PUSH2 0x1250 PUSH2 0xDE8 JUMP JUMPDEST DUP3 LT PUSH2 0x1291 JUMPI PUSH1 0x40 MLOAD PUSH32 0x8C379A000000000000000000000000000000000000000000000000000000000 DUP2 MSTORE PUSH1 0x4 ADD PUSH2 0x1288 SWAP1 PUSH2 0x3F32 JUMP JUMPDEST PUSH1 0x40 MLOAD DUP1 SWAP2 SUB SWAP1 REVERT JUMPDEST PUSH1 0x8 DUP3 DUP2 SLOAD DUP2 LT PUSH2 0x12A5 JUMPI PUSH2 0x12A4 PUSH2 0x43F0 JUMP JUMPDEST JUMPDEST SWAP1 PUSH1 0x0 MSTORE PUSH1 0x20 PUSH1 0x0 KECCAK256 ADD SLOAD SWAP1 POP SWAP2 SWAP1 POP JUMP JUMPDEST CALLER PUSH20 0xFFFFFFFFFFFFFFFFFFFFFFFFFFFFFFFFFFFFFFFF AND PUSH1 0xB PUSH1 0x0 SWAP1 SLOAD SWAP1 PUSH2 0x100 EXP SWAP1 DIV PUSH20 0xFFFFFFFFFFFFFFFFFFFFFFFFFFFFFFFFFFFFFFFF AND PUSH20 0xFFFFFFFFFFFFFFFFFFFFFFFFFFFFFFFFFFFFFFFF AND EQ PUSH2 0x1347 JUMPI PUSH1 0x40 MLOAD PUSH32 0x8C379A000000000000000000000000000000000000000000000000000000000 DUP2 MSTORE PUSH1 0x4 ADD PUSH2 0x133E SWAP1 PUSH2 0x3DF2 JUMP JUMPDEST PUSH1 0x40 MLOAD DUP1 SWAP2 SUB SWAP1 REVERT JUMPDEST DUP1 PUSH1 0xD SWAP1 DUP1 MLOAD SWAP1 PUSH1 0x20 ADD SWAP1 PUSH2 0x135D SWAP3 SWAP2 SWAP1 PUSH2 0x32C0 JUMP JUMPDEST POP POP JUMP JUMPDEST PUSH1 0x13 PUSH1 0x0 SWAP1 SLOAD SWAP1 PUSH2 0x100 EXP SWAP1 DIV PUSH1 0xFF AND DUP2 JUMP JUMPDEST PUSH1 0x0 DUP1 PUSH1 0x2 PUSH1 0x0 DUP5 DUP2 MSTORE PUSH1 0x20 ADD SWAP1 DUP2 MSTORE PUSH1 0x20 ADD PUSH1 0x0 KECCAK256 PUSH1 0x0 SWAP1 SLOAD SWAP1 PUSH2 0x100 EXP SWAP1 DIV PUSH20 0xFFFFFFFFFFFFFFFFFFFFFFFFFFFFFFFFFFFFFFFF AND SWAP1 POP PUSH1 0x0 PUSH20 0xFFFFFFFFFFFFFFFFFFFFFFFFFFFFFFFFFFFFFFFF AND DUP2 PUSH20 0xFFFFFFFFFFFFFFFFFFFFFFFFFFFFFFFFFFFFFFFF AND EQ ISZERO PUSH2 0x141D JUMPI PUSH1 0x40 MLOAD PUSH32 0x8C379A000000000000000000000000000000000000000000000000000000000 DUP2 MSTORE PUSH1 0x4 ADD PUSH2 0x1414 SWAP1 PUSH2 0x3ED2 JUMP JUMPDEST PUSH1 0x40 MLOAD DUP1 SWAP2 SUB SWAP1 REVERT JUMPDEST DUP1 SWAP2 POP POP SWAP2 SWAP1 POP JUMP JUMPDEST PUSH1 0x10 SLOAD DUP2 JUMP JUMPDEST PUSH1 0xD DUP1 SLOAD PUSH2 0x1439 SWAP1 PUSH2 0x4257 JUMP JUMPDEST DUP1 PUSH1 0x1F ADD PUSH1 0x20 DUP1 SWAP2 DIV MUL PUSH1 0x20 ADD PUSH1 0x40 MLOAD SWAP1 DUP2 ADD PUSH1 0x40 MSTORE DUP1 SWAP3 SWAP2 SWAP1 DUP2 DUP2 MSTORE PUSH1 0x20 ADD DUP3 DUP1 SLOAD PUSH2 0x1465 SWAP1 PUSH2 0x4257 JUMP JUMPDEST DUP1 ISZERO PUSH2 0x14B2 JUMPI DUP1 PUSH1 0x1F LT PUSH2 0x1487 JUMPI PUSH2 0x100 DUP1 DUP4 SLOAD DIV MUL DUP4 MSTORE SWAP2 PUSH1 0x20 ADD SWAP2 PUSH2 0x14B2 JUMP JUMPDEST DUP3 ADD SWAP2 SWAP1 PUSH1 0x0 MSTORE PUSH1 0x20 PUSH1 0x0 KECCAK256 SWAP1 JUMPDEST DUP2 SLOAD DUP2 MSTORE SWAP1 PUSH1 0x1 ADD SWAP1 PUSH1 0x20 ADD DUP1 DUP4 GT PUSH2 0x1495 JUMPI DUP3 SWAP1 SUB PUSH1 0x1F AND DUP3 ADD SWAP2 JUMPDEST POP POP POP POP POP DUP2 JUMP JUMPDEST CALLER PUSH1 0xB PUSH1 0x0 PUSH2 0x100 EXP DUP2 SLOAD DUP2 PUSH20 0xFFFFFFFFFFFFFFFFFFFFFFFFFFFFFFFFFFFFFFFF MUL NOT AND SWAP1 DUP4 PUSH20 0xFFFFFFFFFFFFFFFFFFFFFFFFFFFFFFFFFFFFFFFF AND MUL OR SWAP1 SSTORE POP JUMP JUMPDEST PUSH1 0x0 DUP1 PUSH20 0xFFFFFFFFFFFFFFFFFFFFFFFFFFFFFFFFFFFFFFFF AND DUP3 PUSH20 0xFFFFFFFFFFFFFFFFFFFFFFFFFFFFFFFFFFFFFFFF AND EQ ISZERO PUSH2 0x156E JUMPI PUSH1 0x40 MLOAD PUSH32 0x8C379A000000000000000000000000000000000000000000000000000000000 DUP2 MSTORE PUSH1 0x4 ADD PUSH2 0x1565 SWAP1 PUSH2 0x3E12 JUMP JUMPDEST PUSH1 0x40 MLOAD DUP1 SWAP2 SUB SWAP1 REVERT JUMPDEST PUSH1 0x3 PUSH1 0x0 DUP4 PUSH20 0xFFFFFFFFFFFFFFFFFFFFFFFFFFFFFFFFFFFFFFFF AND PUSH20 0xFFFFFFFFFFFFFFFFFFFFFFFFFFFFFFFFFFFFFFFF AND DUP2 MSTORE PUSH1 0x20 ADD SWAP1 DUP2 MSTORE PUSH1 0x20 ADD PUSH1 0x0 KECCAK256 SLOAD SWAP1 POP SWAP2 SWAP1 POP JUMP JUMPDEST PUSH2 0x15BD PUSH2 0x24D7 JUMP JUMPDEST PUSH2 0x15C7 PUSH1 0x0 PUSH2 0x2555 JUMP JUMPDEST JUMP JUMPDEST CALLER PUSH20 0xFFFFFFFFFFFFFFFFFFFFFFFFFFFFFFFFFFFFFFFF AND PUSH1 0xB PUSH1 0x0 SWAP1 SLOAD SWAP1 PUSH2 0x100 EXP SWAP1 DIV PUSH20 0xFFFFFFFFFFFFFFFFFFFFFFFFFFFFFFFFFFFFFFFF AND PUSH20 0xFFFFFFFFFFFFFFFFFFFFFFFFFFFFFFFFFFFFFFFF AND EQ PUSH2 0x1659 JUMPI PUSH1 0x40 MLOAD PUSH32 0x8C379A000000000000000000000000000000000000000000000000000000000 DUP2 MSTORE PUSH1 0x4 ADD PUSH2 0x1650 SWAP1 PUSH2 0x3DF2 JUMP JUMPDEST PUSH1 0x40 MLOAD DUP1 SWAP2 SUB SWAP1 REVERT JUMPDEST DUP1 PUSH1 0x12 DUP2 SWAP1 SSTORE POP POP JUMP JUMPDEST CALLER PUSH20 0xFFFFFFFFFFFFFFFFFFFFFFFFFFFFFFFFFFFFFFFF AND PUSH1 0xB PUSH1 0x0 SWAP1 SLOAD SWAP1 PUSH2 0x100 EXP SWAP1 DIV PUSH20 0xFFFFFFFFFFFFFFFFFFFFFFFFFFFFFFFFFFFFFFFF AND PUSH20 0xFFFFFFFFFFFFFFFFFFFFFFFFFFFFFFFFFFFFFFFF AND EQ PUSH2 0x16F3 JUMPI PUSH1 0x40 MLOAD PUSH32 0x8C379A000000000000000000000000000000000000000000000000000000000 DUP2 MSTORE PUSH1 0x4 ADD PUSH2 0x16EA SWAP1 PUSH2 0x3DF2 JUMP JUMPDEST PUSH1 0x40 MLOAD DUP1 SWAP2 SUB SWAP1 REVERT JUMPDEST DUP1 PUSH1 0x13 PUSH1 0x0 PUSH2 0x100 EXP DUP2 SLOAD DUP2 PUSH1 0xFF MUL NOT AND SWAP1 DUP4 ISZERO ISZERO MUL OR SWAP1 SSTORE POP POP JUMP JUMPDEST PUSH1 0x0 PUSH1 0xA PUSH1 0x0 SWAP1 SLOAD SWAP1 PUSH2 0x100 EXP SWAP1 DIV PUSH20 0xFFFFFFFFFFFFFFFFFFFFFFFFFFFFFFFFFFFFFFFF AND SWAP1 POP SWAP1 JUMP JUMPDEST CALLER PUSH20 0xFFFFFFFFFFFFFFFFFFFFFFFFFFFFFFFFFFFFFFFF AND PUSH1 0xB PUSH1 0x0 SWAP1 SLOAD SWAP1 PUSH2 0x100 EXP SWAP1 DIV PUSH20 0xFFFFFFFFFFFFFFFFFFFFFFFFFFFFFFFFFFFFFFFF AND PUSH20 0xFFFFFFFFFFFFFFFFFFFFFFFFFFFFFFFFFFFFFFFF AND EQ PUSH2 0x17CA JUMPI PUSH1 0x40 MLOAD PUSH32 0x8C379A000000000000000000000000000000000000000000000000000000000 DUP2 MSTORE PUSH1 0x4 ADD PUSH2 0x17C1 SWAP1 PUSH2 0x3DF2 JUMP JUMPDEST PUSH1 0x40 MLOAD DUP1 SWAP2 SUB SWAP1 REVERT JUMPDEST DUP1 PUSH1 0xB PUSH1 0x0 PUSH2 0x100 EXP DUP2 SLOAD DUP2 PUSH20 0xFFFFFFFFFFFFFFFFFFFFFFFFFFFFFFFFFFFFFFFF MUL NOT AND SWAP1 DUP4 PUSH20 0xFFFFFFFFFFFFFFFFFFFFFFFFFFFFFFFFFFFFFFFF AND MUL OR SWAP1 SSTORE POP POP JUMP JUMPDEST PUSH1 0x60 PUSH1 0x1 DUP1 SLOAD PUSH2 0x181D SWAP1 PUSH2 0x4257 JUMP JUMPDEST DUP1 PUSH1 0x1F ADD PUSH1 0x20 DUP1 SWAP2 DIV MUL PUSH1 0x20 ADD PUSH1 0x40 MLOAD SWAP1 DUP2 ADD PUSH1 0x40 MSTORE DUP1 SWAP3 SWAP2 SWAP1 DUP2 DUP2 MSTORE PUSH1 0x20 ADD DUP3 DUP1 SLOAD PUSH2 0x1849 SWAP1 PUSH2 0x4257 JUMP JUMPDEST DUP1 ISZERO PUSH2 0x1896 JUMPI DUP1 PUSH1 0x1F LT PUSH2 0x186B JUMPI PUSH2 0x100 DUP1 DUP4 SLOAD DIV MUL DUP4 MSTORE SWAP2 PUSH1 0x20 ADD SWAP2 PUSH2 0x1896 JUMP JUMPDEST DUP3 ADD SWAP2 SWAP1 PUSH1 0x0 MSTORE PUSH1 0x20 PUSH1 0x0 KECCAK256 SWAP1 JUMPDEST DUP2 SLOAD DUP2 MSTORE SWAP1 PUSH1 0x1 ADD SWAP1 PUSH1 0x20 ADD DUP1 DUP4 GT PUSH2 0x1879 JUMPI DUP3 SWAP1 SUB PUSH1 0x1F AND DUP3 ADD SWAP2 JUMPDEST POP POP POP POP POP SWAP1 POP SWAP1 JUMP JUMPDEST PUSH1 0x0 PUSH1 0xF SLOAD SWAP1 POP SWAP1 JUMP JUMPDEST PUSH1 0xF SLOAD DUP2 JUMP JUMPDEST PUSH2 0x18C2 PUSH2 0x18BB PUSH2 0x20D8 JUMP JUMPDEST DUP4 DUP4 PUSH2 0x261B JUMP JUMPDEST POP POP JUMP JUMPDEST PUSH1 0x0 PUSH1 0xB PUSH1 0x0 SWAP1 SLOAD SWAP1 PUSH2 0x100 EXP SWAP1 DIV PUSH20 0xFFFFFFFFFFFFFFFFFFFFFFFFFFFFFFFFFFFFFFFF AND SWAP1 POP SWAP1 JUMP JUMPDEST PUSH2 0x1901 PUSH2 0x18FB PUSH2 0x20D8 JUMP JUMPDEST DUP4 PUSH2 0x21DB JUMP JUMPDEST PUSH2 0x1940 JUMPI PUSH1 0x40 MLOAD PUSH32 0x8C379A000000000000000000000000000000000000000000000000000000000 DUP2 MSTORE PUSH1 0x4 ADD PUSH2 0x1937 SWAP1 PUSH2 0x3F52 JUMP JUMPDEST PUSH1 0x40 MLOAD DUP1 SWAP2 SUB SWAP1 REVERT JUMPDEST PUSH2 0x194C DUP5 DUP5 DUP5 DUP5 PUSH2 0x2788 JUMP JUMPDEST POP POP POP POP JUMP JUMPDEST PUSH1 0x0 PUSH2 0x195D DUP3 PUSH2 0x1374 JUMP JUMPDEST SWAP1 POP SWAP2 SWAP1 POP JUMP JUMPDEST PUSH1 0x0 PUSH2 0x196E PUSH2 0xDE8 JUMP JUMPDEST PUSH1 0x11 SLOAD PUSH2 0x197B SWAP2 SWAP1 PUSH2 0x416D JUMP JUMPDEST SWAP1 POP SWAP1 JUMP JUMPDEST PUSH1 0xE DUP1 SLOAD PUSH2 0x198D SWAP1 PUSH2 0x4257 JUMP JUMPDEST DUP1 PUSH1 0x1F ADD PUSH1 0x20 DUP1 SWAP2 DIV MUL PUSH1 0x20 ADD PUSH1 0x40 MLOAD SWAP1 DUP2 ADD PUSH1 0x40 MSTORE DUP1 SWAP3 SWAP2 SWAP1 DUP2 DUP2 MSTORE PUSH1 0x20 ADD DUP3 DUP1 SLOAD PUSH2 0x19B9 SWAP1 PUSH2 0x4257 JUMP JUMPDEST DUP1 ISZERO PUSH2 0x1A06 JUMPI DUP1 PUSH1 0x1F LT PUSH2 0x19DB JUMPI PUSH2 0x100 DUP1 DUP4 SLOAD DIV MUL DUP4 MSTORE SWAP2 PUSH1 0x20 ADD SWAP2 PUSH2 0x1A06 JUMP JUMPDEST DUP3 ADD SWAP2 SWAP1 PUSH1 0x0 MSTORE PUSH1 0x20 PUSH1 0x0 KECCAK256 SWAP1 JUMPDEST DUP2 SLOAD DUP2 MSTORE SWAP1 PUSH1 0x1 ADD SWAP1 PUSH1 0x20 ADD DUP1 DUP4 GT PUSH2 0x19E9 JUMPI DUP3 SWAP1 SUB PUSH1 0x1F AND DUP3 ADD SWAP2 JUMPDEST POP POP POP POP POP DUP2 JUMP JUMPDEST PUSH1 0x60 PUSH2 0x1A19 DUP3 PUSH2 0x27E4 JUMP JUMPDEST PUSH2 0x1A58 JUMPI PUSH1 0x40 MLOAD PUSH32 0x8C379A000000000000000000000000000000000000000000000000000000000 DUP2 MSTORE PUSH1 0x4 ADD PUSH2 0x1A4F SWAP1 PUSH2 0x3EB2 JUMP JUMPDEST PUSH1 0x40 MLOAD DUP1 SWAP2 SUB SWAP1 REVERT JUMPDEST PUSH1 0x0 PUSH2 0x1A62 PUSH2 0x2850 JUMP JUMPDEST SWAP1 POP PUSH1 0x0 DUP2 MLOAD GT PUSH2 0x1A82 JUMPI PUSH1 0x40 MLOAD DUP1 PUSH1 0x20 ADD PUSH1 0x40 MSTORE DUP1 PUSH1 0x0 DUP2 MSTORE POP PUSH2 0x1AB0 JUMP JUMPDEST DUP1 PUSH2 0x1A8C DUP5 PUSH2 0x28E2 JUMP JUMPDEST PUSH1 0xE PUSH1 0x40 MLOAD PUSH1 0x20 ADD PUSH2 0x1AA0 SWAP4 SWAP3 SWAP2 SWAP1 PUSH2 0x3BFD JUMP JUMPDEST PUSH1 0x40 MLOAD PUSH1 0x20 DUP2 DUP4 SUB SUB DUP2 MSTORE SWAP1 PUSH1 0x40 MSTORE JUMPDEST SWAP2 POP POP SWAP2 SWAP1 POP JUMP JUMPDEST PUSH1 0x0 PUSH1 0x10 SLOAD SWAP1 POP SWAP1 JUMP JUMPDEST PUSH1 0x11 SLOAD DUP2 JUMP JUMPDEST CALLER PUSH20 0xFFFFFFFFFFFFFFFFFFFFFFFFFFFFFFFFFFFFFFFF AND PUSH1 0xB PUSH1 0x0 SWAP1 SLOAD SWAP1 PUSH2 0x100 EXP SWAP1 DIV PUSH20 0xFFFFFFFFFFFFFFFFFFFFFFFFFFFFFFFFFFFFFFFF AND PUSH20 0xFFFFFFFFFFFFFFFFFFFFFFFFFFFFFFFFFFFFFFFF AND EQ PUSH2 0x1B58 JUMPI PUSH1 0x40 MLOAD PUSH32 0x8C379A000000000000000000000000000000000000000000000000000000000 DUP2 MSTORE PUSH1 0x4 ADD PUSH2 0x1B4F SWAP1 PUSH2 0x3DF2 JUMP JUMPDEST PUSH1 0x40 MLOAD DUP1 SWAP2 SUB SWAP1 REVERT JUMPDEST PUSH1 0x1 PUSH1 0x14 PUSH1 0x0 DUP4 PUSH20 0xFFFFFFFFFFFFFFFFFFFFFFFFFFFFFFFFFFFFFFFF AND PUSH20 0xFFFFFFFFFFFFFFFFFFFFFFFFFFFFFFFFFFFFFFFF AND DUP2 MSTORE PUSH1 0x20 ADD SWAP1 DUP2 MSTORE PUSH1 0x20 ADD PUSH1 0x0 KECCAK256 PUSH1 0x0 PUSH2 0x100 EXP DUP2 SLOAD DUP2 PUSH1 0xFF MUL NOT AND SWAP1 DUP4 ISZERO ISZERO MUL OR SWAP1 SSTORE POP POP JUMP JUMPDEST PUSH1 0x0 PUSH1 0x5 PUSH1 0x0 DUP5 PUSH20 0xFFFFFFFFFFFFFFFFFFFFFFFFFFFFFFFFFFFFFFFF AND PUSH20 0xFFFFFFFFFFFFFFFFFFFFFFFFFFFFFFFFFFFFFFFF AND DUP2 MSTORE PUSH1 0x20 ADD SWAP1 DUP2 MSTORE PUSH1 0x20 ADD PUSH1 0x0 KECCAK256 PUSH1 0x0 DUP4 PUSH20 0xFFFFFFFFFFFFFFFFFFFFFFFFFFFFFFFFFFFFFFFF AND PUSH20 0xFFFFFFFFFFFFFFFFFFFFFFFFFFFFFFFFFFFFFFFF AND DUP2 MSTORE PUSH1 0x20 ADD SWAP1 DUP2 MSTORE PUSH1 0x20 ADD PUSH1 0x0 KECCAK256 PUSH1 0x0 SWAP1 SLOAD SWAP1 PUSH2 0x100 EXP SWAP1 DIV PUSH1 0xFF AND SWAP1 POP SWAP3 SWAP2 POP POP JUMP JUMPDEST PUSH1 0x0 CALLER PUSH1 0x14 PUSH1 0x0 DUP3 PUSH20 0xFFFFFFFFFFFFFFFFFFFFFFFFFFFFFFFFFFFFFFFF AND PUSH20 0xFFFFFFFFFFFFFFFFFFFFFFFFFFFFFFFFFFFFFFFF AND DUP2 MSTORE PUSH1 0x20 ADD SWAP1 DUP2 MSTORE PUSH1 0x20 ADD PUSH1 0x0 KECCAK256 PUSH1 0x0 SWAP1 SLOAD SWAP1 PUSH2 0x100 EXP SWAP1 DIV PUSH1 0xFF AND PUSH2 0x1CD6 JUMPI PUSH1 0x40 MLOAD PUSH32 0x8C379A000000000000000000000000000000000000000000000000000000000 DUP2 MSTORE PUSH1 0x4 ADD PUSH2 0x1CCD SWAP1 PUSH2 0x3E32 JUMP JUMPDEST PUSH1 0x40 MLOAD DUP1 SWAP2 SUB SWAP1 REVERT JUMPDEST PUSH1 0x0 PUSH2 0x1CE0 PUSH2 0xDE8 JUMP JUMPDEST SWAP1 POP PUSH1 0x13 PUSH1 0x0 SWAP1 SLOAD SWAP1 PUSH2 0x100 EXP SWAP1 DIV PUSH1 0xFF AND ISZERO PUSH2 0x1D32 JUMPI PUSH1 0x40 MLOAD PUSH32 0x8C379A000000000000000000000000000000000000000000000000000000000 DUP2 MSTORE PUSH1 0x4 ADD PUSH2 0x1D29 SWAP1 PUSH2 0x3DD2 JUMP JUMPDEST PUSH1 0x40 MLOAD DUP1 SWAP2 SUB SWAP1 REVERT JUMPDEST PUSH1 0x0 DUP6 GT PUSH2 0x1D3F JUMPI PUSH1 0x0 DUP1 REVERT JUMPDEST PUSH1 0x12 SLOAD DUP6 GT ISZERO PUSH2 0x1D84 JUMPI PUSH1 0x40 MLOAD PUSH32 0x8C379A000000000000000000000000000000000000000000000000000000000 DUP2 MSTORE PUSH1 0x4 ADD PUSH2 0x1D7B SWAP1 PUSH2 0x3CD2 JUMP JUMPDEST PUSH1 0x40 MLOAD DUP1 SWAP2 SUB SWAP1 REVERT JUMPDEST PUSH1 0x12 SLOAD DUP6 DUP3 PUSH2 0x1D93 SWAP2 SWAP1 PUSH2 0x408C JUMP JUMPDEST GT ISZERO PUSH2 0x1D9E JUMPI PUSH1 0x0 DUP1 REVERT JUMPDEST DUP5 PUSH1 0x10 SLOAD PUSH2 0x1DAC SWAP2 SWAP1 PUSH2 0x4113 JUMP JUMPDEST CALLVALUE LT ISZERO PUSH2 0x1DB8 JUMPI PUSH1 0x0 DUP1 REVERT JUMPDEST PUSH2 0x1DC2 PUSH1 0xC PUSH2 0x2199 JUMP JUMPDEST PUSH1 0x0 PUSH2 0x1DCE PUSH1 0xC PUSH2 0x21AF JUMP JUMPDEST SWAP1 POP PUSH1 0x5 DUP7 EQ ISZERO PUSH2 0x1E2C JUMPI PUSH1 0x0 PUSH1 0x1 SWAP1 POP JUMPDEST PUSH1 0x1 DUP8 PUSH2 0x1DED SWAP2 SWAP1 PUSH2 0x408C JUMP JUMPDEST DUP2 GT PUSH2 0x1E26 JUMPI PUSH2 0x1E08 CALLER DUP3 DUP6 PUSH2 0x1E03 SWAP2 SWAP1 PUSH2 0x408C JUMP JUMPDEST PUSH2 0x21BD JUMP JUMPDEST PUSH2 0x1E13 DUP7 PUSH1 0x1 PUSH2 0x18B0 JUMP JUMPDEST DUP1 DUP1 PUSH2 0x1E1E SWAP1 PUSH2 0x42BA JUMP JUMPDEST SWAP2 POP POP PUSH2 0x1DE0 JUMP JUMPDEST POP PUSH2 0x1E6F JUMP JUMPDEST PUSH1 0x0 PUSH1 0x1 SWAP1 POP JUMPDEST DUP7 DUP2 GT PUSH2 0x1E6D JUMPI PUSH2 0x1E4F CALLER DUP3 DUP6 PUSH2 0x1E4A SWAP2 SWAP1 PUSH2 0x408C JUMP JUMPDEST PUSH2 0x21BD JUMP JUMPDEST PUSH2 0x1E5A DUP7 PUSH1 0x1 PUSH2 0x18B0 JUMP JUMPDEST DUP1 DUP1 PUSH2 0x1E65 SWAP1 PUSH2 0x42BA JUMP JUMPDEST SWAP2 POP POP PUSH2 0x1E33 JUMP JUMPDEST POP JUMPDEST DUP1 SWAP4 POP POP POP POP SWAP3 SWAP2 POP POP JUMP JUMPDEST PUSH2 0x1E83 PUSH2 0x24D7 JUMP JUMPDEST PUSH1 0x0 PUSH20 0xFFFFFFFFFFFFFFFFFFFFFFFFFFFFFFFFFFFFFFFF AND DUP2 PUSH20 0xFFFFFFFFFFFFFFFFFFFFFFFFFFFFFFFFFFFFFFFF AND EQ ISZERO PUSH2 0x1EF3 JUMPI PUSH1 0x40 MLOAD PUSH32 0x8C379A000000000000000000000000000000000000000000000000000000000 DUP2 MSTORE PUSH1 0x4 ADD PUSH2 0x1EEA SWAP1 PUSH2 0x3D32 JUMP JUMPDEST PUSH1 0x40 MLOAD DUP1 SWAP2 SUB SWAP1 REVERT JUMPDEST PUSH2 0x1EFC DUP2 PUSH2 0x2555 JUMP JUMPDEST POP JUMP JUMPDEST DUP3 PUSH20 0xFFFFFFFFFFFFFFFFFFFFFFFFFFFFFFFFFFFFFFFF AND PUSH2 0x1F1F DUP3 PUSH2 0x1374 JUMP JUMPDEST PUSH20 0xFFFFFFFFFFFFFFFFFFFFFFFFFFFFFFFFFFFFFFFF AND EQ PUSH2 0x1F75 JUMPI PUSH1 0x40 MLOAD PUSH32 0x8C379A000000000000000000000000000000000000000000000000000000000 DUP2 MSTORE PUSH1 0x4 ADD PUSH2 0x1F6C SWAP1 PUSH2 0x3F72 JUMP JUMPDEST PUSH1 0x40 MLOAD DUP1 SWAP2 SUB SWAP1 REVERT JUMPDEST PUSH2 0x1F80 DUP4 DUP4 DUP4 PUSH2 0x2270 JUMP JUMPDEST POP POP POP JUMP JUMPDEST PUSH1 0xB PUSH1 0x0 SWAP1 SLOAD SWAP1 PUSH2 0x100 EXP SWAP1 DIV PUSH20 0xFFFFFFFFFFFFFFFFFFFFFFFFFFFFFFFFFFFFFFFF AND DUP2 JUMP JUMPDEST PUSH1 0x0 PUSH32 0x80AC58CD00000000000000000000000000000000000000000000000000000000 PUSH28 0xFFFFFFFFFFFFFFFFFFFFFFFFFFFFFFFFFFFFFFFFFFFFFFFFFFFFFFFF NOT AND DUP3 PUSH28 0xFFFFFFFFFFFFFFFFFFFFFFFFFFFFFFFFFFFFFFFFFFFFFFFFFFFFFFFF NOT AND EQ DUP1 PUSH2 0x2076 JUMPI POP PUSH32 0x5B5E139F00000000000000000000000000000000000000000000000000000000 PUSH28 0xFFFFFFFFFFFFFFFFFFFFFFFFFFFFFFFFFFFFFFFFFFFFFFFFFFFFFFFF NOT AND DUP3 PUSH28 0xFFFFFFFFFFFFFFFFFFFFFFFFFFFFFFFFFFFFFFFFFFFFFFFFFFFFFFFF NOT AND EQ JUMPDEST DUP1 PUSH2 0x2086 JUMPI POP PUSH2 0x2085 DUP3 PUSH2 0x2A43 JUMP JUMPDEST JUMPDEST SWAP1 POP SWAP2 SWAP1 POP JUMP JUMPDEST PUSH2 0x2096 DUP2 PUSH2 0x27E4 JUMP JUMPDEST PUSH2 0x20D5 JUMPI PUSH1 0x40 MLOAD PUSH32 0x8C379A000000000000000000000000000000000000000000000000000000000 DUP2 MSTORE PUSH1 0x4 ADD PUSH2 0x20CC SWAP1 PUSH2 0x3ED2 JUMP JUMPDEST PUSH1 0x40 MLOAD DUP1 SWAP2 SUB SWAP1 REVERT JUMPDEST POP JUMP JUMPDEST PUSH1 0x0 CALLER SWAP1 POP SWAP1 JUMP JUMPDEST DUP2 PUSH1 0x4 PUSH1 0x0 DUP4 DUP2 MSTORE PUSH1 0x20 ADD SWAP1 DUP2 MSTORE PUSH1 0x20 ADD PUSH1 0x0 KECCAK256 PUSH1 0x0 PUSH2 0x100 EXP DUP2 SLOAD DUP2 PUSH20 0xFFFFFFFFFFFFFFFFFFFFFFFFFFFFFFFFFFFFFFFF MUL NOT AND SWAP1 DUP4 PUSH20 0xFFFFFFFFFFFFFFFFFFFFFFFFFFFFFFFFFFFFFFFF AND MUL OR SWAP1 SSTORE POP DUP1 DUP3 PUSH20 0xFFFFFFFFFFFFFFFFFFFFFFFFFFFFFFFFFFFFFFFF AND PUSH2 0x2153 DUP4 PUSH2 0x1374 JUMP JUMPDEST PUSH20 0xFFFFFFFFFFFFFFFFFFFFFFFFFFFFFFFFFFFFFFFF AND PUSH32 0x8C5BE1E5EBEC7D5BD14F71427D1E84F3DD0314C0F7B2291E5B200AC8C7C3B925 PUSH1 0x40 MLOAD PUSH1 0x40 MLOAD DUP1 SWAP2 SUB SWAP1 LOG4 POP POP JUMP JUMPDEST PUSH1 0x1 DUP2 PUSH1 0x0 ADD PUSH1 0x0 DUP3 DUP3 SLOAD ADD SWAP3 POP POP DUP2 SWAP1 SSTORE POP POP JUMP JUMPDEST PUSH1 0x0 DUP2 PUSH1 0x0 ADD SLOAD SWAP1 POP SWAP2 SWAP1 POP JUMP JUMPDEST PUSH2 0x21D7 DUP3 DUP3 PUSH1 0x40 MLOAD DUP1 PUSH1 0x20 ADD PUSH1 0x40 MSTORE DUP1 PUSH1 0x0 DUP2 MSTORE POP PUSH2 0x2AAD JUMP JUMPDEST POP POP JUMP JUMPDEST PUSH1 0x0 DUP1 PUSH2 0x21E7 DUP4 PUSH2 0x1374 JUMP JUMPDEST SWAP1 POP DUP1 PUSH20 0xFFFFFFFFFFFFFFFFFFFFFFFFFFFFFFFFFFFFFFFF AND DUP5 PUSH20 0xFFFFFFFFFFFFFFFFFFFFFFFFFFFFFFFFFFFFFFFF AND EQ DUP1 PUSH2 0x2229 JUMPI POP PUSH2 0x2228 DUP2 DUP6 PUSH2 0x1BB3 JUMP JUMPDEST JUMPDEST DUP1 PUSH2 0x2267 JUMPI POP DUP4 PUSH20 0xFFFFFFFFFFFFFFFFFFFFFFFFFFFFFFFFFFFFFFFF AND PUSH2 0x224F DUP5 PUSH2 0xB6B JUMP JUMPDEST PUSH20 0xFFFFFFFFFFFFFFFFFFFFFFFFFFFFFFFFFFFFFFFF AND EQ JUMPDEST SWAP2 POP POP SWAP3 SWAP2 POP POP JUMP JUMPDEST DUP3 PUSH20 0xFFFFFFFFFFFFFFFFFFFFFFFFFFFFFFFFFFFFFFFF AND PUSH2 0x2290 DUP3 PUSH2 0x1374 JUMP JUMPDEST PUSH20 0xFFFFFFFFFFFFFFFFFFFFFFFFFFFFFFFFFFFFFFFF AND EQ PUSH2 0x22E6 JUMPI PUSH1 0x40 MLOAD PUSH32 0x8C379A000000000000000000000000000000000000000000000000000000000 DUP2 MSTORE PUSH1 0x4 ADD PUSH2 0x22DD SWAP1 PUSH2 0x3D52 JUMP JUMPDEST PUSH1 0x40 MLOAD DUP1 SWAP2 SUB SWAP1 REVERT JUMPDEST PUSH1 0x0 PUSH20 0xFFFFFFFFFFFFFFFFFFFFFFFFFFFFFFFFFFFFFFFF AND DUP3 PUSH20 0xFFFFFFFFFFFFFFFFFFFFFFFFFFFFFFFFFFFFFFFF AND EQ ISZERO PUSH2 0x2356 JUMPI PUSH1 0x40 MLOAD PUSH32 0x8C379A000000000000000000000000000000000000000000000000000000000 DUP2 MSTORE PUSH1 0x4 ADD PUSH2 0x234D SWAP1 PUSH2 0x3D92 JUMP JUMPDEST PUSH1 0x40 MLOAD DUP1 SWAP2 SUB SWAP1 REVERT JUMPDEST PUSH2 0x2361 DUP4 DUP4 DUP4 PUSH2 0x2B08 JUMP JUMPDEST PUSH2 0x236C PUSH1 0x0 DUP3 PUSH2 0x20E0 JUMP JUMPDEST PUSH1 0x1 PUSH1 0x3 PUSH1 0x0 DUP6 PUSH20 0xFFFFFFFFFFFFFFFFFFFFFFFFFFFFFFFFFFFFFFFF AND PUSH20 0xFFFFFFFFFFFFFFFFFFFFFFFFFFFFFFFFFFFFFFFF AND DUP2 MSTORE PUSH1 0x20 ADD SWAP1 DUP2 MSTORE PUSH1 0x20 ADD PUSH1 0x0 KECCAK256 PUSH1 0x0 DUP3 DUP3 SLOAD PUSH2 0x23BC SWAP2 SWAP1 PUSH2 0x416D JUMP JUMPDEST SWAP3 POP POP DUP2 SWAP1 SSTORE POP PUSH1 0x1 PUSH1 0x3 PUSH1 0x0 DUP5 PUSH20 0xFFFFFFFFFFFFFFFFFFFFFFFFFFFFFFFFFFFFFFFF AND PUSH20 0xFFFFFFFFFFFFFFFFFFFFFFFFFFFFFFFFFFFFFFFF AND DUP2 MSTORE PUSH1 0x20 ADD SWAP1 DUP2 MSTORE PUSH1 0x20 ADD PUSH1 0x0 KECCAK256 PUSH1 0x0 DUP3 DUP3 SLOAD PUSH2 0x2413 SWAP2 SWAP1 PUSH2 0x408C JUMP JUMPDEST SWAP3 POP POP DUP2 SWAP1 SSTORE POP DUP2 PUSH1 0x2 PUSH1 0x0 DUP4 DUP2 MSTORE PUSH1 0x20 ADD SWAP1 DUP2 MSTORE PUSH1 0x20 ADD PUSH1 0x0 KECCAK256 PUSH1 0x0 PUSH2 0x100 EXP DUP2 SLOAD DUP2 PUSH20 0xFFFFFFFFFFFFFFFFFFFFFFFFFFFFFFFFFFFFFFFF MUL NOT AND SWAP1 DUP4 PUSH20 0xFFFFFFFFFFFFFFFFFFFFFFFFFFFFFFFFFFFFFFFF AND MUL OR SWAP1 SSTORE POP DUP1 DUP3 PUSH20 0xFFFFFFFFFFFFFFFFFFFFFFFFFFFFFFFFFFFFFFFF AND DUP5 PUSH20 0xFFFFFFFFFFFFFFFFFFFFFFFFFFFFFFFFFFFFFFFF AND PUSH32 0xDDF252AD1BE2C89B69C2B068FC378DAA952BA7F163C4A11628F55A4DF523B3EF PUSH1 0x40 MLOAD PUSH1 0x40 MLOAD DUP1 SWAP2 SUB SWAP1 LOG4 PUSH2 0x24D2 DUP4 DUP4 DUP4 PUSH2 0x2C1C JUMP JUMPDEST POP POP POP JUMP JUMPDEST PUSH2 0x24DF PUSH2 0x20D8 JUMP JUMPDEST PUSH20 0xFFFFFFFFFFFFFFFFFFFFFFFFFFFFFFFFFFFFFFFF AND PUSH2 0x24FD PUSH2 0x1710 JUMP JUMPDEST PUSH20 0xFFFFFFFFFFFFFFFFFFFFFFFFFFFFFFFFFFFFFFFF AND EQ PUSH2 0x2553 JUMPI PUSH1 0x40 MLOAD PUSH32 0x8C379A000000000000000000000000000000000000000000000000000000000 DUP2 MSTORE PUSH1 0x4 ADD PUSH2 0x254A SWAP1 PUSH2 0x3E92 JUMP JUMPDEST PUSH1 0x40 MLOAD DUP1 SWAP2 SUB SWAP1 REVERT JUMPDEST JUMP JUMPDEST PUSH1 0x0 PUSH1 0xA PUSH1 0x0 SWAP1 SLOAD SWAP1 PUSH2 0x100 EXP SWAP1 DIV PUSH20 0xFFFFFFFFFFFFFFFFFFFFFFFFFFFFFFFFFFFFFFFF AND SWAP1 POP DUP2 PUSH1 0xA PUSH1 0x0 PUSH2 0x100 EXP DUP2 SLOAD DUP2 PUSH20 0xFFFFFFFFFFFFFFFFFFFFFFFFFFFFFFFFFFFFFFFF MUL NOT AND SWAP1 DUP4 PUSH20 0xFFFFFFFFFFFFFFFFFFFFFFFFFFFFFFFFFFFFFFFF AND MUL OR SWAP1 SSTORE POP DUP2 PUSH20 0xFFFFFFFFFFFFFFFFFFFFFFFFFFFFFFFFFFFFFFFF AND DUP2 PUSH20 0xFFFFFFFFFFFFFFFFFFFFFFFFFFFFFFFFFFFFFFFF AND PUSH32 0x8BE0079C531659141344CD1FD0A4F28419497F9722A3DAAFE3B4186F6B6457E0 PUSH1 0x40 MLOAD PUSH1 0x40 MLOAD DUP1 SWAP2 SUB SWAP1 LOG3 POP POP JUMP JUMPDEST DUP2 PUSH20 0xFFFFFFFFFFFFFFFFFFFFFFFFFFFFFFFFFFFFFFFF AND DUP4 PUSH20 0xFFFFFFFFFFFFFFFFFFFFFFFFFFFFFFFFFFFFFFFF AND EQ ISZERO PUSH2 0x268A JUMPI PUSH1 0x40 MLOAD PUSH32 0x8C379A000000000000000000000000000000000000000000000000000000000 DUP2 MSTORE PUSH1 0x4 ADD PUSH2 0x2681 SWAP1 PUSH2 0x3DB2 JUMP JUMPDEST PUSH1 0x40 MLOAD DUP1 SWAP2 SUB SWAP1 REVERT JUMPDEST DUP1 PUSH1 0x5 PUSH1 0x0 DUP6 PUSH20 0xFFFFFFFFFFFFFFFFFFFFFFFFFFFFFFFFFFFFFFFF AND PUSH20 0xFFFFFFFFFFFFFFFFFFFFFFFFFFFFFFFFFFFFFFFF AND DUP2 MSTORE PUSH1 0x20 ADD SWAP1 DUP2 MSTORE PUSH1 0x20 ADD PUSH1 0x0 KECCAK256 PUSH1 0x0 DUP5 PUSH20 0xFFFFFFFFFFFFFFFFFFFFFFFFFFFFFFFFFFFFFFFF AND PUSH20 0xFFFFFFFFFFFFFFFFFFFFFFFFFFFFFFFFFFFFFFFF AND DUP2 MSTORE PUSH1 0x20 ADD SWAP1 DUP2 MSTORE PUSH1 0x20 ADD PUSH1 0x0 KECCAK256 PUSH1 0x0 PUSH2 0x100 EXP DUP2 SLOAD DUP2 PUSH1 0xFF MUL NOT AND SWAP1 DUP4 ISZERO ISZERO MUL OR SWAP1 SSTORE POP DUP2 PUSH20 0xFFFFFFFFFFFFFFFFFFFFFFFFFFFFFFFFFFFFFFFF AND DUP4 PUSH20 0xFFFFFFFFFFFFFFFFFFFFFFFFFFFFFFFFFFFFFFFF AND PUSH32 0x17307EAB39AB6107E8899845AD3D59BD9653F200F220920489CA2B5937696C31 DUP4 PUSH1 0x40 MLOAD PUSH2 0x277B SWAP2 SWAP1 PUSH2 0x3C95 JUMP JUMPDEST PUSH1 0x40 MLOAD DUP1 SWAP2 SUB SWAP1 LOG3 POP POP POP JUMP JUMPDEST PUSH2 0x2793 DUP5 DUP5 DUP5 PUSH2 0x2270 JUMP JUMPDEST PUSH2 0x279F DUP5 DUP5 DUP5 DUP5 PUSH2 0x2C21 JUMP JUMPDEST PUSH2 0x27DE JUMPI PUSH1 0x40 MLOAD PUSH32 0x8C379A000000000000000000000000000000000000000000000000000000000 DUP2 MSTORE PUSH1 0x4 ADD PUSH2 0x27D5 SWAP1 PUSH2 0x3D12 JUMP JUMPDEST PUSH1 0x40 MLOAD DUP1 SWAP2 SUB SWAP1 REVERT JUMPDEST POP POP POP POP JUMP JUMPDEST PUSH1 0x0 DUP1 PUSH20 0xFFFFFFFFFFFFFFFFFFFFFFFFFFFFFFFFFFFFFFFF AND PUSH1 0x2 PUSH1 0x0 DUP5 DUP2 MSTORE PUSH1 0x20 ADD SWAP1 DUP2 MSTORE PUSH1 0x20 ADD PUSH1 0x0 KECCAK256 PUSH1 0x0 SWAP1 SLOAD SWAP1 PUSH2 0x100 EXP SWAP1 DIV PUSH20 0xFFFFFFFFFFFFFFFFFFFFFFFFFFFFFFFFFFFFFFFF AND PUSH20 0xFFFFFFFFFFFFFFFFFFFFFFFFFFFFFFFFFFFFFFFF AND EQ ISZERO SWAP1 POP SWAP2 SWAP1 POP JUMP JUMPDEST PUSH1 0x60 PUSH1 0xD DUP1 SLOAD PUSH2 0x285F SWAP1 PUSH2 0x4257 JUMP JUMPDEST DUP1 PUSH1 0x1F ADD PUSH1 0x20 DUP1 SWAP2 DIV MUL PUSH1 0x20 ADD PUSH1 0x40 MLOAD SWAP1 DUP2 ADD PUSH1 0x40 MSTORE DUP1 SWAP3 SWAP2 SWAP1 DUP2 DUP2 MSTORE PUSH1 0x20 ADD DUP3 DUP1 SLOAD PUSH2 0x288B SWAP1 PUSH2 0x4257 JUMP JUMPDEST DUP1 ISZERO PUSH2 0x28D8 JUMPI DUP1 PUSH1 0x1F LT PUSH2 0x28AD JUMPI PUSH2 0x100 DUP1 DUP4 SLOAD DIV MUL DUP4 MSTORE SWAP2 PUSH1 0x20 ADD SWAP2 PUSH2 0x28D8 JUMP JUMPDEST DUP3 ADD SWAP2 SWAP1 PUSH1 0x0 MSTORE PUSH1 0x20 PUSH1 0x0 KECCAK256 SWAP1 JUMPDEST DUP2 SLOAD DUP2 MSTORE SWAP1 PUSH1 0x1 ADD SWAP1 PUSH1 0x20 ADD DUP1 DUP4 GT PUSH2 0x28BB JUMPI DUP3 SWAP1 SUB PUSH1 0x1F AND DUP3 ADD SWAP2 JUMPDEST POP POP POP POP POP SWAP1 POP SWAP1 JUMP JUMPDEST PUSH1 0x60 PUSH1 0x0 DUP3 EQ ISZERO PUSH2 0x292A JUMPI PUSH1 0x40 MLOAD DUP1 PUSH1 0x40 ADD PUSH1 0x40 MSTORE DUP1 PUSH1 0x1 DUP2 MSTORE PUSH1 0x20 ADD PUSH32 0x3000000000000000000000000000000000000000000000000000000000000000 DUP2 MSTORE POP SWAP1 POP PUSH2 0x2A3E JUMP JUMPDEST PUSH1 0x0 DUP3 SWAP1 POP PUSH1 0x0 JUMPDEST PUSH1 0x0 DUP3 EQ PUSH2 0x295C JUMPI DUP1 DUP1 PUSH2 0x2945 SWAP1 PUSH2 0x42BA JUMP JUMPDEST SWAP2 POP POP PUSH1 0xA DUP3 PUSH2 0x2955 SWAP2 SWAP1 PUSH2 0x40E2 JUMP JUMPDEST SWAP2 POP PUSH2 0x2932 JUMP JUMPDEST PUSH1 0x0 DUP2 PUSH8 0xFFFFFFFFFFFFFFFF DUP2 GT ISZERO PUSH2 0x2978 JUMPI PUSH2 0x2977 PUSH2 0x441F JUMP JUMPDEST JUMPDEST PUSH1 0x40 MLOAD SWAP1 DUP1 DUP3 MSTORE DUP1 PUSH1 0x1F ADD PUSH1 0x1F NOT AND PUSH1 0x20 ADD DUP3 ADD PUSH1 0x40 MSTORE DUP1 ISZERO PUSH2 0x29AA JUMPI DUP2 PUSH1 0x20 ADD PUSH1 0x1 DUP3 MUL DUP1 CALLDATASIZE DUP4 CALLDATACOPY DUP1 DUP3 ADD SWAP2 POP POP SWAP1 POP JUMPDEST POP SWAP1 POP JUMPDEST PUSH1 0x0 DUP6 EQ PUSH2 0x2A37 JUMPI PUSH1 0x1 DUP3 PUSH2 0x29C3 SWAP2 SWAP1 PUSH2 0x416D JUMP JUMPDEST SWAP2 POP PUSH1 0xA DUP6 PUSH2 0x29D2 SWAP2 SWAP1 PUSH2 0x4303 JUMP JUMPDEST PUSH1 0x30 PUSH2 0x29DE SWAP2 SWAP1 PUSH2 0x408C JUMP JUMPDEST PUSH1 0xF8 SHL DUP2 DUP4 DUP2 MLOAD DUP2 LT PUSH2 0x29F4 JUMPI PUSH2 0x29F3 PUSH2 0x43F0 JUMP JUMPDEST JUMPDEST PUSH1 0x20 ADD ADD SWAP1 PUSH31 0xFFFFFFFFFFFFFFFFFFFFFFFFFFFFFFFFFFFFFFFFFFFFFFFFFFFFFFFFFFFFFF NOT AND SWAP1 DUP2 PUSH1 0x0 BYTE SWAP1 MSTORE8 POP PUSH1 0xA DUP6 PUSH2 0x2A30 SWAP2 SWAP1 PUSH2 0x40E2 JUMP JUMPDEST SWAP5 POP PUSH2 0x29AE JUMP JUMPDEST DUP1 SWAP4 POP POP POP POP JUMPDEST SWAP2 SWAP1 POP JUMP JUMPDEST PUSH1 0x0 PUSH32 0x1FFC9A700000000000000000000000000000000000000000000000000000000 PUSH28 0xFFFFFFFFFFFFFFFFFFFFFFFFFFFFFFFFFFFFFFFFFFFFFFFFFFFFFFFF NOT AND DUP3 PUSH28 0xFFFFFFFFFFFFFFFFFFFFFFFFFFFFFFFFFFFFFFFFFFFFFFFFFFFFFFFF NOT AND EQ SWAP1 POP SWAP2 SWAP1 POP JUMP JUMPDEST PUSH2 0x2AB7 DUP4 DUP4 PUSH2 0x2DB8 JUMP JUMPDEST PUSH2 0x2AC4 PUSH1 0x0 DUP5 DUP5 DUP5 PUSH2 0x2C21 JUMP JUMPDEST PUSH2 0x2B03 JUMPI PUSH1 0x40 MLOAD PUSH32 0x8C379A000000000000000000000000000000000000000000000000000000000 DUP2 MSTORE PUSH1 0x4 ADD PUSH2 0x2AFA SWAP1 PUSH2 0x3D12 JUMP JUMPDEST PUSH1 0x40 MLOAD DUP1 SWAP2 SUB SWAP1 REVERT JUMPDEST POP POP POP JUMP JUMPDEST PUSH2 0x2B13 DUP4 DUP4 DUP4 PUSH2 0x2F92 JUMP JUMPDEST PUSH1 0x0 PUSH20 0xFFFFFFFFFFFFFFFFFFFFFFFFFFFFFFFFFFFFFFFF AND DUP4 PUSH20 0xFFFFFFFFFFFFFFFFFFFFFFFFFFFFFFFFFFFFFFFF AND EQ ISZERO PUSH2 0x2B56 JUMPI PUSH2 0x2B51 DUP2 PUSH2 0x2F97 JUMP JUMPDEST PUSH2 0x2B95 JUMP JUMPDEST DUP2 PUSH20 0xFFFFFFFFFFFFFFFFFFFFFFFFFFFFFFFFFFFFFFFF AND DUP4 PUSH20 0xFFFFFFFFFFFFFFFFFFFFFFFFFFFFFFFFFFFFFFFF AND EQ PUSH2 0x2B94 JUMPI PUSH2 0x2B93 DUP4 DUP3 PUSH2 0x2FE0 JUMP JUMPDEST JUMPDEST JUMPDEST PUSH1 0x0 PUSH20 0xFFFFFFFFFFFFFFFFFFFFFFFFFFFFFFFFFFFFFFFF AND DUP3 PUSH20 0xFFFFFFFFFFFFFFFFFFFFFFFFFFFFFFFFFFFFFFFF AND EQ ISZERO PUSH2 0x2BD8 JUMPI PUSH2 0x2BD3 DUP2 PUSH2 0x314D JUMP JUMPDEST PUSH2 0x2C17 JUMP JUMPDEST DUP3 PUSH20 0xFFFFFFFFFFFFFFFFFFFFFFFFFFFFFFFFFFFFFFFF AND DUP3 PUSH20 0xFFFFFFFFFFFFFFFFFFFFFFFFFFFFFFFFFFFFFFFF AND EQ PUSH2 0x2C16 JUMPI PUSH2 0x2C15 DUP3 DUP3 PUSH2 0x321E JUMP JUMPDEST JUMPDEST JUMPDEST POP POP POP JUMP JUMPDEST POP POP POP JUMP JUMPDEST PUSH1 0x0 PUSH2 0x2C42 DUP5 PUSH20 0xFFFFFFFFFFFFFFFFFFFFFFFFFFFFFFFFFFFFFFFF AND PUSH2 0x329D JUMP JUMPDEST ISZERO PUSH2 0x2DAB JUMPI DUP4 PUSH20 0xFFFFFFFFFFFFFFFFFFFFFFFFFFFFFFFFFFFFFFFF AND PUSH4 0x150B7A02 PUSH2 0x2C6B PUSH2 0x20D8 JUMP JUMPDEST DUP8 DUP7 DUP7 PUSH1 0x40 MLOAD DUP6 PUSH4 0xFFFFFFFF AND PUSH1 0xE0 SHL DUP2 MSTORE PUSH1 0x4 ADD PUSH2 0x2C8D SWAP5 SWAP4 SWAP3 SWAP2 SWAP1 PUSH2 0x3C49 JUMP JUMPDEST PUSH1 0x20 PUSH1 0x40 MLOAD DUP1 DUP4 SUB DUP2 PUSH1 0x0 DUP8 DUP1 EXTCODESIZE ISZERO DUP1 ISZERO PUSH2 0x2CA7 JUMPI PUSH1 0x0 DUP1 REVERT JUMPDEST POP GAS CALL SWAP3 POP POP POP DUP1 ISZERO PUSH2 0x2CD8 JUMPI POP PUSH1 0x40 MLOAD RETURNDATASIZE PUSH1 0x1F NOT PUSH1 0x1F DUP3 ADD AND DUP3 ADD DUP1 PUSH1 0x40 MSTORE POP DUP2 ADD SWAP1 PUSH2 0x2CD5 SWAP2 SWAP1 PUSH2 0x36C9 JUMP JUMPDEST PUSH1 0x1 JUMPDEST PUSH2 0x2D5B JUMPI RETURNDATASIZE DUP1 PUSH1 0x0 DUP2 EQ PUSH2 0x2D08 JUMPI PUSH1 0x40 MLOAD SWAP2 POP PUSH1 0x1F NOT PUSH1 0x3F RETURNDATASIZE ADD AND DUP3 ADD PUSH1 0x40 MSTORE RETURNDATASIZE DUP3 MSTORE RETURNDATASIZE PUSH1 0x0 PUSH1 0x20 DUP5 ADD RETURNDATACOPY PUSH2 0x2D0D JUMP JUMPDEST PUSH1 0x60 SWAP2 POP JUMPDEST POP PUSH1 0x0 DUP2 MLOAD EQ ISZERO PUSH2 0x2D53 JUMPI PUSH1 0x40 MLOAD PUSH32 0x8C379A000000000000000000000000000000000000000000000000000000000 DUP2 MSTORE PUSH1 0x4 ADD PUSH2 0x2D4A SWAP1 PUSH2 0x3D12 JUMP JUMPDEST PUSH1 0x40 MLOAD DUP1 SWAP2 SUB SWAP1 REVERT JUMPDEST DUP1 MLOAD DUP2 PUSH1 0x20 ADD REVERT JUMPDEST PUSH4 0x150B7A02 PUSH1 0xE0 SHL PUSH28 0xFFFFFFFFFFFFFFFFFFFFFFFFFFFFFFFFFFFFFFFFFFFFFFFFFFFFFFFF NOT AND DUP2 PUSH28 0xFFFFFFFFFFFFFFFFFFFFFFFFFFFFFFFFFFFFFFFFFFFFFFFFFFFFFFFF NOT AND EQ SWAP2 POP POP PUSH2 0x2DB0 JUMP JUMPDEST PUSH1 0x1 SWAP1 POP JUMPDEST SWAP5 SWAP4 POP POP POP POP JUMP JUMPDEST PUSH1 0x0 PUSH20 0xFFFFFFFFFFFFFFFFFFFFFFFFFFFFFFFFFFFFFFFF AND DUP3 PUSH20 0xFFFFFFFFFFFFFFFFFFFFFFFFFFFFFFFFFFFFFFFF AND EQ ISZERO PUSH2 0x2E28 JUMPI PUSH1 0x40 MLOAD PUSH32 0x8C379A000000000000000000000000000000000000000000000000000000000 DUP2 MSTORE PUSH1 0x4 ADD PUSH2 0x2E1F SWAP1 PUSH2 0x3E72 JUMP JUMPDEST PUSH1 0x40 MLOAD DUP1 SWAP2 SUB SWAP1 REVERT JUMPDEST PUSH2 0x2E31 DUP2 PUSH2 0x27E4 JUMP JUMPDEST ISZERO PUSH2 0x2E71 JUMPI PUSH1 0x40 MLOAD PUSH32 0x8C379A000000000000000000000000000000000000000000000000000000000 DUP2 MSTORE PUSH1 0x4 ADD PUSH2 0x2E68 SWAP1 PUSH2 0x3D72 JUMP JUMPDEST PUSH1 0x40 MLOAD DUP1 SWAP2 SUB SWAP1 REVERT JUMPDEST PUSH2 0x2E7D PUSH1 0x0 DUP4 DUP4 PUSH2 0x2B08 JUMP JUMPDEST PUSH1 0x1 PUSH1 0x3 PUSH1 0x0 DUP5 PUSH20 0xFFFFFFFFFFFFFFFFFFFFFFFFFFFFFFFFFFFFFFFF AND PUSH20 0xFFFFFFFFFFFFFFFFFFFFFFFFFFFFFFFFFFFFFFFF AND DUP2 MSTORE PUSH1 0x20 ADD SWAP1 DUP2 MSTORE PUSH1 0x20 ADD PUSH1 0x0 KECCAK256 PUSH1 0x0 DUP3 DUP3 SLOAD PUSH2 0x2ECD SWAP2 SWAP1 PUSH2 0x408C JUMP JUMPDEST SWAP3 POP POP DUP2 SWAP1 SSTORE POP DUP2 PUSH1 0x2 PUSH1 0x0 DUP4 DUP2 MSTORE PUSH1 0x20 ADD SWAP1 DUP2 MSTORE PUSH1 0x20 ADD PUSH1 0x0 KECCAK256 PUSH1 0x0 PUSH2 0x100 EXP DUP2 SLOAD DUP2 PUSH20 0xFFFFFFFFFFFFFFFFFFFFFFFFFFFFFFFFFFFFFFFF MUL NOT AND SWAP1 DUP4 PUSH20 0xFFFFFFFFFFFFFFFFFFFFFFFFFFFFFFFFFFFFFFFF AND MUL OR SWAP1 SSTORE POP DUP1 DUP3 PUSH20 0xFFFFFFFFFFFFFFFFFFFFFFFFFFFFFFFFFFFFFFFF AND PUSH1 0x0 PUSH20 0xFFFFFFFFFFFFFFFFFFFFFFFFFFFFFFFFFFFFFFFF AND PUSH32 0xDDF252AD1BE2C89B69C2B068FC378DAA952BA7F163C4A11628F55A4DF523B3EF PUSH1 0x40 MLOAD PUSH1 0x40 MLOAD DUP1 SWAP2 SUB SWAP1 LOG4 PUSH2 0x2F8E PUSH1 0x0 DUP4 DUP4 PUSH2 0x2C1C JUMP JUMPDEST POP POP JUMP JUMPDEST POP POP POP JUMP JUMPDEST PUSH1 0x8 DUP1 SLOAD SWAP1 POP PUSH1 0x9 PUSH1 0x0 DUP4 DUP2 MSTORE PUSH1 0x20 ADD SWAP1 DUP2 MSTORE PUSH1 0x20 ADD PUSH1 0x0 KECCAK256 DUP2 SWAP1 SSTORE POP PUSH1 0x8 DUP2 SWAP1 DUP1 PUSH1 0x1 DUP2 SLOAD ADD DUP1 DUP3 SSTORE DUP1 SWAP2 POP POP PUSH1 0x1 SWAP1 SUB SWAP1 PUSH1 0x0 MSTORE PUSH1 0x20 PUSH1 0x0 KECCAK256 ADD PUSH1 0x0 SWAP1 SWAP2 SWAP1 SWAP2 SWAP1 SWAP2 POP SSTORE POP JUMP JUMPDEST PUSH1 0x0 PUSH1 0x1 PUSH2 0x2FED DUP5 PUSH2 0x14FD JUMP JUMPDEST PUSH2 0x2FF7 SWAP2 SWAP1 PUSH2 0x416D JUMP JUMPDEST SWAP1 POP PUSH1 0x0 PUSH1 0x7 PUSH1 0x0 DUP5 DUP2 MSTORE PUSH1 0x20 ADD SWAP1 DUP2 MSTORE PUSH1 0x20 ADD PUSH1 0x0 KECCAK256 SLOAD SWAP1 POP DUP2 DUP2 EQ PUSH2 0x30DC JUMPI PUSH1 0x0 PUSH1 0x6 PUSH1 0x0 DUP7 PUSH20 0xFFFFFFFFFFFFFFFFFFFFFFFFFFFFFFFFFFFFFFFF AND PUSH20 0xFFFFFFFFFFFFFFFFFFFFFFFFFFFFFFFFFFFFFFFF AND DUP2 MSTORE PUSH1 0x20 ADD SWAP1 DUP2 MSTORE PUSH1 0x20 ADD PUSH1 0x0 KECCAK256 PUSH1 0x0 DUP5 DUP2 MSTORE PUSH1 0x20 ADD SWAP1 DUP2 MSTORE PUSH1 0x20 ADD PUSH1 0x0 KECCAK256 SLOAD SWAP1 POP DUP1 PUSH1 0x6 PUSH1 0x0 DUP8 PUSH20 0xFFFFFFFFFFFFFFFFFFFFFFFFFFFFFFFFFFFFFFFF AND PUSH20 0xFFFFFFFFFFFFFFFFFFFFFFFFFFFFFFFFFFFFFFFF AND DUP2 MSTORE PUSH1 0x20 ADD SWAP1 DUP2 MSTORE PUSH1 0x20 ADD PUSH1 0x0 KECCAK256 PUSH1 0x0 DUP5 DUP2 MSTORE PUSH1 0x20 ADD SWAP1 DUP2 MSTORE PUSH1 0x20 ADD PUSH1 0x0 KECCAK256 DUP2 SWAP1 SSTORE POP DUP2 PUSH1 0x7 PUSH1 0x0 DUP4 DUP2 MSTORE PUSH1 0x20 ADD SWAP1 DUP2 MSTORE PUSH1 0x20 ADD PUSH1 0x0 KECCAK256 DUP2 SWAP1 SSTORE POP POP JUMPDEST PUSH1 0x7 PUSH1 0x0 DUP5 DUP2 MSTORE PUSH1 0x20 ADD SWAP1 DUP2 MSTORE PUSH1 0x20 ADD PUSH1 0x0 KECCAK256 PUSH1 0x0 SWAP1 SSTORE PUSH1 0x6 PUSH1 0x0 DUP6 PUSH20 0xFFFFFFFFFFFFFFFFFFFFFFFFFFFFFFFFFFFFFFFF AND PUSH20 0xFFFFFFFFFFFFFFFFFFFFFFFFFFFFFFFFFFFFFFFF AND DUP2 MSTORE PUSH1 0x20 ADD SWAP1 DUP2 MSTORE PUSH1 0x20 ADD PUSH1 0x0 KECCAK256 PUSH1 0x0 DUP4 DUP2 MSTORE PUSH1 0x20 ADD SWAP1 DUP2 MSTORE PUSH1 0x20 ADD PUSH1 0x0 KECCAK256 PUSH1 0x0 SWAP1 SSTORE POP POP POP POP JUMP JUMPDEST PUSH1 0x0 PUSH1 0x1 PUSH1 0x8 DUP1 SLOAD SWAP1 POP PUSH2 0x3161 SWAP2 SWAP1 PUSH2 0x416D JUMP JUMPDEST SWAP1 POP PUSH1 0x0 PUSH1 0x9 PUSH1 0x0 DUP5 DUP2 MSTORE PUSH1 0x20 ADD SWAP1 DUP2 MSTORE PUSH1 0x20 ADD PUSH1 0x0 KECCAK256 SLOAD SWAP1 POP PUSH1 0x0 PUSH1 0x8 DUP4 DUP2 SLOAD DUP2 LT PUSH2 0x3191 JUMPI PUSH2 0x3190 PUSH2 0x43F0 JUMP JUMPDEST JUMPDEST SWAP1 PUSH1 0x0 MSTORE PUSH1 0x20 PUSH1 0x0 KECCAK256 ADD SLOAD SWAP1 POP DUP1 PUSH1 0x8 DUP4 DUP2 SLOAD DUP2 LT PUSH2 0x31B3 JUMPI PUSH2 0x31B2 PUSH2 0x43F0 JUMP JUMPDEST JUMPDEST SWAP1 PUSH1 0x0 MSTORE PUSH1 0x20 PUSH1 0x0 KECCAK256 ADD DUP2 SWAP1 SSTORE POP DUP2 PUSH1 0x9 PUSH1 0x0 DUP4 DUP2 MSTORE PUSH1 0x20 ADD SWAP1 DUP2 MSTORE PUSH1 0x20 ADD PUSH1 0x0 KECCAK256 DUP2 SWAP1 SSTORE POP PUSH1 0x9 PUSH1 0x0 DUP6 DUP2 MSTORE PUSH1 0x20 ADD SWAP1 DUP2 MSTORE PUSH1 0x20 ADD PUSH1 0x0 KECCAK256 PUSH1 0x0 SWAP1 SSTORE PUSH1 0x8 DUP1 SLOAD DUP1 PUSH2 0x3202 JUMPI PUSH2 0x3201 PUSH2 0x43C1 JUMP JUMPDEST JUMPDEST PUSH1 0x1 SWAP1 SUB DUP2 DUP2 SWAP1 PUSH1 0x0 MSTORE PUSH1 0x20 PUSH1 0x0 KECCAK256 ADD PUSH1 0x0 SWAP1 SSTORE SWAP1 SSTORE POP POP POP POP JUMP JUMPDEST PUSH1 0x0 PUSH2 0x3229 DUP4 PUSH2 0x14FD JUMP JUMPDEST SWAP1 POP DUP2 PUSH1 0x6 PUSH1 0x0 DUP6 PUSH20 0xFFFFFFFFFFFFFFFFFFFFFFFFFFFFFFFFFFFFFFFF AND PUSH20 0xFFFFFFFFFFFFFFFFFFFFFFFFFFFFFFFFFFFFFFFF AND DUP2 MSTORE PUSH1 0x20 ADD SWAP1 DUP2 MSTORE PUSH1 0x20 ADD PUSH1 0x0 KECCAK256 PUSH1 0x0 DUP4 DUP2 MSTORE PUSH1 0x20 ADD SWAP1 DUP2 MSTORE PUSH1 0x20 ADD PUSH1 0x0 KECCAK256 DUP2 SWAP1 SSTORE POP DUP1 PUSH1 0x7 PUSH1 0x0 DUP5 DUP2 MSTORE PUSH1 0x20 ADD SWAP1 DUP2 MSTORE PUSH1 0x20 ADD PUSH1 0x0 KECCAK256 DUP2 SWAP1 SSTORE POP POP POP POP JUMP JUMPDEST PUSH1 0x0 DUP1 DUP3 PUSH20 0xFFFFFFFFFFFFFFFFFFFFFFFFFFFFFFFFFFFFFFFF AND EXTCODESIZE GT SWAP1 POP SWAP2 SWAP1 POP JUMP JUMPDEST DUP3 DUP1 SLOAD PUSH2 0x32CC SWAP1 PUSH2 0x4257 JUMP JUMPDEST SWAP1 PUSH1 0x0 MSTORE PUSH1 0x20 PUSH1 0x0 KECCAK256 SWAP1 PUSH1 0x1F ADD PUSH1 0x20 SWAP1 DIV DUP2 ADD SWAP3 DUP3 PUSH2 0x32EE JUMPI PUSH1 0x0 DUP6 SSTORE PUSH2 0x3335 JUMP JUMPDEST DUP3 PUSH1 0x1F LT PUSH2 0x3307 JUMPI DUP1 MLOAD PUSH1 0xFF NOT AND DUP4 DUP1 ADD OR DUP6 SSTORE PUSH2 0x3335 JUMP JUMPDEST DUP3 DUP1 ADD PUSH1 0x1 ADD DUP6 SSTORE DUP3 ISZERO PUSH2 0x3335 JUMPI SWAP2 DUP3 ADD JUMPDEST DUP3 DUP2 GT ISZERO PUSH2 0x3334 JUMPI DUP3 MLOAD DUP3 SSTORE SWAP2 PUSH1 0x20 ADD SWAP2 SWAP1 PUSH1 0x1 ADD SWAP1 PUSH2 0x3319 JUMP JUMPDEST JUMPDEST POP SWAP1 POP PUSH2 0x3342 SWAP2 SWAP1 PUSH2 0x3346 JUMP JUMPDEST POP SWAP1 JUMP JUMPDEST JUMPDEST DUP1 DUP3 GT ISZERO PUSH2 0x335F JUMPI PUSH1 0x0 DUP2 PUSH1 0x0 SWAP1 SSTORE POP PUSH1 0x1 ADD PUSH2 0x3347 JUMP JUMPDEST POP SWAP1 JUMP JUMPDEST PUSH1 0x0 PUSH2 0x3376 PUSH2 0x3371 DUP5 PUSH2 0x3FD2 JUMP JUMPDEST PUSH2 0x3FAD JUMP JUMPDEST SWAP1 POP DUP3 DUP2 MSTORE PUSH1 0x20 DUP2 ADD DUP5 DUP5 DUP5 ADD GT ISZERO PUSH2 0x3392 JUMPI PUSH2 0x3391 PUSH2 0x4453 JUMP JUMPDEST JUMPDEST PUSH2 0x339D DUP5 DUP3 DUP6 PUSH2 0x4215 JUMP JUMPDEST POP SWAP4 SWAP3 POP POP POP JUMP JUMPDEST PUSH1 0x0 PUSH2 0x33B8 PUSH2 0x33B3 DUP5 PUSH2 0x4003 JUMP JUMPDEST PUSH2 0x3FAD JUMP JUMPDEST SWAP1 POP DUP3 DUP2 MSTORE PUSH1 0x20 DUP2 ADD DUP5 DUP5 DUP5 ADD GT ISZERO PUSH2 0x33D4 JUMPI PUSH2 0x33D3 PUSH2 0x4453 JUMP JUMPDEST JUMPDEST PUSH2 0x33DF DUP5 DUP3 DUP6 PUSH2 0x4215 JUMP JUMPDEST POP SWAP4 SWAP3 POP POP POP JUMP JUMPDEST PUSH1 0x0 DUP2 CALLDATALOAD SWAP1 POP PUSH2 0x33F6 DUP2 PUSH2 0x499B JUMP JUMPDEST SWAP3 SWAP2 POP POP JUMP JUMPDEST PUSH1 0x0 DUP2 CALLDATALOAD SWAP1 POP PUSH2 0x340B DUP2 PUSH2 0x49B2 JUMP JUMPDEST SWAP3 SWAP2 POP POP JUMP JUMPDEST PUSH1 0x0 DUP2 CALLDATALOAD SWAP1 POP PUSH2 0x3420 DUP2 PUSH2 0x49C9 JUMP JUMPDEST SWAP3 SWAP2 POP POP JUMP JUMPDEST PUSH1 0x0 DUP2 MLOAD SWAP1 POP PUSH2 0x3435 DUP2 PUSH2 0x49C9 JUMP JUMPDEST SWAP3 SWAP2 POP POP JUMP JUMPDEST PUSH1 0x0 DUP3 PUSH1 0x1F DUP4 ADD SLT PUSH2 0x3450 JUMPI PUSH2 0x344F PUSH2 0x444E JUMP JUMPDEST JUMPDEST DUP2 CALLDATALOAD PUSH2 0x3460 DUP5 DUP3 PUSH1 0x20 DUP7 ADD PUSH2 0x3363 JUMP JUMPDEST SWAP2 POP POP SWAP3 SWAP2 POP POP JUMP JUMPDEST PUSH1 0x0 DUP3 PUSH1 0x1F DUP4 ADD SLT PUSH2 0x347E JUMPI PUSH2 0x347D PUSH2 0x444E JUMP JUMPDEST JUMPDEST DUP2 CALLDATALOAD PUSH2 0x348E DUP5 DUP3 PUSH1 0x20 DUP7 ADD PUSH2 0x33A5 JUMP JUMPDEST SWAP2 POP POP SWAP3 SWAP2 POP POP JUMP JUMPDEST PUSH1 0x0 DUP2 CALLDATALOAD SWAP1 POP PUSH2 0x34A6 DUP2 PUSH2 0x49E0 JUMP JUMPDEST SWAP3 SWAP2 POP POP JUMP JUMPDEST PUSH1 0x0 PUSH1 0x20 DUP3 DUP5 SUB SLT ISZERO PUSH2 0x34C2 JUMPI PUSH2 0x34C1 PUSH2 0x445D JUMP JUMPDEST JUMPDEST PUSH1 0x0 PUSH2 0x34D0 DUP5 DUP3 DUP6 ADD PUSH2 0x33E7 JUMP JUMPDEST SWAP2 POP POP SWAP3 SWAP2 POP POP JUMP JUMPDEST PUSH1 0x0 DUP1 PUSH1 0x40 DUP4 DUP6 SUB SLT ISZERO PUSH2 0x34F0 JUMPI PUSH2 0x34EF PUSH2 0x445D JUMP JUMPDEST JUMPDEST PUSH1 0x0 PUSH2 0x34FE DUP6 DUP3 DUP7 ADD PUSH2 0x33E7 JUMP JUMPDEST SWAP3 POP POP PUSH1 0x20 PUSH2 0x350F DUP6 DUP3 DUP7 ADD PUSH2 0x33E7 JUMP JUMPDEST SWAP2 POP POP SWAP3 POP SWAP3 SWAP1 POP JUMP JUMPDEST PUSH1 0x0 DUP1 PUSH1 0x0 PUSH1 0x60 DUP5 DUP7 SUB SLT ISZERO PUSH2 0x3532 JUMPI PUSH2 0x3531 PUSH2 0x445D JUMP JUMPDEST JUMPDEST PUSH1 0x0 PUSH2 0x3540 DUP7 DUP3 DUP8 ADD PUSH2 0x33E7 JUMP JUMPDEST SWAP4 POP POP PUSH1 0x20 PUSH2 0x3551 DUP7 DUP3 DUP8 ADD PUSH2 0x33E7 JUMP JUMPDEST SWAP3 POP POP PUSH1 0x40 PUSH2 0x3562 DUP7 DUP3 DUP8 ADD PUSH2 0x3497 JUMP JUMPDEST SWAP2 POP POP SWAP3 POP SWAP3 POP SWAP3 JUMP JUMPDEST PUSH1 0x0 DUP1 PUSH1 0x0 DUP1 PUSH1 0x80 DUP6 DUP8 SUB SLT ISZERO PUSH2 0x3586 JUMPI PUSH2 0x3585 PUSH2 0x445D JUMP JUMPDEST JUMPDEST PUSH1 0x0 PUSH2 0x3594 DUP8 DUP3 DUP9 ADD PUSH2 0x33E7 JUMP JUMPDEST SWAP5 POP POP PUSH1 0x20 PUSH2 0x35A5 DUP8 DUP3 DUP9 ADD PUSH2 0x33E7 JUMP JUMPDEST SWAP4 POP POP PUSH1 0x40 PUSH2 0x35B6 DUP8 DUP3 DUP9 ADD PUSH2 0x3497 JUMP JUMPDEST SWAP3 POP POP PUSH1 0x60 DUP6 ADD CALLDATALOAD PUSH8 0xFFFFFFFFFFFFFFFF DUP2 GT ISZERO PUSH2 0x35D7 JUMPI PUSH2 0x35D6 PUSH2 0x4458 JUMP JUMPDEST JUMPDEST PUSH2 0x35E3 DUP8 DUP3 DUP9 ADD PUSH2 0x343B JUMP JUMPDEST SWAP2 POP POP SWAP3 SWAP6 SWAP2 SWAP5 POP SWAP3 POP JUMP JUMPDEST PUSH1 0x0 DUP1 PUSH1 0x40 DUP4 DUP6 SUB SLT ISZERO PUSH2 0x3606 JUMPI PUSH2 0x3605 PUSH2 0x445D JUMP JUMPDEST JUMPDEST PUSH1 0x0 PUSH2 0x3614 DUP6 DUP3 DUP7 ADD PUSH2 0x33E7 JUMP JUMPDEST SWAP3 POP POP PUSH1 0x20 PUSH2 0x3625 DUP6 DUP3 DUP7 ADD PUSH2 0x33FC JUMP JUMPDEST SWAP2 POP POP SWAP3 POP SWAP3 SWAP1 POP JUMP JUMPDEST PUSH1 0x0 DUP1 PUSH1 0x40 DUP4 DUP6 SUB SLT ISZERO PUSH2 0x3646 JUMPI PUSH2 0x3645 PUSH2 0x445D JUMP JUMPDEST JUMPDEST PUSH1 0x0 PUSH2 0x3654 DUP6 DUP3 DUP7 ADD PUSH2 0x33E7 JUMP JUMPDEST SWAP3 POP POP PUSH1 0x20 PUSH2 0x3665 DUP6 DUP3 DUP7 ADD PUSH2 0x3497 JUMP JUMPDEST SWAP2 POP POP SWAP3 POP SWAP3 SWAP1 POP JUMP JUMPDEST PUSH1 0x0 PUSH1 0x20 DUP3 DUP5 SUB SLT ISZERO PUSH2 0x3685 JUMPI PUSH2 0x3684 PUSH2 0x445D JUMP JUMPDEST JUMPDEST PUSH1 0x0 PUSH2 0x3693 DUP5 DUP3 DUP6 ADD PUSH2 0x33FC JUMP JUMPDEST SWAP2 POP POP SWAP3 SWAP2 POP POP JUMP JUMPDEST PUSH1 0x0 PUSH1 0x20 DUP3 DUP5 SUB SLT ISZERO PUSH2 0x36B2 JUMPI PUSH2 0x36B1 PUSH2 0x445D JUMP JUMPDEST JUMPDEST PUSH1 0x0 PUSH2 0x36C0 DUP5 DUP3 DUP6 ADD PUSH2 0x3411 JUMP JUMPDEST SWAP2 POP POP SWAP3 SWAP2 POP POP JUMP JUMPDEST PUSH1 0x0 PUSH1 0x20 DUP3 DUP5 SUB SLT ISZERO PUSH2 0x36DF JUMPI PUSH2 0x36DE PUSH2 0x445D JUMP JUMPDEST JUMPDEST PUSH1 0x0 PUSH2 0x36ED DUP5 DUP3 DUP6 ADD PUSH2 0x3426 JUMP JUMPDEST SWAP2 POP POP SWAP3 SWAP2 POP POP JUMP JUMPDEST PUSH1 0x0 PUSH1 0x20 DUP3 DUP5 SUB SLT ISZERO PUSH2 0x370C JUMPI PUSH2 0x370B PUSH2 0x445D JUMP JUMPDEST JUMPDEST PUSH1 0x0 DUP3 ADD CALLDATALOAD PUSH8 0xFFFFFFFFFFFFFFFF DUP2 GT ISZERO PUSH2 0x372A JUMPI PUSH2 0x3729 PUSH2 0x4458 JUMP JUMPDEST JUMPDEST PUSH2 0x3736 DUP5 DUP3 DUP6 ADD PUSH2 0x3469 JUMP JUMPDEST SWAP2 POP POP SWAP3 SWAP2 POP POP JUMP JUMPDEST PUSH1 0x0 PUSH1 0x20 DUP3 DUP5 SUB SLT ISZERO PUSH2 0x3755 JUMPI PUSH2 0x3754 PUSH2 0x445D JUMP JUMPDEST JUMPDEST PUSH1 0x0 PUSH2 0x3763 DUP5 DUP3 DUP6 ADD PUSH2 0x3497 JUMP JUMPDEST SWAP2 POP POP SWAP3 SWAP2 POP POP JUMP JUMPDEST PUSH1 0x0 DUP1 PUSH1 0x40 DUP4 DUP6 SUB SLT ISZERO PUSH2 0x3783 JUMPI PUSH2 0x3782 PUSH2 0x445D JUMP JUMPDEST JUMPDEST PUSH1 0x0 PUSH2 0x3791 DUP6 DUP3 DUP7 ADD PUSH2 0x3497 JUMP JUMPDEST SWAP3 POP POP PUSH1 0x20 PUSH2 0x37A2 DUP6 DUP3 DUP7 ADD PUSH2 0x33E7 JUMP JUMPDEST SWAP2 POP POP SWAP3 POP SWAP3 SWAP1 POP JUMP JUMPDEST PUSH2 0x37B5 DUP2 PUSH2 0x41A1 JUMP JUMPDEST DUP3 MSTORE POP POP JUMP JUMPDEST PUSH2 0x37C4 DUP2 PUSH2 0x41B3 JUMP JUMPDEST DUP3 MSTORE POP POP JUMP JUMPDEST PUSH1 0x0 PUSH2 0x37D5 DUP3 PUSH2 0x4049 JUMP JUMPDEST PUSH2 0x37DF DUP2 DUP6 PUSH2 0x405F JUMP JUMPDEST SWAP4 POP PUSH2 0x37EF DUP2 DUP6 PUSH1 0x20 DUP7 ADD PUSH2 0x4224 JUMP JUMPDEST PUSH2 0x37F8 DUP2 PUSH2 0x4462 JUMP JUMPDEST DUP5 ADD SWAP2 POP POP SWAP3 SWAP2 POP POP JUMP JUMPDEST PUSH1 0x0 PUSH2 0x380E DUP3 PUSH2 0x4054 JUMP JUMPDEST PUSH2 0x3818 DUP2 DUP6 PUSH2 0x4070 JUMP JUMPDEST SWAP4 POP PUSH2 0x3828 DUP2 DUP6 PUSH1 0x20 DUP7 ADD PUSH2 0x4224 JUMP JUMPDEST PUSH2 0x3831 DUP2 PUSH2 0x4462 JUMP JUMPDEST DUP5 ADD SWAP2 POP POP SWAP3 SWAP2 POP POP JUMP JUMPDEST PUSH1 0x0 PUSH2 0x3847 DUP3 PUSH2 0x4054 JUMP JUMPDEST PUSH2 0x3851 DUP2 DUP6 PUSH2 0x4081 JUMP JUMPDEST SWAP4 POP PUSH2 0x3861 DUP2 DUP6 PUSH1 0x20 DUP7 ADD PUSH2 0x4224 JUMP JUMPDEST DUP1 DUP5 ADD SWAP2 POP POP SWAP3 SWAP2 POP POP JUMP JUMPDEST PUSH1 0x0 DUP2 SLOAD PUSH2 0x387A DUP2 PUSH2 0x4257 JUMP JUMPDEST PUSH2 0x3884 DUP2 DUP7 PUSH2 0x4081 JUMP JUMPDEST SWAP5 POP PUSH1 0x1 DUP3 AND PUSH1 0x0 DUP2 EQ PUSH2 0x389F JUMPI PUSH1 0x1 DUP2 EQ PUSH2 0x38B0 JUMPI PUSH2 0x38E3 JUMP JUMPDEST PUSH1 0xFF NOT DUP4 AND DUP7 MSTORE DUP2 DUP7 ADD SWAP4 POP PUSH2 0x38E3 JUMP JUMPDEST PUSH2 0x38B9 DUP6 PUSH2 0x4034 JUMP JUMPDEST PUSH1 0x0 JUMPDEST DUP4 DUP2 LT ISZERO PUSH2 0x38DB JUMPI DUP2 SLOAD DUP2 DUP10 ADD MSTORE PUSH1 0x1 DUP3 ADD SWAP2 POP PUSH1 0x20 DUP2 ADD SWAP1 POP PUSH2 0x38BC JUMP JUMPDEST DUP4 DUP9 ADD SWAP6 POP POP POP JUMPDEST POP POP POP SWAP3 SWAP2 POP POP JUMP JUMPDEST PUSH1 0x0 PUSH2 0x38F9 PUSH1 0x15 DUP4 PUSH2 0x4070 JUMP JUMPDEST SWAP2 POP PUSH2 0x3904 DUP3 PUSH2 0x4473 JUMP JUMPDEST PUSH1 0x20 DUP3 ADD SWAP1 POP SWAP2 SWAP1 POP JUMP JUMPDEST PUSH1 0x0 PUSH2 0x391C PUSH1 0x2B DUP4 PUSH2 0x4070 JUMP JUMPDEST SWAP2 POP PUSH2 0x3927 DUP3 PUSH2 0x449C JUMP JUMPDEST PUSH1 0x40 DUP3 ADD SWAP1 POP SWAP2 SWAP1 POP JUMP JUMPDEST PUSH1 0x0 PUSH2 0x393F PUSH1 0x32 DUP4 PUSH2 0x4070 JUMP JUMPDEST SWAP2 POP PUSH2 0x394A DUP3 PUSH2 0x44EB JUMP JUMPDEST PUSH1 0x40 DUP3 ADD SWAP1 POP SWAP2 SWAP1 POP JUMP JUMPDEST PUSH1 0x0 PUSH2 0x3962 PUSH1 0x26 DUP4 PUSH2 0x4070 JUMP JUMPDEST SWAP2 POP PUSH2 0x396D DUP3 PUSH2 0x453A JUMP JUMPDEST PUSH1 0x40 DUP3 ADD SWAP1 POP SWAP2 SWAP1 POP JUMP JUMPDEST PUSH1 0x0 PUSH2 0x3985 PUSH1 0x25 DUP4 PUSH2 0x4070 JUMP JUMPDEST SWAP2 POP PUSH2 0x3990 DUP3 PUSH2 0x4589 JUMP JUMPDEST PUSH1 0x40 DUP3 ADD SWAP1 POP SWAP2 SWAP1 POP JUMP JUMPDEST PUSH1 0x0 PUSH2 0x39A8 PUSH1 0x1C DUP4 PUSH2 0x4070 JUMP JUMPDEST SWAP2 POP PUSH2 0x39B3 DUP3 PUSH2 0x45D8 JUMP JUMPDEST PUSH1 0x20 DUP3 ADD SWAP1 POP SWAP2 SWAP1 POP JUMP JUMPDEST PUSH1 0x0 PUSH2 0x39CB PUSH1 0x24 DUP4 PUSH2 0x4070 JUMP JUMPDEST SWAP2 POP PUSH2 0x39D6 DUP3 PUSH2 0x4601 JUMP JUMPDEST PUSH1 0x40 DUP3 ADD SWAP1 POP SWAP2 SWAP1 POP JUMP JUMPDEST PUSH1 0x0 PUSH2 0x39EE PUSH1 0x19 DUP4 PUSH2 0x4070 JUMP JUMPDEST SWAP2 POP PUSH2 0x39F9 DUP3 PUSH2 0x4650 JUMP JUMPDEST PUSH1 0x20 DUP3 ADD SWAP1 POP SWAP2 SWAP1 POP JUMP JUMPDEST PUSH1 0x0 PUSH2 0x3A11 PUSH1 0x14 DUP4 PUSH2 0x4070 JUMP JUMPDEST SWAP2 POP PUSH2 0x3A1C DUP3 PUSH2 0x4679 JUMP JUMPDEST PUSH1 0x20 DUP3 ADD SWAP1 POP SWAP2 SWAP1 POP JUMP JUMPDEST PUSH1 0x0 PUSH2 0x3A34 PUSH1 0x10 DUP4 PUSH2 0x4070 JUMP JUMPDEST SWAP2 POP PUSH2 0x3A3F DUP3 PUSH2 0x46A2 JUMP JUMPDEST PUSH1 0x20 DUP3 ADD SWAP1 POP SWAP2 SWAP1 POP JUMP JUMPDEST PUSH1 0x0 PUSH2 0x3A57 PUSH1 0x29 DUP4 PUSH2 0x4070 JUMP JUMPDEST SWAP2 POP PUSH2 0x3A62 DUP3 PUSH2 0x46CB JUMP JUMPDEST PUSH1 0x40 DUP3 ADD SWAP1 POP SWAP2 SWAP1 POP JUMP JUMPDEST PUSH1 0x0 PUSH2 0x3A7A PUSH1 0x18 DUP4 PUSH2 0x4070 JUMP JUMPDEST SWAP2 POP PUSH2 0x3A85 DUP3 PUSH2 0x471A JUMP JUMPDEST PUSH1 0x20 DUP3 ADD SWAP1 POP SWAP2 SWAP1 POP JUMP JUMPDEST PUSH1 0x0 PUSH2 0x3A9D PUSH1 0x3E DUP4 PUSH2 0x4070 JUMP JUMPDEST SWAP2 POP PUSH2 0x3AA8 DUP3 PUSH2 0x4743 JUMP JUMPDEST PUSH1 0x40 DUP3 ADD SWAP1 POP SWAP2 SWAP1 POP JUMP JUMPDEST PUSH1 0x0 PUSH2 0x3AC0 PUSH1 0x20 DUP4 PUSH2 0x4070 JUMP JUMPDEST SWAP2 POP PUSH2 0x3ACB DUP3 PUSH2 0x4792 JUMP JUMPDEST PUSH1 0x20 DUP3 ADD SWAP1 POP SWAP2 SWAP1 POP JUMP JUMPDEST PUSH1 0x0 PUSH2 0x3AE3 PUSH1 0x20 DUP4 PUSH2 0x4070 JUMP JUMPDEST SWAP2 POP PUSH2 0x3AEE DUP3 PUSH2 0x47BB JUMP JUMPDEST PUSH1 0x20 DUP3 ADD SWAP1 POP SWAP2 SWAP1 POP JUMP JUMPDEST PUSH1 0x0 PUSH2 0x3B06 PUSH1 0x2F DUP4 PUSH2 0x4070 JUMP JUMPDEST SWAP2 POP PUSH2 0x3B11 DUP3 PUSH2 0x47E4 JUMP JUMPDEST PUSH1 0x40 DUP3 ADD SWAP1 POP SWAP2 SWAP1 POP JUMP JUMPDEST PUSH1 0x0 PUSH2 0x3B29 PUSH1 0x18 DUP4 PUSH2 0x4070 JUMP JUMPDEST SWAP2 POP PUSH2 0x3B34 DUP3 PUSH2 0x4833 JUMP JUMPDEST PUSH1 0x20 DUP3 ADD SWAP1 POP SWAP2 SWAP1 POP JUMP JUMPDEST PUSH1 0x0 PUSH2 0x3B4C PUSH1 0x21 DUP4 PUSH2 0x4070 JUMP JUMPDEST SWAP2 POP PUSH2 0x3B57 DUP3 PUSH2 0x485C JUMP JUMPDEST PUSH1 0x40 DUP3 ADD SWAP1 POP SWAP2 SWAP1 POP JUMP JUMPDEST PUSH1 0x0 PUSH2 0x3B6F PUSH1 0xE DUP4 PUSH2 0x4070 JUMP JUMPDEST SWAP2 POP PUSH2 0x3B7A DUP3 PUSH2 0x48AB JUMP JUMPDEST PUSH1 0x20 DUP3 ADD SWAP1 POP SWAP2 SWAP1 POP JUMP JUMPDEST PUSH1 0x0 PUSH2 0x3B92 PUSH1 0x2C DUP4 PUSH2 0x4070 JUMP JUMPDEST SWAP2 POP PUSH2 0x3B9D DUP3 PUSH2 0x48D4 JUMP JUMPDEST PUSH1 0x40 DUP3 ADD SWAP1 POP SWAP2 SWAP1 POP JUMP JUMPDEST PUSH1 0x0 PUSH2 0x3BB5 PUSH1 0x2E DUP4 PUSH2 0x4070 JUMP JUMPDEST SWAP2 POP PUSH2 0x3BC0 DUP3 PUSH2 0x4923 JUMP JUMPDEST PUSH1 0x40 DUP3 ADD SWAP1 POP SWAP2 SWAP1 POP JUMP JUMPDEST PUSH1 0x0 PUSH2 0x3BD8 PUSH1 0x20 DUP4 PUSH2 0x4070 JUMP JUMPDEST SWAP2 POP PUSH2 0x3BE3 DUP3 PUSH2 0x4972 JUMP JUMPDEST PUSH1 0x20 DUP3 ADD SWAP1 POP SWAP2 SWAP1 POP JUMP JUMPDEST PUSH2 0x3BF7 DUP2 PUSH2 0x420B JUMP JUMPDEST DUP3 MSTORE POP POP JUMP JUMPDEST PUSH1 0x0 PUSH2 0x3C09 DUP3 DUP7 PUSH2 0x383C JUMP JUMPDEST SWAP2 POP PUSH2 0x3C15 DUP3 DUP6 PUSH2 0x383C JUMP JUMPDEST SWAP2 POP PUSH2 0x3C21 DUP3 DUP5 PUSH2 0x386D JUMP JUMPDEST SWAP2 POP DUP2 SWAP1 POP SWAP5 SWAP4 POP POP POP POP JUMP JUMPDEST PUSH1 0x0 PUSH1 0x20 DUP3 ADD SWAP1 POP PUSH2 0x3C43 PUSH1 0x0 DUP4 ADD DUP5 PUSH2 0x37AC JUMP JUMPDEST SWAP3 SWAP2 POP POP JUMP JUMPDEST PUSH1 0x0 PUSH1 0x80 DUP3 ADD SWAP1 POP PUSH2 0x3C5E PUSH1 0x0 DUP4 ADD DUP8 PUSH2 0x37AC JUMP JUMPDEST PUSH2 0x3C6B PUSH1 0x20 DUP4 ADD DUP7 PUSH2 0x37AC JUMP JUMPDEST PUSH2 0x3C78 PUSH1 0x40 DUP4 ADD DUP6 PUSH2 0x3BEE JUMP JUMPDEST DUP2 DUP2 SUB PUSH1 0x60 DUP4 ADD MSTORE PUSH2 0x3C8A DUP2 DUP5 PUSH2 0x37CA JUMP JUMPDEST SWAP1 POP SWAP6 SWAP5 POP POP POP POP POP JUMP JUMPDEST PUSH1 0x0 PUSH1 0x20 DUP3 ADD SWAP1 POP PUSH2 0x3CAA PUSH1 0x0 DUP4 ADD DUP5 PUSH2 0x37BB JUMP JUMPDEST SWAP3 SWAP2 POP POP JUMP JUMPDEST PUSH1 0x0 PUSH1 0x20 DUP3 ADD SWAP1 POP DUP2 DUP2 SUB PUSH1 0x0 DUP4 ADD MSTORE PUSH2 0x3CCA DUP2 DUP5 PUSH2 0x3803 JUMP JUMPDEST SWAP1 POP SWAP3 SWAP2 POP POP JUMP JUMPDEST PUSH1 0x0 PUSH1 0x20 DUP3 ADD SWAP1 POP DUP2 DUP2 SUB PUSH1 0x0 DUP4 ADD MSTORE PUSH2 0x3CEB DUP2 PUSH2 0x38EC JUMP JUMPDEST SWAP1 POP SWAP2 SWAP1 POP JUMP JUMPDEST PUSH1 0x0 PUSH1 0x20 DUP3 ADD SWAP1 POP DUP2 DUP2 SUB PUSH1 0x0 DUP4 ADD MSTORE PUSH2 0x3D0B DUP2 PUSH2 0x390F JUMP JUMPDEST SWAP1 POP SWAP2 SWAP1 POP JUMP JUMPDEST PUSH1 0x0 PUSH1 0x20 DUP3 ADD SWAP1 POP DUP2 DUP2 SUB PUSH1 0x0 DUP4 ADD MSTORE PUSH2 0x3D2B DUP2 PUSH2 0x3932 JUMP JUMPDEST SWAP1 POP SWAP2 SWAP1 POP JUMP JUMPDEST PUSH1 0x0 PUSH1 0x20 DUP3 ADD SWAP1 POP DUP2 DUP2 SUB PUSH1 0x0 DUP4 ADD MSTORE PUSH2 0x3D4B DUP2 PUSH2 0x3955 JUMP JUMPDEST SWAP1 POP SWAP2 SWAP1 POP JUMP JUMPDEST PUSH1 0x0 PUSH1 0x20 DUP3 ADD SWAP1 POP DUP2 DUP2 SUB PUSH1 0x0 DUP4 ADD MSTORE PUSH2 0x3D6B DUP2 PUSH2 0x3978 JUMP JUMPDEST SWAP1 POP SWAP2 SWAP1 POP JUMP JUMPDEST PUSH1 0x0 PUSH1 0x20 DUP3 ADD SWAP1 POP DUP2 DUP2 SUB PUSH1 0x0 DUP4 ADD MSTORE PUSH2 0x3D8B DUP2 PUSH2 0x399B JUMP JUMPDEST SWAP1 POP SWAP2 SWAP1 POP JUMP JUMPDEST PUSH1 0x0 PUSH1 0x20 DUP3 ADD SWAP1 POP DUP2 DUP2 SUB PUSH1 0x0 DUP4 ADD MSTORE PUSH2 0x3DAB DUP2 PUSH2 0x39BE JUMP JUMPDEST SWAP1 POP SWAP2 SWAP1 POP JUMP JUMPDEST PUSH1 0x0 PUSH1 0x20 DUP3 ADD SWAP1 POP DUP2 DUP2 SUB PUSH1 0x0 DUP4 ADD MSTORE PUSH2 0x3DCB DUP2 PUSH2 0x39E1 JUMP JUMPDEST SWAP1 POP SWAP2 SWAP1 POP JUMP JUMPDEST PUSH1 0x0 PUSH1 0x20 DUP3 ADD SWAP1 POP DUP2 DUP2 SUB PUSH1 0x0 DUP4 ADD MSTORE PUSH2 0x3DEB DUP2 PUSH2 0x3A04 JUMP JUMPDEST SWAP1 POP SWAP2 SWAP1 POP JUMP JUMPDEST PUSH1 0x0 PUSH1 0x20 DUP3 ADD SWAP1 POP DUP2 DUP2 SUB PUSH1 0x0 DUP4 ADD MSTORE PUSH2 0x3E0B DUP2 PUSH2 0x3A27 JUMP JUMPDEST SWAP1 POP SWAP2 SWAP1 POP JUMP JUMPDEST PUSH1 0x0 PUSH1 0x20 DUP3 ADD SWAP1 POP DUP2 DUP2 SUB PUSH1 0x0 DUP4 ADD MSTORE PUSH2 0x3E2B DUP2 PUSH2 0x3A4A JUMP JUMPDEST SWAP1 POP SWAP2 SWAP1 POP JUMP JUMPDEST PUSH1 0x0 PUSH1 0x20 DUP3 ADD SWAP1 POP DUP2 DUP2 SUB PUSH1 0x0 DUP4 ADD MSTORE PUSH2 0x3E4B DUP2 PUSH2 0x3A6D JUMP JUMPDEST SWAP1 POP SWAP2 SWAP1 POP JUMP JUMPDEST PUSH1 0x0 PUSH1 0x20 DUP3 ADD SWAP1 POP DUP2 DUP2 SUB PUSH1 0x0 DUP4 ADD MSTORE PUSH2 0x3E6B DUP2 PUSH2 0x3A90 JUMP JUMPDEST SWAP1 POP SWAP2 SWAP1 POP JUMP JUMPDEST PUSH1 0x0 PUSH1 0x20 DUP3 ADD SWAP1 POP DUP2 DUP2 SUB PUSH1 0x0 DUP4 ADD MSTORE PUSH2 0x3E8B DUP2 PUSH2 0x3AB3 JUMP JUMPDEST SWAP1 POP SWAP2 SWAP1 POP JUMP JUMPDEST PUSH1 0x0 PUSH1 0x20 DUP3 ADD SWAP1 POP DUP2 DUP2 SUB PUSH1 0x0 DUP4 ADD MSTORE PUSH2 0x3EAB DUP2 PUSH2 0x3AD6 JUMP JUMPDEST SWAP1 POP SWAP2 SWAP1 POP JUMP JUMPDEST PUSH1 0x0 PUSH1 0x20 DUP3 ADD SWAP1 POP DUP2 DUP2 SUB PUSH1 0x0 DUP4 ADD MSTORE PUSH2 0x3ECB DUP2 PUSH2 0x3AF9 JUMP JUMPDEST SWAP1 POP SWAP2 SWAP1 POP JUMP JUMPDEST PUSH1 0x0 PUSH1 0x20 DUP3 ADD SWAP1 POP DUP2 DUP2 SUB PUSH1 0x0 DUP4 ADD MSTORE PUSH2 0x3EEB DUP2 PUSH2 0x3B1C JUMP JUMPDEST SWAP1 POP SWAP2 SWAP1 POP JUMP JUMPDEST PUSH1 0x0 PUSH1 0x20 DUP3 ADD SWAP1 POP DUP2 DUP2 SUB PUSH1 0x0 DUP4 ADD MSTORE PUSH2 0x3F0B DUP2 PUSH2 0x3B3F JUMP JUMPDEST SWAP1 POP SWAP2 SWAP1 POP JUMP JUMPDEST PUSH1 0x0 PUSH1 0x20 DUP3 ADD SWAP1 POP DUP2 DUP2 SUB PUSH1 0x0 DUP4 ADD MSTORE PUSH2 0x3F2B DUP2 PUSH2 0x3B62 JUMP JUMPDEST SWAP1 POP SWAP2 SWAP1 POP JUMP JUMPDEST PUSH1 0x0 PUSH1 0x20 DUP3 ADD SWAP1 POP DUP2 DUP2 SUB PUSH1 0x0 DUP4 ADD MSTORE PUSH2 0x3F4B DUP2 PUSH2 0x3B85 JUMP JUMPDEST SWAP1 POP SWAP2 SWAP1 POP JUMP JUMPDEST PUSH1 0x0 PUSH1 0x20 DUP3 ADD SWAP1 POP DUP2 DUP2 SUB PUSH1 0x0 DUP4 ADD MSTORE PUSH2 0x3F6B DUP2 PUSH2 0x3BA8 JUMP JUMPDEST SWAP1 POP SWAP2 SWAP1 POP JUMP JUMPDEST PUSH1 0x0 PUSH1 0x20 DUP3 ADD SWAP1 POP DUP2 DUP2 SUB PUSH1 0x0 DUP4 ADD MSTORE PUSH2 0x3F8B DUP2 PUSH2 0x3BCB JUMP JUMPDEST SWAP1 POP SWAP2 SWAP1 POP JUMP JUMPDEST PUSH1 0x0 PUSH1 0x20 DUP3 ADD SWAP1 POP PUSH2 0x3FA7 PUSH1 0x0 DUP4 ADD DUP5 PUSH2 0x3BEE JUMP JUMPDEST SWAP3 SWAP2 POP POP JUMP JUMPDEST PUSH1 0x0 PUSH2 0x3FB7 PUSH2 0x3FC8 JUMP JUMPDEST SWAP1 POP PUSH2 0x3FC3 DUP3 DUP3 PUSH2 0x4289 JUMP JUMPDEST SWAP2 SWAP1 POP JUMP JUMPDEST PUSH1 0x0 PUSH1 0x40 MLOAD SWAP1 POP SWAP1 JUMP JUMPDEST PUSH1 0x0 PUSH8 0xFFFFFFFFFFFFFFFF DUP3 GT ISZERO PUSH2 0x3FED JUMPI PUSH2 0x3FEC PUSH2 0x441F JUMP JUMPDEST JUMPDEST PUSH2 0x3FF6 DUP3 PUSH2 0x4462 JUMP JUMPDEST SWAP1 POP PUSH1 0x20 DUP2 ADD SWAP1 POP SWAP2 SWAP1 POP JUMP JUMPDEST PUSH1 0x0 PUSH8 0xFFFFFFFFFFFFFFFF DUP3 GT ISZERO PUSH2 0x401E JUMPI PUSH2 0x401D PUSH2 0x441F JUMP JUMPDEST JUMPDEST PUSH2 0x4027 DUP3 PUSH2 0x4462 JUMP JUMPDEST SWAP1 POP PUSH1 0x20 DUP2 ADD SWAP1 POP SWAP2 SWAP1 POP JUMP JUMPDEST PUSH1 0x0 DUP2 SWAP1 POP DUP2 PUSH1 0x0 MSTORE PUSH1 0x20 PUSH1 0x0 KECCAK256 SWAP1 POP SWAP2 SWAP1 POP JUMP JUMPDEST PUSH1 0x0 DUP2 MLOAD SWAP1 POP SWAP2 SWAP1 POP JUMP JUMPDEST PUSH1 0x0 DUP2 MLOAD SWAP1 POP SWAP2 SWAP1 POP JUMP JUMPDEST PUSH1 0x0 DUP3 DUP3 MSTORE PUSH1 0x20 DUP3 ADD SWAP1 POP SWAP3 SWAP2 POP POP JUMP JUMPDEST PUSH1 0x0 DUP3 DUP3 MSTORE PUSH1 0x20 DUP3 ADD SWAP1 POP SWAP3 SWAP2 POP POP JUMP JUMPDEST PUSH1 0x0 DUP2 SWAP1 POP SWAP3 SWAP2 POP POP JUMP JUMPDEST PUSH1 0x0 PUSH2 0x4097 DUP3 PUSH2 0x420B JUMP JUMPDEST SWAP2 POP PUSH2 0x40A2 DUP4 PUSH2 0x420B JUMP JUMPDEST SWAP3 POP DUP3 PUSH32 0xFFFFFFFFFFFFFFFFFFFFFFFFFFFFFFFFFFFFFFFFFFFFFFFFFFFFFFFFFFFFFFFF SUB DUP3 GT ISZERO PUSH2 0x40D7 JUMPI PUSH2 0x40D6 PUSH2 0x4334 JUMP JUMPDEST JUMPDEST DUP3 DUP3 ADD SWAP1 POP SWAP3 SWAP2 POP POP JUMP JUMPDEST PUSH1 0x0 PUSH2 0x40ED DUP3 PUSH2 0x420B JUMP JUMPDEST SWAP2 POP PUSH2 0x40F8 DUP4 PUSH2 0x420B JUMP JUMPDEST SWAP3 POP DUP3 PUSH2 0x4108 JUMPI PUSH2 0x4107 PUSH2 0x4363 JUMP JUMPDEST JUMPDEST DUP3 DUP3 DIV SWAP1 POP SWAP3 SWAP2 POP POP JUMP JUMPDEST PUSH1 0x0 PUSH2 0x411E DUP3 PUSH2 0x420B JUMP JUMPDEST SWAP2 POP PUSH2 0x4129 DUP4 PUSH2 0x420B JUMP JUMPDEST SWAP3 POP DUP2 PUSH32 0xFFFFFFFFFFFFFFFFFFFFFFFFFFFFFFFFFFFFFFFFFFFFFFFFFFFFFFFFFFFFFFFF DIV DUP4 GT DUP3 ISZERO ISZERO AND ISZERO PUSH2 0x4162 JUMPI PUSH2 0x4161 PUSH2 0x4334 JUMP JUMPDEST JUMPDEST DUP3 DUP3 MUL SWAP1 POP SWAP3 SWAP2 POP POP JUMP JUMPDEST PUSH1 0x0 PUSH2 0x4178 DUP3 PUSH2 0x420B JUMP JUMPDEST SWAP2 POP PUSH2 0x4183 DUP4 PUSH2 0x420B JUMP JUMPDEST SWAP3 POP DUP3 DUP3 LT ISZERO PUSH2 0x4196 JUMPI PUSH2 0x4195 PUSH2 0x4334 JUMP JUMPDEST JUMPDEST DUP3 DUP3 SUB SWAP1 POP SWAP3 SWAP2 POP POP JUMP JUMPDEST PUSH1 0x0 PUSH2 0x41AC DUP3 PUSH2 0x41EB JUMP JUMPDEST SWAP1 POP SWAP2 SWAP1 POP JUMP JUMPDEST PUSH1 0x0 DUP2 ISZERO ISZERO SWAP1 POP SWAP2 SWAP1 POP JUMP JUMPDEST PUSH1 0x0 PUSH32 0xFFFFFFFF00000000000000000000000000000000000000000000000000000000 DUP3 AND SWAP1 POP SWAP2 SWAP1 POP JUMP JUMPDEST PUSH1 0x0 PUSH20 0xFFFFFFFFFFFFFFFFFFFFFFFFFFFFFFFFFFFFFFFF DUP3 AND SWAP1 POP SWAP2 SWAP1 POP JUMP JUMPDEST PUSH1 0x0 DUP2 SWAP1 POP SWAP2 SWAP1 POP JUMP JUMPDEST DUP3 DUP2 DUP4 CALLDATACOPY PUSH1 0x0 DUP4 DUP4 ADD MSTORE POP POP POP JUMP JUMPDEST PUSH1 0x0 JUMPDEST DUP4 DUP2 LT ISZERO PUSH2 0x4242 JUMPI DUP1 DUP3 ADD MLOAD DUP2 DUP5 ADD MSTORE PUSH1 0x20 DUP2 ADD SWAP1 POP PUSH2 0x4227 JUMP JUMPDEST DUP4 DUP2 GT ISZERO PUSH2 0x4251 JUMPI PUSH1 0x0 DUP5 DUP5 ADD MSTORE JUMPDEST POP POP POP POP JUMP JUMPDEST PUSH1 0x0 PUSH1 0x2 DUP3 DIV SWAP1 POP PUSH1 0x1 DUP3 AND DUP1 PUSH2 0x426F JUMPI PUSH1 0x7F DUP3 AND SWAP2 POP JUMPDEST PUSH1 0x20 DUP3 LT DUP2 EQ ISZERO PUSH2 0x4283 JUMPI PUSH2 0x4282 PUSH2 0x4392 JUMP JUMPDEST JUMPDEST POP SWAP2 SWAP1 POP JUMP JUMPDEST PUSH2 0x4292 DUP3 PUSH2 0x4462 JUMP JUMPDEST DUP2 ADD DUP2 DUP2 LT PUSH8 0xFFFFFFFFFFFFFFFF DUP3 GT OR ISZERO PUSH2 0x42B1 JUMPI PUSH2 0x42B0 PUSH2 0x441F JUMP JUMPDEST JUMPDEST DUP1 PUSH1 0x40 MSTORE POP POP POP JUMP JUMPDEST PUSH1 0x0 PUSH2 0x42C5 DUP3 PUSH2 0x420B JUMP JUMPDEST SWAP2 POP PUSH32 0xFFFFFFFFFFFFFFFFFFFFFFFFFFFFFFFFFFFFFFFFFFFFFFFFFFFFFFFFFFFFFFFF DUP3 EQ ISZERO PUSH2 0x42F8 JUMPI PUSH2 0x42F7 PUSH2 0x4334 JUMP JUMPDEST JUMPDEST PUSH1 0x1 DUP3 ADD SWAP1 POP SWAP2 SWAP1 POP JUMP JUMPDEST PUSH1 0x0 PUSH2 0x430E DUP3 PUSH2 0x420B JUMP JUMPDEST SWAP2 POP PUSH2 0x4319 DUP4 PUSH2 0x420B JUMP JUMPDEST SWAP3 POP DUP3 PUSH2 0x4329 JUMPI PUSH2 0x4328 PUSH2 0x4363 JUMP JUMPDEST JUMPDEST DUP3 DUP3 MOD SWAP1 POP SWAP3 SWAP2 POP POP JUMP JUMPDEST PUSH32 0x4E487B7100000000000000000000000000000000000000000000000000000000 PUSH1 0x0 MSTORE PUSH1 0x11 PUSH1 0x4 MSTORE PUSH1 0x24 PUSH1 0x0 REVERT JUMPDEST PUSH32 0x4E487B7100000000000000000000000000000000000000000000000000000000 PUSH1 0x0 MSTORE PUSH1 0x12 PUSH1 0x4 MSTORE PUSH1 0x24 PUSH1 0x0 REVERT JUMPDEST PUSH32 0x4E487B7100000000000000000000000000000000000000000000000000000000 PUSH1 0x0 MSTORE PUSH1 0x22 PUSH1 0x4 MSTORE PUSH1 0x24 PUSH1 0x0 REVERT JUMPDEST PUSH32 0x4E487B7100000000000000000000000000000000000000000000000000000000 PUSH1 0x0 MSTORE PUSH1 0x31 PUSH1 0x4 MSTORE PUSH1 0x24 PUSH1 0x0 REVERT JUMPDEST PUSH32 0x4E487B7100000000000000000000000000000000000000000000000000000000 PUSH1 0x0 MSTORE PUSH1 0x32 PUSH1 0x4 MSTORE PUSH1 0x24 PUSH1 0x0 REVERT JUMPDEST PUSH32 0x4E487B7100000000000000000000000000000000000000000000000000000000 PUSH1 0x0 MSTORE PUSH1 0x41 PUSH1 0x4 MSTORE PUSH1 0x24 PUSH1 0x0 REVERT JUMPDEST PUSH1 0x0 DUP1 REVERT JUMPDEST PUSH1 0x0 DUP1 REVERT JUMPDEST PUSH1 0x0 DUP1 REVERT JUMPDEST PUSH1 0x0 DUP1 REVERT JUMPDEST PUSH1 0x0 PUSH1 0x1F NOT PUSH1 0x1F DUP4 ADD AND SWAP1 POP SWAP2 SWAP1 POP JUMP JUMPDEST PUSH32 0x596F7520646F6E2774206D696E74206F76657220350000000000000000000000 PUSH1 0x0 DUP3 ADD MSTORE POP JUMP JUMPDEST PUSH32 0x455243373231456E756D657261626C653A206F776E657220696E646578206F75 PUSH1 0x0 DUP3 ADD MSTORE PUSH32 0x74206F6620626F756E6473000000000000000000000000000000000000000000 PUSH1 0x20 DUP3 ADD MSTORE POP JUMP JUMPDEST PUSH32 0x4552433732313A207472616E7366657220746F206E6F6E204552433732315265 PUSH1 0x0 DUP3 ADD MSTORE PUSH32 0x63656976657220696D706C656D656E7465720000000000000000000000000000 PUSH1 0x20 DUP3 ADD MSTORE POP JUMP JUMPDEST PUSH32 0x4F776E61626C653A206E6577206F776E657220697320746865207A65726F2061 PUSH1 0x0 DUP3 ADD MSTORE PUSH32 0x6464726573730000000000000000000000000000000000000000000000000000 PUSH1 0x20 DUP3 ADD MSTORE POP JUMP JUMPDEST PUSH32 0x4552433732313A207472616E736665722066726F6D20696E636F727265637420 PUSH1 0x0 DUP3 ADD MSTORE PUSH32 0x6F776E6572000000000000000000000000000000000000000000000000000000 PUSH1 0x20 DUP3 ADD MSTORE POP JUMP JUMPDEST PUSH32 0x4552433732313A20746F6B656E20616C7265616479206D696E74656400000000 PUSH1 0x0 DUP3 ADD MSTORE POP JUMP JUMPDEST PUSH32 0x4552433732313A207472616E7366657220746F20746865207A65726F20616464 PUSH1 0x0 DUP3 ADD MSTORE PUSH32 0x7265737300000000000000000000000000000000000000000000000000000000 PUSH1 0x20 DUP3 ADD MSTORE POP JUMP JUMPDEST PUSH32 0x4552433732313A20617070726F766520746F2063616C6C657200000000000000 PUSH1 0x0 DUP3 ADD MSTORE POP JUMP JUMPDEST PUSH32 0x70726553616C652069732066696E697368656421000000000000000000000000 PUSH1 0x0 DUP3 ADD MSTORE POP JUMP JUMPDEST PUSH32 0x596F75277265206E6F742061646D696E00000000000000000000000000000000 PUSH1 0x0 DUP3 ADD MSTORE POP JUMP JUMPDEST PUSH32 0x4552433732313A2061646472657373207A65726F206973206E6F742061207661 PUSH1 0x0 DUP3 ADD MSTORE PUSH32 0x6C6964206F776E65720000000000000000000000000000000000000000000000 PUSH1 0x20 DUP3 ADD MSTORE POP JUMP JUMPDEST PUSH32 0x596F75277265206E6F742057686974654C697374557365720000000000000000 PUSH1 0x0 DUP3 ADD MSTORE POP JUMP JUMPDEST PUSH32 0x4552433732313A20617070726F76652063616C6C6572206973206E6F7420746F PUSH1 0x0 DUP3 ADD MSTORE PUSH32 0x6B656E206F776E6572206E6F7220617070726F76656420666F7220616C6C0000 PUSH1 0x20 DUP3 ADD MSTORE POP JUMP JUMPDEST PUSH32 0x4552433732313A206D696E7420746F20746865207A65726F2061646472657373 PUSH1 0x0 DUP3 ADD MSTORE POP JUMP JUMPDEST PUSH32 0x4F776E61626C653A2063616C6C6572206973206E6F7420746865206F776E6572 PUSH1 0x0 DUP3 ADD MSTORE POP JUMP JUMPDEST PUSH32 0x4552433732314D657461646174613A2055524920717565727920666F72206E6F PUSH1 0x0 DUP3 ADD MSTORE PUSH32 0x6E6578697374656E7420746F6B656E0000000000000000000000000000000000 PUSH1 0x20 DUP3 ADD MSTORE POP JUMP JUMPDEST PUSH32 0x4552433732313A20696E76616C696420746F6B656E2049440000000000000000 PUSH1 0x0 DUP3 ADD MSTORE POP JUMP JUMPDEST PUSH32 0x4552433732313A20617070726F76616C20746F2063757272656E74206F776E65 PUSH1 0x0 DUP3 ADD MSTORE PUSH32 0x7200000000000000000000000000000000000000000000000000000000000000 PUSH1 0x20 DUP3 ADD MSTORE POP JUMP JUMPDEST PUSH32 0x4E6F2072652D656E7472616E6379000000000000000000000000000000000000 PUSH1 0x0 DUP3 ADD MSTORE POP JUMP JUMPDEST PUSH32 0x455243373231456E756D657261626C653A20676C6F62616C20696E646578206F PUSH1 0x0 DUP3 ADD MSTORE PUSH32 0x7574206F6620626F756E64730000000000000000000000000000000000000000 PUSH1 0x20 DUP3 ADD MSTORE POP JUMP JUMPDEST PUSH32 0x4552433732313A2063616C6C6572206973206E6F7420746F6B656E206F776E65 PUSH1 0x0 DUP3 ADD MSTORE PUSH32 0x72206E6F7220617070726F766564000000000000000000000000000000000000 PUSH1 0x20 DUP3 ADD MSTORE POP JUMP JUMPDEST PUSH32 0x46726F6D2061646472657373206D75737420626520746F6B656E206F776E6572 PUSH1 0x0 DUP3 ADD MSTORE POP JUMP JUMPDEST PUSH2 0x49A4 DUP2 PUSH2 0x41A1 JUMP JUMPDEST DUP2 EQ PUSH2 0x49AF JUMPI PUSH1 0x0 DUP1 REVERT JUMPDEST POP JUMP JUMPDEST PUSH2 0x49BB DUP2 PUSH2 0x41B3 JUMP JUMPDEST DUP2 EQ PUSH2 0x49C6 JUMPI PUSH1 0x0 DUP1 REVERT JUMPDEST POP JUMP JUMPDEST PUSH2 0x49D2 DUP2 PUSH2 0x41BF JUMP JUMPDEST DUP2 EQ PUSH2 0x49DD JUMPI PUSH1 0x0 DUP1 REVERT JUMPDEST POP JUMP JUMPDEST PUSH2 0x49E9 DUP2 PUSH2 0x420B JUMP JUMPDEST DUP2 EQ PUSH2 0x49F4 JUMPI PUSH1 0x0 DUP1 REVERT JUMPDEST POP JUMP INVALID LOG2 PUSH5 0x6970667358 0x22 SLT KECCAK256 POP 0xC6 SGT 0xDA 0xE0 0xC3 0xB3 REVERT CREATE PUSH25 0xADE3E77A094510EF6C687AD5FA92D750AD767B8078F064736F PUSH13 0x6343000807003368747470733A 0x2F 0x2F PUSH8 0x6174657761792E70 PUSH10 0x6E6174612E636C6F7564 0x2F PUSH10 0x7066732F516D51655A45 MSTORE MSTORE8 BALANCE PUSH15 0x72784E6275736F5559535038756142 PC MLOAD PUSH20 0x365875616A596B4A67587A6F6341696261532F00 "
		},
		"gasEstimates": {
			"creation": {
				"codeDepositCost": "3797800",
				"executionCost": "infinite",
				"totalCost": "infinite"
			},
			"external": {
				"addAdmin()": "24543",
				"addWhiteList(address)": "27026",
				"adminAddress()": "2668",
				"approve(address,uint256)": "infinite",
				"balanceOf(address)": "3034",
				"baseExtension()": "infinite",
				"baseURI()": "infinite",
				"changeAdmin(address)": "27026",
				"discount()": "2518",
				"getApproved(uint256)": "5280",
				"getDiscount()": "2570",
				"getOwenr(uint256)": "3025",
				"getPrice()": "2504",
				"getTotalSupply()": "infinite",
				"isAdmin()": "2655",
				"isApprovedForAll(address,address)": "infinite",
				"maxMintAmount()": "2519",
				"maxSupply()": "2584",
				"name()": "infinite",
				"owner()": "2634",
				"ownerOf(uint256)": "3026",
				"pasue(bool)": "26939",
				"paused()": "2516",
				"preSale(uint256,address)": "infinite",
				"price()": "2518",
				"publicSale(uint256,address)": "infinite",
				"removeWhiteList(address)": "27050",
				"renounceOwnership()": "30444",
				"safeTransferFrom(address,address,uint256)": "infinite",
				"safeTransferFrom(address,address,uint256,bytes)": "infinite",
				"setApprovalForAll(address,bool)": "infinite",
				"setBaseURI(string)": "infinite",
				"setCost(uint256)": "24780",
				"setmaxMintAmount(uint256)": "24758",
				"supportsInterface(bytes4)": "909",
				"symbol()": "infinite",
				"tokenByIndex(uint256)": "infinite",
				"tokenOfOwnerByIndex(address,uint256)": "infinite",
				"tokenURI(uint256)": "infinite",
				"totalSupply()": "2491",
				"transferFrom(address,address,uint256)": "infinite",
				"transferOwnership(address)": "30857",
				"transferToken(address,address,uint256)": "infinite",
				"whiteList(address)": "3001",
				"withdraw()": "infinite"
			},
			"internal": {
				"_baseURI()": "infinite"
			}
		},
		"methodIdentifiers": {
			"addAdmin()": "6d5aaf80",
			"addWhiteList(address)": "e7cd4a04",
			"adminAddress()": "fc6f9468",
			"approve(address,uint256)": "095ea7b3",
			"balanceOf(address)": "70a08231",
			"baseExtension()": "c6682862",
			"baseURI()": "6c0360eb",
			"changeAdmin(address)": "8f283970",
			"discount()": "6b6f4a9d",
			"getApproved(uint256)": "081812fc",
			"getDiscount()": "d137874b",
			"getOwenr(uint256)": "baa431ab",
			"getPrice()": "98d5fdca",
			"getTotalSupply()": "c4e41b22",
			"isAdmin()": "b6db75a0",
			"isApprovedForAll(address,address)": "e985e9c5",
			"maxMintAmount()": "239c70ae",
			"maxSupply()": "d5abeb01",
			"name()": "06fdde03",
			"owner()": "8da5cb5b",
			"ownerOf(uint256)": "6352211e",
			"pasue(bool)": "888e9485",
			"paused()": "5c975abb",
			"preSale(uint256,address)": "eecaf78f",
			"price()": "a035b1fe",
			"publicSale(uint256,address)": "0aa14856",
			"removeWhiteList(address)": "2042e5c2",
			"renounceOwnership()": "715018a6",
			"safeTransferFrom(address,address,uint256)": "42842e0e",
			"safeTransferFrom(address,address,uint256,bytes)": "b88d4fde",
			"setApprovalForAll(address,bool)": "a22cb465",
			"setBaseURI(string)": "55f804b3",
			"setCost(uint256)": "44a0d68a",
			"setmaxMintAmount(uint256)": "7f00c7a6",
			"supportsInterface(bytes4)": "01ffc9a7",
			"symbol()": "95d89b41",
			"tokenByIndex(uint256)": "4f6ccce7",
			"tokenOfOwnerByIndex(address,uint256)": "2f745c59",
			"tokenURI(uint256)": "c87b56dd",
			"totalSupply()": "18160ddd",
			"transferFrom(address,address,uint256)": "23b872dd",
			"transferOwnership(address)": "f2fde38b",
			"transferToken(address,address,uint256)": "f5537ede",
			"whiteList(address)": "372c12b1",
			"withdraw()": "3ccfd60b"
		}
	},
	"abi": [
		{
			"inputs": [
				{
					"internalType": "string",
					"name": "_name",
					"type": "string"
				},
				{
					"internalType": "string",
					"name": "_symbol",
					"type": "string"
				}
			],
			"stateMutability": "payable",
			"type": "constructor"
		},
		{
			"anonymous": false,
			"inputs": [
				{
					"indexed": true,
					"internalType": "address",
					"name": "owner",
					"type": "address"
				},
				{
					"indexed": true,
					"internalType": "address",
					"name": "approved",
					"type": "address"
				},
				{
					"indexed": true,
					"internalType": "uint256",
					"name": "tokenId",
					"type": "uint256"
				}
			],
			"name": "Approval",
			"type": "event"
		},
		{
			"anonymous": false,
			"inputs": [
				{
					"indexed": true,
					"internalType": "address",
					"name": "owner",
					"type": "address"
				},
				{
					"indexed": true,
					"internalType": "address",
					"name": "operator",
					"type": "address"
				},
				{
					"indexed": false,
					"internalType": "bool",
					"name": "approved",
					"type": "bool"
				}
			],
			"name": "ApprovalForAll",
			"type": "event"
		},
		{
			"anonymous": false,
			"inputs": [
				{
					"indexed": true,
					"internalType": "address",
					"name": "previousOwner",
					"type": "address"
				},
				{
					"indexed": true,
					"internalType": "address",
					"name": "newOwner",
					"type": "address"
				}
			],
			"name": "OwnershipTransferred",
			"type": "event"
		},
		{
			"anonymous": false,
			"inputs": [
				{
					"indexed": true,
					"internalType": "address",
					"name": "from",
					"type": "address"
				},
				{
					"indexed": true,
					"internalType": "address",
					"name": "to",
					"type": "address"
				},
				{
					"indexed": true,
					"internalType": "uint256",
					"name": "tokenId",
					"type": "uint256"
				}
			],
			"name": "Transfer",
			"type": "event"
		},
		{
			"inputs": [],
			"name": "addAdmin",
			"outputs": [],
			"stateMutability": "nonpayable",
			"type": "function"
		},
		{
			"inputs": [
				{
					"internalType": "address",
					"name": "_user",
					"type": "address"
				}
			],
			"name": "addWhiteList",
			"outputs": [],
			"stateMutability": "nonpayable",
			"type": "function"
		},
		{
			"inputs": [],
			"name": "adminAddress",
			"outputs": [
				{
					"internalType": "address",
					"name": "",
					"type": "address"
				}
			],
			"stateMutability": "view",
			"type": "function"
		},
		{
			"inputs": [
				{
					"internalType": "address",
					"name": "to",
					"type": "address"
				},
				{
					"internalType": "uint256",
					"name": "tokenId",
					"type": "uint256"
				}
			],
			"name": "approve",
			"outputs": [],
			"stateMutability": "nonpayable",
			"type": "function"
		},
		{
			"inputs": [
				{
					"internalType": "address",
					"name": "owner",
					"type": "address"
				}
			],
			"name": "balanceOf",
			"outputs": [
				{
					"internalType": "uint256",
					"name": "",
					"type": "uint256"
				}
			],
			"stateMutability": "view",
			"type": "function"
		},
		{
			"inputs": [],
			"name": "baseExtension",
			"outputs": [
				{
					"internalType": "string",
					"name": "",
					"type": "string"
				}
			],
			"stateMutability": "view",
			"type": "function"
		},
		{
			"inputs": [],
			"name": "baseURI",
			"outputs": [
				{
					"internalType": "string",
					"name": "",
					"type": "string"
				}
			],
			"stateMutability": "view",
			"type": "function"
		},
		{
			"inputs": [
				{
					"internalType": "address",
					"name": "_admin",
					"type": "address"
				}
			],
			"name": "changeAdmin",
			"outputs": [],
			"stateMutability": "nonpayable",
			"type": "function"
		},
		{
			"inputs": [],
			"name": "discount",
			"outputs": [
				{
					"internalType": "uint256",
					"name": "",
					"type": "uint256"
				}
			],
			"stateMutability": "view",
			"type": "function"
		},
		{
			"inputs": [
				{
					"internalType": "uint256",
					"name": "tokenId",
					"type": "uint256"
				}
			],
			"name": "getApproved",
			"outputs": [
				{
					"internalType": "address",
					"name": "",
					"type": "address"
				}
			],
			"stateMutability": "view",
			"type": "function"
		},
		{
			"inputs": [],
			"name": "getDiscount",
			"outputs": [
				{
					"internalType": "uint256",
					"name": "",
					"type": "uint256"
				}
			],
			"stateMutability": "view",
			"type": "function"
		},
		{
			"inputs": [
				{
					"internalType": "uint256",
					"name": "_tokenId",
					"type": "uint256"
				}
			],
			"name": "getOwenr",
			"outputs": [
				{
					"internalType": "address",
					"name": "",
					"type": "address"
				}
			],
			"stateMutability": "view",
			"type": "function"
		},
		{
			"inputs": [],
			"name": "getPrice",
			"outputs": [
				{
					"internalType": "uint256",
					"name": "",
					"type": "uint256"
				}
			],
			"stateMutability": "view",
			"type": "function"
		},
		{
			"inputs": [],
			"name": "getTotalSupply",
			"outputs": [
				{
					"internalType": "uint256",
					"name": "",
					"type": "uint256"
				}
			],
			"stateMutability": "view",
			"type": "function"
		},
		{
			"inputs": [],
			"name": "isAdmin",
			"outputs": [
				{
					"internalType": "address",
					"name": "",
					"type": "address"
				}
			],
			"stateMutability": "view",
			"type": "function"
		},
		{
			"inputs": [
				{
					"internalType": "address",
					"name": "owner",
					"type": "address"
				},
				{
					"internalType": "address",
					"name": "operator",
					"type": "address"
				}
			],
			"name": "isApprovedForAll",
			"outputs": [
				{
					"internalType": "bool",
					"name": "",
					"type": "bool"
				}
			],
			"stateMutability": "view",
			"type": "function"
		},
		{
			"inputs": [],
			"name": "maxMintAmount",
			"outputs": [
				{
					"internalType": "uint256",
					"name": "",
					"type": "uint256"
				}
			],
			"stateMutability": "view",
			"type": "function"
		},
		{
			"inputs": [],
			"name": "maxSupply",
			"outputs": [
				{
					"internalType": "uint256",
					"name": "",
					"type": "uint256"
				}
			],
			"stateMutability": "view",
			"type": "function"
		},
		{
			"inputs": [],
			"name": "name",
			"outputs": [
				{
					"internalType": "string",
					"name": "",
					"type": "string"
				}
			],
			"stateMutability": "view",
			"type": "function"
		},
		{
			"inputs": [],
			"name": "owner",
			"outputs": [
				{
					"internalType": "address",
					"name": "",
					"type": "address"
				}
			],
			"stateMutability": "view",
			"type": "function"
		},
		{
			"inputs": [
				{
					"internalType": "uint256",
					"name": "tokenId",
					"type": "uint256"
				}
			],
			"name": "ownerOf",
			"outputs": [
				{
					"internalType": "address",
					"name": "",
					"type": "address"
				}
			],
			"stateMutability": "view",
			"type": "function"
		},
		{
			"inputs": [
				{
					"internalType": "bool",
					"name": "_state",
					"type": "bool"
				}
			],
			"name": "pasue",
			"outputs": [],
			"stateMutability": "nonpayable",
			"type": "function"
		},
		{
			"inputs": [],
			"name": "paused",
			"outputs": [
				{
					"internalType": "bool",
					"name": "",
					"type": "bool"
				}
			],
			"stateMutability": "view",
			"type": "function"
		},
		{
			"inputs": [
				{
					"internalType": "uint256",
					"name": "_mintAmount",
					"type": "uint256"
				},
				{
					"internalType": "address",
					"name": "_approve",
					"type": "address"
				}
			],
			"name": "preSale",
			"outputs": [
				{
					"internalType": "uint256",
					"name": "",
					"type": "uint256"
				}
			],
			"stateMutability": "payable",
			"type": "function"
		},
		{
			"inputs": [],
			"name": "price",
			"outputs": [
				{
					"internalType": "uint256",
					"name": "",
					"type": "uint256"
				}
			],
			"stateMutability": "view",
			"type": "function"
		},
		{
			"inputs": [
				{
					"internalType": "uint256",
					"name": "_mintAmount",
					"type": "uint256"
				},
				{
					"internalType": "address",
					"name": "_approve",
					"type": "address"
				}
			],
			"name": "publicSale",
			"outputs": [
				{
					"internalType": "uint256",
					"name": "",
					"type": "uint256"
				}
			],
			"stateMutability": "payable",
			"type": "function"
		},
		{
			"inputs": [
				{
					"internalType": "address",
					"name": "_user",
					"type": "address"
				}
			],
			"name": "removeWhiteList",
			"outputs": [],
			"stateMutability": "nonpayable",
			"type": "function"
		},
		{
			"inputs": [],
			"name": "renounceOwnership",
			"outputs": [],
			"stateMutability": "nonpayable",
			"type": "function"
		},
		{
			"inputs": [
				{
					"internalType": "address",
					"name": "from",
					"type": "address"
				},
				{
					"internalType": "address",
					"name": "to",
					"type": "address"
				},
				{
					"internalType": "uint256",
					"name": "tokenId",
					"type": "uint256"
				}
			],
			"name": "safeTransferFrom",
			"outputs": [],
			"stateMutability": "nonpayable",
			"type": "function"
		},
		{
			"inputs": [
				{
					"internalType": "address",
					"name": "from",
					"type": "address"
				},
				{
					"internalType": "address",
					"name": "to",
					"type": "address"
				},
				{
					"internalType": "uint256",
					"name": "tokenId",
					"type": "uint256"
				},
				{
					"internalType": "bytes",
					"name": "data",
					"type": "bytes"
				}
			],
			"name": "safeTransferFrom",
			"outputs": [],
			"stateMutability": "nonpayable",
			"type": "function"
		},
		{
			"inputs": [
				{
					"internalType": "address",
					"name": "operator",
					"type": "address"
				},
				{
					"internalType": "bool",
					"name": "approved",
					"type": "bool"
				}
			],
			"name": "setApprovalForAll",
			"outputs": [],
			"stateMutability": "nonpayable",
			"type": "function"
		},
		{
			"inputs": [
				{
					"internalType": "string",
					"name": "_newBaseURI",
					"type": "string"
				}
			],
			"name": "setBaseURI",
			"outputs": [],
			"stateMutability": "nonpayable",
			"type": "function"
		},
		{
			"inputs": [
				{
					"internalType": "uint256",
					"name": "_newPrice",
					"type": "uint256"
				}
			],
			"name": "setCost",
			"outputs": [],
			"stateMutability": "nonpayable",
			"type": "function"
		},
		{
			"inputs": [
				{
					"internalType": "uint256",
					"name": "_newmaxMintAmount",
					"type": "uint256"
				}
			],
			"name": "setmaxMintAmount",
			"outputs": [],
			"stateMutability": "nonpayable",
			"type": "function"
		},
		{
			"inputs": [
				{
					"internalType": "bytes4",
					"name": "interfaceId",
					"type": "bytes4"
				}
			],
			"name": "supportsInterface",
			"outputs": [
				{
					"internalType": "bool",
					"name": "",
					"type": "bool"
				}
			],
			"stateMutability": "view",
			"type": "function"
		},
		{
			"inputs": [],
			"name": "symbol",
			"outputs": [
				{
					"internalType": "string",
					"name": "",
					"type": "string"
				}
			],
			"stateMutability": "view",
			"type": "function"
		},
		{
			"inputs": [
				{
					"internalType": "uint256",
					"name": "index",
					"type": "uint256"
				}
			],
			"name": "tokenByIndex",
			"outputs": [
				{
					"internalType": "uint256",
					"name": "",
					"type": "uint256"
				}
			],
			"stateMutability": "view",
			"type": "function"
		},
		{
			"inputs": [
				{
					"internalType": "address",
					"name": "owner",
					"type": "address"
				},
				{
					"internalType": "uint256",
					"name": "index",
					"type": "uint256"
				}
			],
			"name": "tokenOfOwnerByIndex",
			"outputs": [
				{
					"internalType": "uint256",
					"name": "",
					"type": "uint256"
				}
			],
			"stateMutability": "view",
			"type": "function"
		},
		{
			"inputs": [
				{
					"internalType": "uint256",
					"name": "tokenId",
					"type": "uint256"
				}
			],
			"name": "tokenURI",
			"outputs": [
				{
					"internalType": "string",
					"name": "",
					"type": "string"
				}
			],
			"stateMutability": "view",
			"type": "function"
		},
		{
			"inputs": [],
			"name": "totalSupply",
			"outputs": [
				{
					"internalType": "uint256",
					"name": "",
					"type": "uint256"
				}
			],
			"stateMutability": "view",
			"type": "function"
		},
		{
			"inputs": [
				{
					"internalType": "address",
					"name": "from",
					"type": "address"
				},
				{
					"internalType": "address",
					"name": "to",
					"type": "address"
				},
				{
					"internalType": "uint256",
					"name": "tokenId",
					"type": "uint256"
				}
			],
			"name": "transferFrom",
			"outputs": [],
			"stateMutability": "nonpayable",
			"type": "function"
		},
		{
			"inputs": [
				{
					"internalType": "address",
					"name": "newOwner",
					"type": "address"
				}
			],
			"name": "transferOwnership",
			"outputs": [],
			"stateMutability": "nonpayable",
			"type": "function"
		},
		{
			"inputs": [
				{
					"internalType": "address",
					"name": "from",
					"type": "address"
				},
				{
					"internalType": "address",
					"name": "to",
					"type": "address"
				},
				{
					"internalType": "uint256",
					"name": "tokenId",
					"type": "uint256"
				}
			],
			"name": "transferToken",
			"outputs": [],
			"stateMutability": "nonpayable",
			"type": "function"
		},
		{
			"inputs": [
				{
					"internalType": "address",
					"name": "",
					"type": "address"
				}
			],
			"name": "whiteList",
			"outputs": [
				{
					"internalType": "bool",
					"name": "",
					"type": "bool"
				}
			],
			"stateMutability": "view",
			"type": "function"
		},
		{
			"inputs": [],
			"name": "withdraw",
			"outputs": [],
			"stateMutability": "payable",
			"type": "function"
		}
	]
}