{
	"data": {
		"bytecode": {
			"linkReferences": {},
			"object": "608060405234801561001057600080fd5b50611960806100206000396000f3fe6080604052600436106100e85760003560e01c80637fd6f15c1161008a578063ca7dd37511610059578063ca7dd37514610253578063cce7ec1314610273578063d8401b6f14610286578063d93cdea0146102a657600080fd5b80637fd6f15c146101e55780638129fc1c146102095780639bc704dc1461021e578063be74264d1461023e57600080fd5b806365e17c9d116100c657806365e17c9d1461015a5780636781ea5914610192578063741cbae4146101a557806375ec68a9146101b857600080fd5b806307c9cd45146100ed57806313b4935a1461010f578063354bfb8b1461013a575b600080fd5b3480156100f957600080fd5b5061010d61010836600461169d565b6102b9565b005b34801561011b57600080fd5b50610124610506565b60405161013191906117ac565b60405180910390f35b34801561014657600080fd5b5061010d61015536600461169d565b600655565b34801561016657600080fd5b5060045461017a906001600160a01b031681565b6040516001600160a01b039091168152602001610131565b61010d6101a0366004611653565b61069c565b61010d6101b336600461161e565b61090e565b3480156101c457600080fd5b506101d86101d336600461169d565b610c0a565b6040516101319190611823565b3480156101f157600080fd5b506101fb60065481565b604051908152602001610131565b34801561021557600080fd5b5061010d610cd4565b34801561022a57600080fd5b506101fb61023936600461169d565b610e04565b34801561024a57600080fd5b506006546101fb565b34801561025f57600080fd5b506101fb61026e36600461169d565b610e31565b61010d6102813660046115f2565b610e60565b34801561029257600080fd5b506101fb6102a136600461169d565b61129c565b61010d6102b436600461161e565b6112b2565b60005460ff16156102e55760405162461bcd60e51b81526004016102dc906117fb565b60405180910390fd5b6000805460ff191660011781558181526007602052604090206005015460ff161561033e5760405162461bcd60e51b8152602060048201526009602482015268536f6c64206974656d60b81b60448201526064016102dc565b600081815260076020526040902060050154610100900460ff16156103955760405162461bcd60e51b815260206004820152600d60248201526c43616e63656c6564206974656d60981b60448201526064016102dc565b6000818152600760205260409020600201546001600160a01b031633146103bb57600080fd5b600081815260076020526040902060058101805461ff00191661010017905560028082018054600390930180546001600160a01b03199081166001600160a01b038616179091559092169091556104159080546001019055565b600081815260076020526040908190206001810154905491516323b872dd60e01b81526001600160a01b03909116916323b872dd9161045b913091339190600401611788565b600060405180830381600087803b15801561047557600080fd5b505af1158015610489573d6000803e3d6000fd5b5050506000828152600760205260409081902060058101805462ff00001916620200001790819055905491519192507f438ee6a1f0ffe386fc96940df410f74eeab23d860d775899a27ebc87d1f8cbf5916104f1913091339162010000900460ff169061175b565b60405180910390a2506000805460ff19169055565b6060600061051360015490565b90506000808267ffffffffffffffff811115610531576105316118ff565b60405190808252806020026020018201604052801561056a57816020015b610557611582565b81526020019060019003908161054f5790505b50905060005b83811015610694576000600781610588846001611832565b8152602080820192909252604090810160009081205480825260078452908290208251610120810184528154815260018201546001600160a01b03908116958201959095526002808301548616948201949094526003820154909416606085015260048101546080850152600581015460ff808216151560a087015261010082048116151560c0870152929550909392849260e08501926201000090041690811115610636576106366118d3565b6002811115610647576106476118d3565b8152602001600682015481525050848681518110610667576106676118e9565b602090810291909101015261067d600186611832565b94505050808061068c906118a2565b915050610570565b509392505050565b60005460ff16156106bf5760405162461bcd60e51b81526004016102dc906117fb565b6000805460ff191660011781556106d584610e31565b9050336001600160a01b038316146107225760405162461bcd60e51b815260206004820152601060248201526f2cb7ba9030b932b713ba1027bbb732b960811b60448201526064016102dc565b600083116107725760405162461bcd60e51b815260206004820152601c60248201527f5072696365206d757374206265206174206c656173742031207765690000000060448201526064016102dc565b600480546000868152600760205260409020909101546001600160a01b03909116906108fc906107a2908461188b565b6040518115909202916000818181858888f193505050501580156107ca573d6000803e3d6000fd5b5060008481526007602052604090819020549051637aa9bf6f60e11b815286916001600160a01b0383169163f5537ede9161080b9133913091600401611788565b600060405180830381600087803b15801561082557600080fd5b505af1158015610839573d6000803e3d6000fd5b50505060008681526007602052604090206003810180546001600160a01b0319908116909155600280830180549092166001600160a01b03881617909155600482018790556005909101805461ffff19169055610896915061152b565b6000858152600760205260409081902060058101805462ff0000191690819055905491517f438ee6a1f0ffe386fc96940df410f74eeab23d860d775899a27ebc87d1f8cbf5916108f491309133916201000090910460ff169061175b565b60405180910390a250506000805460ff1916905550505050565b60005460ff16156109315760405162461bcd60e51b81526004016102dc906117fb565b6000805460ff19166001178155828152600760205260408120549061095584610e31565b9050600083116109a75760405162461bcd60e51b815260206004820152601c60248201527f5072696365206d757374206265206174206c656173742031207765690000000060448201526064016102dc565b600480546000868152600760205260409020909101546001600160a01b03909116906108fc906109d7908461188b565b6040518115909202916000818181858888f193505050501580156109ff573d6000803e3d6000fd5b50600084815260076020526040902060058101805461ff00191661010017905560028082018054600390930180546001600160a01b03199081166001600160a01b03861617909155909216909155610a5a9080546001019055565b600084815260076020526040908190206001810154905491516323b872dd60e01b81526001600160a01b03909116916323b872dd91610aa0913091339190600401611788565b600060405180830381600087803b158015610aba57600080fd5b505af1158015610ace573d6000803e3d6000fd5b5050604051637aa9bf6f60e11b81528792506001600160a01b038316915063f5537ede90610b0490339030908890600401611788565b600060405180830381600087803b158015610b1e57600080fd5b505af1158015610b32573d6000803e3d6000fd5b50505060008681526007602052604090206003810180546001600160a01b0319808216909255600280840180546001600160a01b03909316929093168217909255600483018890556005909201805462ffffff19169055909150610b959061152b565b6000868152600760209081526040918290208054600282015460049092015484516001600160a01b0390931683529282019290925290917f38fd4d603a6b5a395e14b567cf1dfb3698e6379f6426aa7040444fb78d4501b7910160405180910390a250506000805460ff191690555050505050565b610c12611582565b6000828152600760209081526040918290208251610120810184528154815260018201546001600160a01b03908116938201939093526002808301548416948201949094526003820154909216606083015260048101546080830152600581015460ff808216151560a085015261010082048116151560c08501529293919260e0850192620100009092041690811115610cae57610cae6118d3565b6002811115610cbf57610cbf6118d3565b81526020016006820154815250509050919050565b60005462010000900460ff1615808015610cf95750600054600161010090910460ff16105b80610d195750303b158015610d19575060005460ff610100909104166001145b610d7c5760405162461bcd60e51b815260206004820152602e60248201527f496e697469616c697a61626c653a20636f6e747261637420697320616c72656160448201526d191e481a5b9a5d1a585b1a5e995960921b60648201526084016102dc565b6000805461ff0019166101001790558015610da3576000805462ff00001916620100001790555b600480546001600160a01b0319163317905560016006558015610e01576000805462ff000019169055604051600181527f7f26b83ff96e1f2b6a682f133852f6798a09c465da95921460cefb38474024989060200160405180910390a15b50565b600060646006546064610e179190611832565b610e21908461186c565b610e2b919061184a565b92915050565b600060646006546064610e449190611832565b600084815260076020526040902060040154610e21919061186c565b60005460ff1615610e835760405162461bcd60e51b81526004016102dc906117fb565b6000805460ff191660011781558181526007602052604090206005015460ff1615610ee45760405162461bcd60e51b81526020600482015260116024820152701a5d195b48185b1c9958591e481cdbdb19607a1b60448201526064016102dc565b6000610eef82610e31565b6040516331a9108f60e11b81526004810184905290915083906000906001600160a01b03831690636352211e9060240160206040518083038186803b158015610f3757600080fd5b505afa158015610f4b573d6000803e3d6000fd5b505050506040513d601f19601f82011682018060405250810190610f6f91906115ce565b90506001600160a01b0381163014611020576000816001600160a01b0316346103e890604051600060405180830381858888f193505050503d8060008114610fd3576040519150601f19603f3d011682016040523d82523d6000602084013e610fd8565b606091505b505090508061101a5760405162461bcd60e51b815260206004820152600e60248201526d11985a5b1959081d1bc81cd95b9960921b60448201526064016102dc565b506110c9565b6000848152600760205260408082206002015490516001600160a01b03909116906103e890349084818181858888f193505050503d8060008114611080576040519150601f19603f3d011682016040523d82523d6000602084013e611085565b606091505b50509050806110c75760405162461bcd60e51b815260206004820152600e60248201526d11985a5b1959081d1bc81cd95b9960921b60448201526064016102dc565b505b6000848152600760205260408082206002015490516001600160a01b03909116913480156108fc02929091818181858888f19350505050158015611111573d6000803e3d6000fd5b50600480546000868152600760205260409020909101546001600160a01b03909116906108fc90611142908661188b565b6040518115909202916000818181858888f1935050505015801561116a573d6000803e3d6000fd5b50611179600280546001019055565b600084815260076020526040908190205490516323b872dd60e01b81526001600160a01b038716916323b872dd916111b8913091339190600401611788565b600060405180830381600087803b1580156111d257600080fd5b505af11580156111e6573d6000803e3d6000fd5b5050506000858152600760209081526040808320600381018054336001600160a01b031990911681179091556005820180546201000162ffffff19909116179055426006830181905582546004909301548451878152958601929092529284015260016060840152608083019390935260a08201529091507f07752124f116bbb96319ad16cd4f3b15c653914aad26ea3e4b6024b7d0dcf5d79060c00160405180910390a250506000805460ff19169055505050565b6000816112a883610e04565b610e2b919061188b565b60005460ff16156112d55760405162461bcd60e51b81526004016102dc906117fb565b6000805460ff191660011790558061131c5760405162461bcd60e51b815260206004820152600a60248201526905072696365203d3d20360b41b60448201526064016102dc565b60055434146113665760405162461bcd60e51b8152602060048201526016602482015275507269636520213d206c697374696e6720707269636560501b60448201526064016102dc565b60005b8281101561151b5761137f600180546001019055565b600061138a60015490565b60408051610120810182528281526001600160a01b03888116602080840191825233848601908152600060608601818152608087018c815260a0880183815260c0890184815260e08a0185815242610100808d01919091528d875260079098529a909420895181559651600188018054918a166001600160a01b0319928316179055945160028089018054928b16928816929092179091559251600388018054919099169516949094179096559451600485015590516005840180549251151590930261ff00199115159190911661ffff19909216919091171780825594519596509294909390929162ff0000199091169062010000908490811115611492576114926118d3565b021790555061010091909101516006909101556040516323b872dd60e01b81526001600160a01b038616906323b872dd906114d590339030908690600401611788565b600060405180830381600087803b1580156114ef57600080fd5b505af1158015611503573d6000803e3d6000fd5b50505050508080611513906118a2565b915050611369565b50506000805460ff191690555050565b80548061157a5760405162461bcd60e51b815260206004820152601b60248201527f436f756e7465723a2064656372656d656e74206f766572666c6f77000000000060448201526064016102dc565b600019019055565b6040805161012081018252600080825260208201819052918101829052606081018290526080810182905260a0810182905260c081018290529060e08201908152602001600081525090565b6000602082840312156115e057600080fd5b81516115eb81611915565b9392505050565b6000806040838503121561160557600080fd5b823561161081611915565b946020939093013593505050565b60008060006060848603121561163357600080fd5b833561163e81611915565b95602085013595506040909401359392505050565b6000806000806080858703121561166957600080fd5b843561167481611915565b93506020850135925060408501359150606085013561169281611915565b939692955090935050565b6000602082840312156116af57600080fd5b5035919050565b600381106116d457634e487b7160e01b600052602160045260246000fd5b9052565b80518252602081015160018060a01b03808216602085015280604084015116604085015280606084015116606085015250506080810151608083015260a081015161172760a084018215159052565b5060c081015161173b60c084018215159052565b5060e081015161174e60e08401826116b6565b5061010090810151910152565b6001600160a01b038481168252831660208201526060810161178060408301846116b6565b949350505050565b6001600160a01b039384168152919092166020820152604081019190915260600190565b6020808252825182820181905260009190848201906040850190845b818110156117ef576117db8385516116d8565b9284019261012092909201916001016117c8565b50909695505050505050565b6020808252600e908201526d4e6f2072652d656e7472616e637960901b604082015260600190565b6101208101610e2b82846116d8565b60008219821115611845576118456118bd565b500190565b60008261186757634e487b7160e01b600052601260045260246000fd5b500490565b6000816000190483118215151615611886576118866118bd565b500290565b60008282101561189d5761189d6118bd565b500390565b60006000198214156118b6576118b66118bd565b5060010190565b634e487b7160e01b600052601160045260246000fd5b634e487b7160e01b600052602160045260246000fd5b634e487b7160e01b600052603260045260246000fd5b634e487b7160e01b600052604160045260246000fd5b6001600160a01b0381168114610e0157600080fdfea26469706673582212206d1996d15b4a2550f701f6ca4066f9cfc9b1cf74a1e4e27eb7d00b87d20ab75964736f6c63430008070033",
			"opcodes": "PUSH1 0x80 PUSH1 0x40 MSTORE CALLVALUE DUP1 ISZERO PUSH2 0x10 JUMPI PUSH1 0x0 DUP1 REVERT JUMPDEST POP PUSH2 0x1960 DUP1 PUSH2 0x20 PUSH1 0x0 CODECOPY PUSH1 0x0 RETURN INVALID PUSH1 0x80 PUSH1 0x40 MSTORE PUSH1 0x4 CALLDATASIZE LT PUSH2 0xE8 JUMPI PUSH1 0x0 CALLDATALOAD PUSH1 0xE0 SHR DUP1 PUSH4 0x7FD6F15C GT PUSH2 0x8A JUMPI DUP1 PUSH4 0xCA7DD375 GT PUSH2 0x59 JUMPI DUP1 PUSH4 0xCA7DD375 EQ PUSH2 0x253 JUMPI DUP1 PUSH4 0xCCE7EC13 EQ PUSH2 0x273 JUMPI DUP1 PUSH4 0xD8401B6F EQ PUSH2 0x286 JUMPI DUP1 PUSH4 0xD93CDEA0 EQ PUSH2 0x2A6 JUMPI PUSH1 0x0 DUP1 REVERT JUMPDEST DUP1 PUSH4 0x7FD6F15C EQ PUSH2 0x1E5 JUMPI DUP1 PUSH4 0x8129FC1C EQ PUSH2 0x209 JUMPI DUP1 PUSH4 0x9BC704DC EQ PUSH2 0x21E JUMPI DUP1 PUSH4 0xBE74264D EQ PUSH2 0x23E JUMPI PUSH1 0x0 DUP1 REVERT JUMPDEST DUP1 PUSH4 0x65E17C9D GT PUSH2 0xC6 JUMPI DUP1 PUSH4 0x65E17C9D EQ PUSH2 0x15A JUMPI DUP1 PUSH4 0x6781EA59 EQ PUSH2 0x192 JUMPI DUP1 PUSH4 0x741CBAE4 EQ PUSH2 0x1A5 JUMPI DUP1 PUSH4 0x75EC68A9 EQ PUSH2 0x1B8 JUMPI PUSH1 0x0 DUP1 REVERT JUMPDEST DUP1 PUSH4 0x7C9CD45 EQ PUSH2 0xED JUMPI DUP1 PUSH4 0x13B4935A EQ PUSH2 0x10F JUMPI DUP1 PUSH4 0x354BFB8B EQ PUSH2 0x13A JUMPI JUMPDEST PUSH1 0x0 DUP1 REVERT JUMPDEST CALLVALUE DUP1 ISZERO PUSH2 0xF9 JUMPI PUSH1 0x0 DUP1 REVERT JUMPDEST POP PUSH2 0x10D PUSH2 0x108 CALLDATASIZE PUSH1 0x4 PUSH2 0x169D JUMP JUMPDEST PUSH2 0x2B9 JUMP JUMPDEST STOP JUMPDEST CALLVALUE DUP1 ISZERO PUSH2 0x11B JUMPI PUSH1 0x0 DUP1 REVERT JUMPDEST POP PUSH2 0x124 PUSH2 0x506 JUMP JUMPDEST PUSH1 0x40 MLOAD PUSH2 0x131 SWAP2 SWAP1 PUSH2 0x17AC JUMP JUMPDEST PUSH1 0x40 MLOAD DUP1 SWAP2 SUB SWAP1 RETURN JUMPDEST CALLVALUE DUP1 ISZERO PUSH2 0x146 JUMPI PUSH1 0x0 DUP1 REVERT JUMPDEST POP PUSH2 0x10D PUSH2 0x155 CALLDATASIZE PUSH1 0x4 PUSH2 0x169D JUMP JUMPDEST PUSH1 0x6 SSTORE JUMP JUMPDEST CALLVALUE DUP1 ISZERO PUSH2 0x166 JUMPI PUSH1 0x0 DUP1 REVERT JUMPDEST POP PUSH1 0x4 SLOAD PUSH2 0x17A SWAP1 PUSH1 0x1 PUSH1 0x1 PUSH1 0xA0 SHL SUB AND DUP2 JUMP JUMPDEST PUSH1 0x40 MLOAD PUSH1 0x1 PUSH1 0x1 PUSH1 0xA0 SHL SUB SWAP1 SWAP2 AND DUP2 MSTORE PUSH1 0x20 ADD PUSH2 0x131 JUMP JUMPDEST PUSH2 0x10D PUSH2 0x1A0 CALLDATASIZE PUSH1 0x4 PUSH2 0x1653 JUMP JUMPDEST PUSH2 0x69C JUMP JUMPDEST PUSH2 0x10D PUSH2 0x1B3 CALLDATASIZE PUSH1 0x4 PUSH2 0x161E JUMP JUMPDEST PUSH2 0x90E JUMP JUMPDEST CALLVALUE DUP1 ISZERO PUSH2 0x1C4 JUMPI PUSH1 0x0 DUP1 REVERT JUMPDEST POP PUSH2 0x1D8 PUSH2 0x1D3 CALLDATASIZE PUSH1 0x4 PUSH2 0x169D JUMP JUMPDEST PUSH2 0xC0A JUMP JUMPDEST PUSH1 0x40 MLOAD PUSH2 0x131 SWAP2 SWAP1 PUSH2 0x1823 JUMP JUMPDEST CALLVALUE DUP1 ISZERO PUSH2 0x1F1 JUMPI PUSH1 0x0 DUP1 REVERT JUMPDEST POP PUSH2 0x1FB PUSH1 0x6 SLOAD DUP2 JUMP JUMPDEST PUSH1 0x40 MLOAD SWAP1 DUP2 MSTORE PUSH1 0x20 ADD PUSH2 0x131 JUMP JUMPDEST CALLVALUE DUP1 ISZERO PUSH2 0x215 JUMPI PUSH1 0x0 DUP1 REVERT JUMPDEST POP PUSH2 0x10D PUSH2 0xCD4 JUMP JUMPDEST CALLVALUE DUP1 ISZERO PUSH2 0x22A JUMPI PUSH1 0x0 DUP1 REVERT JUMPDEST POP PUSH2 0x1FB PUSH2 0x239 CALLDATASIZE PUSH1 0x4 PUSH2 0x169D JUMP JUMPDEST PUSH2 0xE04 JUMP JUMPDEST CALLVALUE DUP1 ISZERO PUSH2 0x24A JUMPI PUSH1 0x0 DUP1 REVERT JUMPDEST POP PUSH1 0x6 SLOAD PUSH2 0x1FB JUMP JUMPDEST CALLVALUE DUP1 ISZERO PUSH2 0x25F JUMPI PUSH1 0x0 DUP1 REVERT JUMPDEST POP PUSH2 0x1FB PUSH2 0x26E CALLDATASIZE PUSH1 0x4 PUSH2 0x169D JUMP JUMPDEST PUSH2 0xE31 JUMP JUMPDEST PUSH2 0x10D PUSH2 0x281 CALLDATASIZE PUSH1 0x4 PUSH2 0x15F2 JUMP JUMPDEST PUSH2 0xE60 JUMP JUMPDEST CALLVALUE DUP1 ISZERO PUSH2 0x292 JUMPI PUSH1 0x0 DUP1 REVERT JUMPDEST POP PUSH2 0x1FB PUSH2 0x2A1 CALLDATASIZE PUSH1 0x4 PUSH2 0x169D JUMP JUMPDEST PUSH2 0x129C JUMP JUMPDEST PUSH2 0x10D PUSH2 0x2B4 CALLDATASIZE PUSH1 0x4 PUSH2 0x161E JUMP JUMPDEST PUSH2 0x12B2 JUMP JUMPDEST PUSH1 0x0 SLOAD PUSH1 0xFF AND ISZERO PUSH2 0x2E5 JUMPI PUSH1 0x40 MLOAD PUSH3 0x461BCD PUSH1 0xE5 SHL DUP2 MSTORE PUSH1 0x4 ADD PUSH2 0x2DC SWAP1 PUSH2 0x17FB JUMP JUMPDEST PUSH1 0x40 MLOAD DUP1 SWAP2 SUB SWAP1 REVERT JUMPDEST PUSH1 0x0 DUP1 SLOAD PUSH1 0xFF NOT AND PUSH1 0x1 OR DUP2 SSTORE DUP2 DUP2 MSTORE PUSH1 0x7 PUSH1 0x20 MSTORE PUSH1 0x40 SWAP1 KECCAK256 PUSH1 0x5 ADD SLOAD PUSH1 0xFF AND ISZERO PUSH2 0x33E JUMPI PUSH1 0x40 MLOAD PUSH3 0x461BCD PUSH1 0xE5 SHL DUP2 MSTORE PUSH1 0x20 PUSH1 0x4 DUP3 ADD MSTORE PUSH1 0x9 PUSH1 0x24 DUP3 ADD MSTORE PUSH9 0x536F6C64206974656D PUSH1 0xB8 SHL PUSH1 0x44 DUP3 ADD MSTORE PUSH1 0x64 ADD PUSH2 0x2DC JUMP JUMPDEST PUSH1 0x0 DUP2 DUP2 MSTORE PUSH1 0x7 PUSH1 0x20 MSTORE PUSH1 0x40 SWAP1 KECCAK256 PUSH1 0x5 ADD SLOAD PUSH2 0x100 SWAP1 DIV PUSH1 0xFF AND ISZERO PUSH2 0x395 JUMPI PUSH1 0x40 MLOAD PUSH3 0x461BCD PUSH1 0xE5 SHL DUP2 MSTORE PUSH1 0x20 PUSH1 0x4 DUP3 ADD MSTORE PUSH1 0xD PUSH1 0x24 DUP3 ADD MSTORE PUSH13 0x43616E63656C6564206974656D PUSH1 0x98 SHL PUSH1 0x44 DUP3 ADD MSTORE PUSH1 0x64 ADD PUSH2 0x2DC JUMP JUMPDEST PUSH1 0x0 DUP2 DUP2 MSTORE PUSH1 0x7 PUSH1 0x20 MSTORE PUSH1 0x40 SWAP1 KECCAK256 PUSH1 0x2 ADD SLOAD PUSH1 0x1 PUSH1 0x1 PUSH1 0xA0 SHL SUB AND CALLER EQ PUSH2 0x3BB JUMPI PUSH1 0x0 DUP1 REVERT JUMPDEST PUSH1 0x0 DUP2 DUP2 MSTORE PUSH1 0x7 PUSH1 0x20 MSTORE PUSH1 0x40 SWAP1 KECCAK256 PUSH1 0x5 DUP2 ADD DUP1 SLOAD PUSH2 0xFF00 NOT AND PUSH2 0x100 OR SWAP1 SSTORE PUSH1 0x2 DUP1 DUP3 ADD DUP1 SLOAD PUSH1 0x3 SWAP1 SWAP4 ADD DUP1 SLOAD PUSH1 0x1 PUSH1 0x1 PUSH1 0xA0 SHL SUB NOT SWAP1 DUP2 AND PUSH1 0x1 PUSH1 0x1 PUSH1 0xA0 SHL SUB DUP7 AND OR SWAP1 SWAP2 SSTORE SWAP1 SWAP3 AND SWAP1 SWAP2 SSTORE PUSH2 0x415 SWAP1 DUP1 SLOAD PUSH1 0x1 ADD SWAP1 SSTORE JUMP JUMPDEST PUSH1 0x0 DUP2 DUP2 MSTORE PUSH1 0x7 PUSH1 0x20 MSTORE PUSH1 0x40 SWAP1 DUP2 SWAP1 KECCAK256 PUSH1 0x1 DUP2 ADD SLOAD SWAP1 SLOAD SWAP2 MLOAD PUSH4 0x23B872DD PUSH1 0xE0 SHL DUP2 MSTORE PUSH1 0x1 PUSH1 0x1 PUSH1 0xA0 SHL SUB SWAP1 SWAP2 AND SWAP2 PUSH4 0x23B872DD SWAP2 PUSH2 0x45B SWAP2 ADDRESS SWAP2 CALLER SWAP2 SWAP1 PUSH1 0x4 ADD PUSH2 0x1788 JUMP JUMPDEST PUSH1 0x0 PUSH1 0x40 MLOAD DUP1 DUP4 SUB DUP2 PUSH1 0x0 DUP8 DUP1 EXTCODESIZE ISZERO DUP1 ISZERO PUSH2 0x475 JUMPI PUSH1 0x0 DUP1 REVERT JUMPDEST POP GAS CALL ISZERO DUP1 ISZERO PUSH2 0x489 JUMPI RETURNDATASIZE PUSH1 0x0 DUP1 RETURNDATACOPY RETURNDATASIZE PUSH1 0x0 REVERT JUMPDEST POP POP POP PUSH1 0x0 DUP3 DUP2 MSTORE PUSH1 0x7 PUSH1 0x20 MSTORE PUSH1 0x40 SWAP1 DUP2 SWAP1 KECCAK256 PUSH1 0x5 DUP2 ADD DUP1 SLOAD PUSH3 0xFF0000 NOT AND PUSH3 0x20000 OR SWAP1 DUP2 SWAP1 SSTORE SWAP1 SLOAD SWAP2 MLOAD SWAP2 SWAP3 POP PUSH32 0x438EE6A1F0FFE386FC96940DF410F74EEAB23D860D775899A27EBC87D1F8CBF5 SWAP2 PUSH2 0x4F1 SWAP2 ADDRESS SWAP2 CALLER SWAP2 PUSH3 0x10000 SWAP1 DIV PUSH1 0xFF AND SWAP1 PUSH2 0x175B JUMP JUMPDEST PUSH1 0x40 MLOAD DUP1 SWAP2 SUB SWAP1 LOG2 POP PUSH1 0x0 DUP1 SLOAD PUSH1 0xFF NOT AND SWAP1 SSTORE JUMP JUMPDEST PUSH1 0x60 PUSH1 0x0 PUSH2 0x513 PUSH1 0x1 SLOAD SWAP1 JUMP JUMPDEST SWAP1 POP PUSH1 0x0 DUP1 DUP3 PUSH8 0xFFFFFFFFFFFFFFFF DUP2 GT ISZERO PUSH2 0x531 JUMPI PUSH2 0x531 PUSH2 0x18FF JUMP JUMPDEST PUSH1 0x40 MLOAD SWAP1 DUP1 DUP3 MSTORE DUP1 PUSH1 0x20 MUL PUSH1 0x20 ADD DUP3 ADD PUSH1 0x40 MSTORE DUP1 ISZERO PUSH2 0x56A JUMPI DUP2 PUSH1 0x20 ADD JUMPDEST PUSH2 0x557 PUSH2 0x1582 JUMP JUMPDEST DUP2 MSTORE PUSH1 0x20 ADD SWAP1 PUSH1 0x1 SWAP1 SUB SWAP1 DUP2 PUSH2 0x54F JUMPI SWAP1 POP JUMPDEST POP SWAP1 POP PUSH1 0x0 JUMPDEST DUP4 DUP2 LT ISZERO PUSH2 0x694 JUMPI PUSH1 0x0 PUSH1 0x7 DUP2 PUSH2 0x588 DUP5 PUSH1 0x1 PUSH2 0x1832 JUMP JUMPDEST DUP2 MSTORE PUSH1 0x20 DUP1 DUP3 ADD SWAP3 SWAP1 SWAP3 MSTORE PUSH1 0x40 SWAP1 DUP2 ADD PUSH1 0x0 SWAP1 DUP2 KECCAK256 SLOAD DUP1 DUP3 MSTORE PUSH1 0x7 DUP5 MSTORE SWAP1 DUP3 SWAP1 KECCAK256 DUP3 MLOAD PUSH2 0x120 DUP2 ADD DUP5 MSTORE DUP2 SLOAD DUP2 MSTORE PUSH1 0x1 DUP3 ADD SLOAD PUSH1 0x1 PUSH1 0x1 PUSH1 0xA0 SHL SUB SWAP1 DUP2 AND SWAP6 DUP3 ADD SWAP6 SWAP1 SWAP6 MSTORE PUSH1 0x2 DUP1 DUP4 ADD SLOAD DUP7 AND SWAP5 DUP3 ADD SWAP5 SWAP1 SWAP5 MSTORE PUSH1 0x3 DUP3 ADD SLOAD SWAP1 SWAP5 AND PUSH1 0x60 DUP6 ADD MSTORE PUSH1 0x4 DUP2 ADD SLOAD PUSH1 0x80 DUP6 ADD MSTORE PUSH1 0x5 DUP2 ADD SLOAD PUSH1 0xFF DUP1 DUP3 AND ISZERO ISZERO PUSH1 0xA0 DUP8 ADD MSTORE PUSH2 0x100 DUP3 DIV DUP2 AND ISZERO ISZERO PUSH1 0xC0 DUP8 ADD MSTORE SWAP3 SWAP6 POP SWAP1 SWAP4 SWAP3 DUP5 SWAP3 PUSH1 0xE0 DUP6 ADD SWAP3 PUSH3 0x10000 SWAP1 DIV AND SWAP1 DUP2 GT ISZERO PUSH2 0x636 JUMPI PUSH2 0x636 PUSH2 0x18D3 JUMP JUMPDEST PUSH1 0x2 DUP2 GT ISZERO PUSH2 0x647 JUMPI PUSH2 0x647 PUSH2 0x18D3 JUMP JUMPDEST DUP2 MSTORE PUSH1 0x20 ADD PUSH1 0x6 DUP3 ADD SLOAD DUP2 MSTORE POP POP DUP5 DUP7 DUP2 MLOAD DUP2 LT PUSH2 0x667 JUMPI PUSH2 0x667 PUSH2 0x18E9 JUMP JUMPDEST PUSH1 0x20 SWAP1 DUP2 MUL SWAP2 SWAP1 SWAP2 ADD ADD MSTORE PUSH2 0x67D PUSH1 0x1 DUP7 PUSH2 0x1832 JUMP JUMPDEST SWAP5 POP POP POP DUP1 DUP1 PUSH2 0x68C SWAP1 PUSH2 0x18A2 JUMP JUMPDEST SWAP2 POP POP PUSH2 0x570 JUMP JUMPDEST POP SWAP4 SWAP3 POP POP POP JUMP JUMPDEST PUSH1 0x0 SLOAD PUSH1 0xFF AND ISZERO PUSH2 0x6BF JUMPI PUSH1 0x40 MLOAD PUSH3 0x461BCD PUSH1 0xE5 SHL DUP2 MSTORE PUSH1 0x4 ADD PUSH2 0x2DC SWAP1 PUSH2 0x17FB JUMP JUMPDEST PUSH1 0x0 DUP1 SLOAD PUSH1 0xFF NOT AND PUSH1 0x1 OR DUP2 SSTORE PUSH2 0x6D5 DUP5 PUSH2 0xE31 JUMP JUMPDEST SWAP1 POP CALLER PUSH1 0x1 PUSH1 0x1 PUSH1 0xA0 SHL SUB DUP4 AND EQ PUSH2 0x722 JUMPI PUSH1 0x40 MLOAD PUSH3 0x461BCD PUSH1 0xE5 SHL DUP2 MSTORE PUSH1 0x20 PUSH1 0x4 DUP3 ADD MSTORE PUSH1 0x10 PUSH1 0x24 DUP3 ADD MSTORE PUSH16 0x2CB7BA9030B932B713BA1027BBB732B9 PUSH1 0x81 SHL PUSH1 0x44 DUP3 ADD MSTORE PUSH1 0x64 ADD PUSH2 0x2DC JUMP JUMPDEST PUSH1 0x0 DUP4 GT PUSH2 0x772 JUMPI PUSH1 0x40 MLOAD PUSH3 0x461BCD PUSH1 0xE5 SHL DUP2 MSTORE PUSH1 0x20 PUSH1 0x4 DUP3 ADD MSTORE PUSH1 0x1C PUSH1 0x24 DUP3 ADD MSTORE PUSH32 0x5072696365206D757374206265206174206C6561737420312077656900000000 PUSH1 0x44 DUP3 ADD MSTORE PUSH1 0x64 ADD PUSH2 0x2DC JUMP JUMPDEST PUSH1 0x4 DUP1 SLOAD PUSH1 0x0 DUP7 DUP2 MSTORE PUSH1 0x7 PUSH1 0x20 MSTORE PUSH1 0x40 SWAP1 KECCAK256 SWAP1 SWAP2 ADD SLOAD PUSH1 0x1 PUSH1 0x1 PUSH1 0xA0 SHL SUB SWAP1 SWAP2 AND SWAP1 PUSH2 0x8FC SWAP1 PUSH2 0x7A2 SWAP1 DUP5 PUSH2 0x188B JUMP JUMPDEST PUSH1 0x40 MLOAD DUP2 ISZERO SWAP1 SWAP3 MUL SWAP2 PUSH1 0x0 DUP2 DUP2 DUP2 DUP6 DUP9 DUP9 CALL SWAP4 POP POP POP POP ISZERO DUP1 ISZERO PUSH2 0x7CA JUMPI RETURNDATASIZE PUSH1 0x0 DUP1 RETURNDATACOPY RETURNDATASIZE PUSH1 0x0 REVERT JUMPDEST POP PUSH1 0x0 DUP5 DUP2 MSTORE PUSH1 0x7 PUSH1 0x20 MSTORE PUSH1 0x40 SWAP1 DUP2 SWAP1 KECCAK256 SLOAD SWAP1 MLOAD PUSH4 0x7AA9BF6F PUSH1 0xE1 SHL DUP2 MSTORE DUP7 SWAP2 PUSH1 0x1 PUSH1 0x1 PUSH1 0xA0 SHL SUB DUP4 AND SWAP2 PUSH4 0xF5537EDE SWAP2 PUSH2 0x80B SWAP2 CALLER SWAP2 ADDRESS SWAP2 PUSH1 0x4 ADD PUSH2 0x1788 JUMP JUMPDEST PUSH1 0x0 PUSH1 0x40 MLOAD DUP1 DUP4 SUB DUP2 PUSH1 0x0 DUP8 DUP1 EXTCODESIZE ISZERO DUP1 ISZERO PUSH2 0x825 JUMPI PUSH1 0x0 DUP1 REVERT JUMPDEST POP GAS CALL ISZERO DUP1 ISZERO PUSH2 0x839 JUMPI RETURNDATASIZE PUSH1 0x0 DUP1 RETURNDATACOPY RETURNDATASIZE PUSH1 0x0 REVERT JUMPDEST POP POP POP PUSH1 0x0 DUP7 DUP2 MSTORE PUSH1 0x7 PUSH1 0x20 MSTORE PUSH1 0x40 SWAP1 KECCAK256 PUSH1 0x3 DUP2 ADD DUP1 SLOAD PUSH1 0x1 PUSH1 0x1 PUSH1 0xA0 SHL SUB NOT SWAP1 DUP2 AND SWAP1 SWAP2 SSTORE PUSH1 0x2 DUP1 DUP4 ADD DUP1 SLOAD SWAP1 SWAP3 AND PUSH1 0x1 PUSH1 0x1 PUSH1 0xA0 SHL SUB DUP9 AND OR SWAP1 SWAP2 SSTORE PUSH1 0x4 DUP3 ADD DUP8 SWAP1 SSTORE PUSH1 0x5 SWAP1 SWAP2 ADD DUP1 SLOAD PUSH2 0xFFFF NOT AND SWAP1 SSTORE PUSH2 0x896 SWAP2 POP PUSH2 0x152B JUMP JUMPDEST PUSH1 0x0 DUP6 DUP2 MSTORE PUSH1 0x7 PUSH1 0x20 MSTORE PUSH1 0x40 SWAP1 DUP2 SWAP1 KECCAK256 PUSH1 0x5 DUP2 ADD DUP1 SLOAD PUSH3 0xFF0000 NOT AND SWAP1 DUP2 SWAP1 SSTORE SWAP1 SLOAD SWAP2 MLOAD PUSH32 0x438EE6A1F0FFE386FC96940DF410F74EEAB23D860D775899A27EBC87D1F8CBF5 SWAP2 PUSH2 0x8F4 SWAP2 ADDRESS SWAP2 CALLER SWAP2 PUSH3 0x10000 SWAP1 SWAP2 DIV PUSH1 0xFF AND SWAP1 PUSH2 0x175B JUMP JUMPDEST PUSH1 0x40 MLOAD DUP1 SWAP2 SUB SWAP1 LOG2 POP POP PUSH1 0x0 DUP1 SLOAD PUSH1 0xFF NOT AND SWAP1 SSTORE POP POP POP POP JUMP JUMPDEST PUSH1 0x0 SLOAD PUSH1 0xFF AND ISZERO PUSH2 0x931 JUMPI PUSH1 0x40 MLOAD PUSH3 0x461BCD PUSH1 0xE5 SHL DUP2 MSTORE PUSH1 0x4 ADD PUSH2 0x2DC SWAP1 PUSH2 0x17FB JUMP JUMPDEST PUSH1 0x0 DUP1 SLOAD PUSH1 0xFF NOT AND PUSH1 0x1 OR DUP2 SSTORE DUP3 DUP2 MSTORE PUSH1 0x7 PUSH1 0x20 MSTORE PUSH1 0x40 DUP2 KECCAK256 SLOAD SWAP1 PUSH2 0x955 DUP5 PUSH2 0xE31 JUMP JUMPDEST SWAP1 POP PUSH1 0x0 DUP4 GT PUSH2 0x9A7 JUMPI PUSH1 0x40 MLOAD PUSH3 0x461BCD PUSH1 0xE5 SHL DUP2 MSTORE PUSH1 0x20 PUSH1 0x4 DUP3 ADD MSTORE PUSH1 0x1C PUSH1 0x24 DUP3 ADD MSTORE PUSH32 0x5072696365206D757374206265206174206C6561737420312077656900000000 PUSH1 0x44 DUP3 ADD MSTORE PUSH1 0x64 ADD PUSH2 0x2DC JUMP JUMPDEST PUSH1 0x4 DUP1 SLOAD PUSH1 0x0 DUP7 DUP2 MSTORE PUSH1 0x7 PUSH1 0x20 MSTORE PUSH1 0x40 SWAP1 KECCAK256 SWAP1 SWAP2 ADD SLOAD PUSH1 0x1 PUSH1 0x1 PUSH1 0xA0 SHL SUB SWAP1 SWAP2 AND SWAP1 PUSH2 0x8FC SWAP1 PUSH2 0x9D7 SWAP1 DUP5 PUSH2 0x188B JUMP JUMPDEST PUSH1 0x40 MLOAD DUP2 ISZERO SWAP1 SWAP3 MUL SWAP2 PUSH1 0x0 DUP2 DUP2 DUP2 DUP6 DUP9 DUP9 CALL SWAP4 POP POP POP POP ISZERO DUP1 ISZERO PUSH2 0x9FF JUMPI RETURNDATASIZE PUSH1 0x0 DUP1 RETURNDATACOPY RETURNDATASIZE PUSH1 0x0 REVERT JUMPDEST POP PUSH1 0x0 DUP5 DUP2 MSTORE PUSH1 0x7 PUSH1 0x20 MSTORE PUSH1 0x40 SWAP1 KECCAK256 PUSH1 0x5 DUP2 ADD DUP1 SLOAD PUSH2 0xFF00 NOT AND PUSH2 0x100 OR SWAP1 SSTORE PUSH1 0x2 DUP1 DUP3 ADD DUP1 SLOAD PUSH1 0x3 SWAP1 SWAP4 ADD DUP1 SLOAD PUSH1 0x1 PUSH1 0x1 PUSH1 0xA0 SHL SUB NOT SWAP1 DUP2 AND PUSH1 0x1 PUSH1 0x1 PUSH1 0xA0 SHL SUB DUP7 AND OR SWAP1 SWAP2 SSTORE SWAP1 SWAP3 AND SWAP1 SWAP2 SSTORE PUSH2 0xA5A SWAP1 DUP1 SLOAD PUSH1 0x1 ADD SWAP1 SSTORE JUMP JUMPDEST PUSH1 0x0 DUP5 DUP2 MSTORE PUSH1 0x7 PUSH1 0x20 MSTORE PUSH1 0x40 SWAP1 DUP2 SWAP1 KECCAK256 PUSH1 0x1 DUP2 ADD SLOAD SWAP1 SLOAD SWAP2 MLOAD PUSH4 0x23B872DD PUSH1 0xE0 SHL DUP2 MSTORE PUSH1 0x1 PUSH1 0x1 PUSH1 0xA0 SHL SUB SWAP1 SWAP2 AND SWAP2 PUSH4 0x23B872DD SWAP2 PUSH2 0xAA0 SWAP2 ADDRESS SWAP2 CALLER SWAP2 SWAP1 PUSH1 0x4 ADD PUSH2 0x1788 JUMP JUMPDEST PUSH1 0x0 PUSH1 0x40 MLOAD DUP1 DUP4 SUB DUP2 PUSH1 0x0 DUP8 DUP1 EXTCODESIZE ISZERO DUP1 ISZERO PUSH2 0xABA JUMPI PUSH1 0x0 DUP1 REVERT JUMPDEST POP GAS CALL ISZERO DUP1 ISZERO PUSH2 0xACE JUMPI RETURNDATASIZE PUSH1 0x0 DUP1 RETURNDATACOPY RETURNDATASIZE PUSH1 0x0 REVERT JUMPDEST POP POP PUSH1 0x40 MLOAD PUSH4 0x7AA9BF6F PUSH1 0xE1 SHL DUP2 MSTORE DUP8 SWAP3 POP PUSH1 0x1 PUSH1 0x1 PUSH1 0xA0 SHL SUB DUP4 AND SWAP2 POP PUSH4 0xF5537EDE SWAP1 PUSH2 0xB04 SWAP1 CALLER SWAP1 ADDRESS SWAP1 DUP9 SWAP1 PUSH1 0x4 ADD PUSH2 0x1788 JUMP JUMPDEST PUSH1 0x0 PUSH1 0x40 MLOAD DUP1 DUP4 SUB DUP2 PUSH1 0x0 DUP8 DUP1 EXTCODESIZE ISZERO DUP1 ISZERO PUSH2 0xB1E JUMPI PUSH1 0x0 DUP1 REVERT JUMPDEST POP GAS CALL ISZERO DUP1 ISZERO PUSH2 0xB32 JUMPI RETURNDATASIZE PUSH1 0x0 DUP1 RETURNDATACOPY RETURNDATASIZE PUSH1 0x0 REVERT JUMPDEST POP POP POP PUSH1 0x0 DUP7 DUP2 MSTORE PUSH1 0x7 PUSH1 0x20 MSTORE PUSH1 0x40 SWAP1 KECCAK256 PUSH1 0x3 DUP2 ADD DUP1 SLOAD PUSH1 0x1 PUSH1 0x1 PUSH1 0xA0 SHL SUB NOT DUP1 DUP3 AND SWAP1 SWAP3 SSTORE PUSH1 0x2 DUP1 DUP5 ADD DUP1 SLOAD PUSH1 0x1 PUSH1 0x1 PUSH1 0xA0 SHL SUB SWAP1 SWAP4 AND SWAP3 SWAP1 SWAP4 AND DUP3 OR SWAP1 SWAP3 SSTORE PUSH1 0x4 DUP4 ADD DUP9 SWAP1 SSTORE PUSH1 0x5 SWAP1 SWAP3 ADD DUP1 SLOAD PUSH3 0xFFFFFF NOT AND SWAP1 SSTORE SWAP1 SWAP2 POP PUSH2 0xB95 SWAP1 PUSH2 0x152B JUMP JUMPDEST PUSH1 0x0 DUP7 DUP2 MSTORE PUSH1 0x7 PUSH1 0x20 SWAP1 DUP2 MSTORE PUSH1 0x40 SWAP2 DUP3 SWAP1 KECCAK256 DUP1 SLOAD PUSH1 0x2 DUP3 ADD SLOAD PUSH1 0x4 SWAP1 SWAP3 ADD SLOAD DUP5 MLOAD PUSH1 0x1 PUSH1 0x1 PUSH1 0xA0 SHL SUB SWAP1 SWAP4 AND DUP4 MSTORE SWAP3 DUP3 ADD SWAP3 SWAP1 SWAP3 MSTORE SWAP1 SWAP2 PUSH32 0x38FD4D603A6B5A395E14B567CF1DFB3698E6379F6426AA7040444FB78D4501B7 SWAP2 ADD PUSH1 0x40 MLOAD DUP1 SWAP2 SUB SWAP1 LOG2 POP POP PUSH1 0x0 DUP1 SLOAD PUSH1 0xFF NOT AND SWAP1 SSTORE POP POP POP POP POP JUMP JUMPDEST PUSH2 0xC12 PUSH2 0x1582 JUMP JUMPDEST PUSH1 0x0 DUP3 DUP2 MSTORE PUSH1 0x7 PUSH1 0x20 SWAP1 DUP2 MSTORE PUSH1 0x40 SWAP2 DUP3 SWAP1 KECCAK256 DUP3 MLOAD PUSH2 0x120 DUP2 ADD DUP5 MSTORE DUP2 SLOAD DUP2 MSTORE PUSH1 0x1 DUP3 ADD SLOAD PUSH1 0x1 PUSH1 0x1 PUSH1 0xA0 SHL SUB SWAP1 DUP2 AND SWAP4 DUP3 ADD SWAP4 SWAP1 SWAP4 MSTORE PUSH1 0x2 DUP1 DUP4 ADD SLOAD DUP5 AND SWAP5 DUP3 ADD SWAP5 SWAP1 SWAP5 MSTORE PUSH1 0x3 DUP3 ADD SLOAD SWAP1 SWAP3 AND PUSH1 0x60 DUP4 ADD MSTORE PUSH1 0x4 DUP2 ADD SLOAD PUSH1 0x80 DUP4 ADD MSTORE PUSH1 0x5 DUP2 ADD SLOAD PUSH1 0xFF DUP1 DUP3 AND ISZERO ISZERO PUSH1 0xA0 DUP6 ADD MSTORE PUSH2 0x100 DUP3 DIV DUP2 AND ISZERO ISZERO PUSH1 0xC0 DUP6 ADD MSTORE SWAP3 SWAP4 SWAP2 SWAP3 PUSH1 0xE0 DUP6 ADD SWAP3 PUSH3 0x10000 SWAP1 SWAP3 DIV AND SWAP1 DUP2 GT ISZERO PUSH2 0xCAE JUMPI PUSH2 0xCAE PUSH2 0x18D3 JUMP JUMPDEST PUSH1 0x2 DUP2 GT ISZERO PUSH2 0xCBF JUMPI PUSH2 0xCBF PUSH2 0x18D3 JUMP JUMPDEST DUP2 MSTORE PUSH1 0x20 ADD PUSH1 0x6 DUP3 ADD SLOAD DUP2 MSTORE POP POP SWAP1 POP SWAP2 SWAP1 POP JUMP JUMPDEST PUSH1 0x0 SLOAD PUSH3 0x10000 SWAP1 DIV PUSH1 0xFF AND ISZERO DUP1 DUP1 ISZERO PUSH2 0xCF9 JUMPI POP PUSH1 0x0 SLOAD PUSH1 0x1 PUSH2 0x100 SWAP1 SWAP2 DIV PUSH1 0xFF AND LT JUMPDEST DUP1 PUSH2 0xD19 JUMPI POP ADDRESS EXTCODESIZE ISZERO DUP1 ISZERO PUSH2 0xD19 JUMPI POP PUSH1 0x0 SLOAD PUSH1 0xFF PUSH2 0x100 SWAP1 SWAP2 DIV AND PUSH1 0x1 EQ JUMPDEST PUSH2 0xD7C JUMPI PUSH1 0x40 MLOAD PUSH3 0x461BCD PUSH1 0xE5 SHL DUP2 MSTORE PUSH1 0x20 PUSH1 0x4 DUP3 ADD MSTORE PUSH1 0x2E PUSH1 0x24 DUP3 ADD MSTORE PUSH32 0x496E697469616C697A61626C653A20636F6E747261637420697320616C726561 PUSH1 0x44 DUP3 ADD MSTORE PUSH14 0x191E481A5B9A5D1A585B1A5E9959 PUSH1 0x92 SHL PUSH1 0x64 DUP3 ADD MSTORE PUSH1 0x84 ADD PUSH2 0x2DC JUMP JUMPDEST PUSH1 0x0 DUP1 SLOAD PUSH2 0xFF00 NOT AND PUSH2 0x100 OR SWAP1 SSTORE DUP1 ISZERO PUSH2 0xDA3 JUMPI PUSH1 0x0 DUP1 SLOAD PUSH3 0xFF0000 NOT AND PUSH3 0x10000 OR SWAP1 SSTORE JUMPDEST PUSH1 0x4 DUP1 SLOAD PUSH1 0x1 PUSH1 0x1 PUSH1 0xA0 SHL SUB NOT AND CALLER OR SWAP1 SSTORE PUSH1 0x1 PUSH1 0x6 SSTORE DUP1 ISZERO PUSH2 0xE01 JUMPI PUSH1 0x0 DUP1 SLOAD PUSH3 0xFF0000 NOT AND SWAP1 SSTORE PUSH1 0x40 MLOAD PUSH1 0x1 DUP2 MSTORE PUSH32 0x7F26B83FF96E1F2B6A682F133852F6798A09C465DA95921460CEFB3847402498 SWAP1 PUSH1 0x20 ADD PUSH1 0x40 MLOAD DUP1 SWAP2 SUB SWAP1 LOG1 JUMPDEST POP JUMP JUMPDEST PUSH1 0x0 PUSH1 0x64 PUSH1 0x6 SLOAD PUSH1 0x64 PUSH2 0xE17 SWAP2 SWAP1 PUSH2 0x1832 JUMP JUMPDEST PUSH2 0xE21 SWAP1 DUP5 PUSH2 0x186C JUMP JUMPDEST PUSH2 0xE2B SWAP2 SWAP1 PUSH2 0x184A JUMP JUMPDEST SWAP3 SWAP2 POP POP JUMP JUMPDEST PUSH1 0x0 PUSH1 0x64 PUSH1 0x6 SLOAD PUSH1 0x64 PUSH2 0xE44 SWAP2 SWAP1 PUSH2 0x1832 JUMP JUMPDEST PUSH1 0x0 DUP5 DUP2 MSTORE PUSH1 0x7 PUSH1 0x20 MSTORE PUSH1 0x40 SWAP1 KECCAK256 PUSH1 0x4 ADD SLOAD PUSH2 0xE21 SWAP2 SWAP1 PUSH2 0x186C JUMP JUMPDEST PUSH1 0x0 SLOAD PUSH1 0xFF AND ISZERO PUSH2 0xE83 JUMPI PUSH1 0x40 MLOAD PUSH3 0x461BCD PUSH1 0xE5 SHL DUP2 MSTORE PUSH1 0x4 ADD PUSH2 0x2DC SWAP1 PUSH2 0x17FB JUMP JUMPDEST PUSH1 0x0 DUP1 SLOAD PUSH1 0xFF NOT AND PUSH1 0x1 OR DUP2 SSTORE DUP2 DUP2 MSTORE PUSH1 0x7 PUSH1 0x20 MSTORE PUSH1 0x40 SWAP1 KECCAK256 PUSH1 0x5 ADD SLOAD PUSH1 0xFF AND ISZERO PUSH2 0xEE4 JUMPI PUSH1 0x40 MLOAD PUSH3 0x461BCD PUSH1 0xE5 SHL DUP2 MSTORE PUSH1 0x20 PUSH1 0x4 DUP3 ADD MSTORE PUSH1 0x11 PUSH1 0x24 DUP3 ADD MSTORE PUSH17 0x1A5D195B48185B1C9958591E481CDBDB19 PUSH1 0x7A SHL PUSH1 0x44 DUP3 ADD MSTORE PUSH1 0x64 ADD PUSH2 0x2DC JUMP JUMPDEST PUSH1 0x0 PUSH2 0xEEF DUP3 PUSH2 0xE31 JUMP JUMPDEST PUSH1 0x40 MLOAD PUSH4 0x31A9108F PUSH1 0xE1 SHL DUP2 MSTORE PUSH1 0x4 DUP2 ADD DUP5 SWAP1 MSTORE SWAP1 SWAP2 POP DUP4 SWAP1 PUSH1 0x0 SWAP1 PUSH1 0x1 PUSH1 0x1 PUSH1 0xA0 SHL SUB DUP4 AND SWAP1 PUSH4 0x6352211E SWAP1 PUSH1 0x24 ADD PUSH1 0x20 PUSH1 0x40 MLOAD DUP1 DUP4 SUB DUP2 DUP7 DUP1 EXTCODESIZE ISZERO DUP1 ISZERO PUSH2 0xF37 JUMPI PUSH1 0x0 DUP1 REVERT JUMPDEST POP GAS STATICCALL ISZERO DUP1 ISZERO PUSH2 0xF4B JUMPI RETURNDATASIZE PUSH1 0x0 DUP1 RETURNDATACOPY RETURNDATASIZE PUSH1 0x0 REVERT JUMPDEST POP POP POP POP PUSH1 0x40 MLOAD RETURNDATASIZE PUSH1 0x1F NOT PUSH1 0x1F DUP3 ADD AND DUP3 ADD DUP1 PUSH1 0x40 MSTORE POP DUP2 ADD SWAP1 PUSH2 0xF6F SWAP2 SWAP1 PUSH2 0x15CE JUMP JUMPDEST SWAP1 POP PUSH1 0x1 PUSH1 0x1 PUSH1 0xA0 SHL SUB DUP2 AND ADDRESS EQ PUSH2 0x1020 JUMPI PUSH1 0x0 DUP2 PUSH1 0x1 PUSH1 0x1 PUSH1 0xA0 SHL SUB AND CALLVALUE PUSH2 0x3E8 SWAP1 PUSH1 0x40 MLOAD PUSH1 0x0 PUSH1 0x40 MLOAD DUP1 DUP4 SUB DUP2 DUP6 DUP9 DUP9 CALL SWAP4 POP POP POP POP RETURNDATASIZE DUP1 PUSH1 0x0 DUP2 EQ PUSH2 0xFD3 JUMPI PUSH1 0x40 MLOAD SWAP2 POP PUSH1 0x1F NOT PUSH1 0x3F RETURNDATASIZE ADD AND DUP3 ADD PUSH1 0x40 MSTORE RETURNDATASIZE DUP3 MSTORE RETURNDATASIZE PUSH1 0x0 PUSH1 0x20 DUP5 ADD RETURNDATACOPY PUSH2 0xFD8 JUMP JUMPDEST PUSH1 0x60 SWAP2 POP JUMPDEST POP POP SWAP1 POP DUP1 PUSH2 0x101A JUMPI PUSH1 0x40 MLOAD PUSH3 0x461BCD PUSH1 0xE5 SHL DUP2 MSTORE PUSH1 0x20 PUSH1 0x4 DUP3 ADD MSTORE PUSH1 0xE PUSH1 0x24 DUP3 ADD MSTORE PUSH14 0x11985A5B1959081D1BC81CD95B99 PUSH1 0x92 SHL PUSH1 0x44 DUP3 ADD MSTORE PUSH1 0x64 ADD PUSH2 0x2DC JUMP JUMPDEST POP PUSH2 0x10C9 JUMP JUMPDEST PUSH1 0x0 DUP5 DUP2 MSTORE PUSH1 0x7 PUSH1 0x20 MSTORE PUSH1 0x40 DUP1 DUP3 KECCAK256 PUSH1 0x2 ADD SLOAD SWAP1 MLOAD PUSH1 0x1 PUSH1 0x1 PUSH1 0xA0 SHL SUB SWAP1 SWAP2 AND SWAP1 PUSH2 0x3E8 SWAP1 CALLVALUE SWAP1 DUP5 DUP2 DUP2 DUP2 DUP6 DUP9 DUP9 CALL SWAP4 POP POP POP POP RETURNDATASIZE DUP1 PUSH1 0x0 DUP2 EQ PUSH2 0x1080 JUMPI PUSH1 0x40 MLOAD SWAP2 POP PUSH1 0x1F NOT PUSH1 0x3F RETURNDATASIZE ADD AND DUP3 ADD PUSH1 0x40 MSTORE RETURNDATASIZE DUP3 MSTORE RETURNDATASIZE PUSH1 0x0 PUSH1 0x20 DUP5 ADD RETURNDATACOPY PUSH2 0x1085 JUMP JUMPDEST PUSH1 0x60 SWAP2 POP JUMPDEST POP POP SWAP1 POP DUP1 PUSH2 0x10C7 JUMPI PUSH1 0x40 MLOAD PUSH3 0x461BCD PUSH1 0xE5 SHL DUP2 MSTORE PUSH1 0x20 PUSH1 0x4 DUP3 ADD MSTORE PUSH1 0xE PUSH1 0x24 DUP3 ADD MSTORE PUSH14 0x11985A5B1959081D1BC81CD95B99 PUSH1 0x92 SHL PUSH1 0x44 DUP3 ADD MSTORE PUSH1 0x64 ADD PUSH2 0x2DC JUMP JUMPDEST POP JUMPDEST PUSH1 0x0 DUP5 DUP2 MSTORE PUSH1 0x7 PUSH1 0x20 MSTORE PUSH1 0x40 DUP1 DUP3 KECCAK256 PUSH1 0x2 ADD SLOAD SWAP1 MLOAD PUSH1 0x1 PUSH1 0x1 PUSH1 0xA0 SHL SUB SWAP1 SWAP2 AND SWAP2 CALLVALUE DUP1 ISZERO PUSH2 0x8FC MUL SWAP3 SWAP1 SWAP2 DUP2 DUP2 DUP2 DUP6 DUP9 DUP9 CALL SWAP4 POP POP POP POP ISZERO DUP1 ISZERO PUSH2 0x1111 JUMPI RETURNDATASIZE PUSH1 0x0 DUP1 RETURNDATACOPY RETURNDATASIZE PUSH1 0x0 REVERT JUMPDEST POP PUSH1 0x4 DUP1 SLOAD PUSH1 0x0 DUP7 DUP2 MSTORE PUSH1 0x7 PUSH1 0x20 MSTORE PUSH1 0x40 SWAP1 KECCAK256 SWAP1 SWAP2 ADD SLOAD PUSH1 0x1 PUSH1 0x1 PUSH1 0xA0 SHL SUB SWAP1 SWAP2 AND SWAP1 PUSH2 0x8FC SWAP1 PUSH2 0x1142 SWAP1 DUP7 PUSH2 0x188B JUMP JUMPDEST PUSH1 0x40 MLOAD DUP2 ISZERO SWAP1 SWAP3 MUL SWAP2 PUSH1 0x0 DUP2 DUP2 DUP2 DUP6 DUP9 DUP9 CALL SWAP4 POP POP POP POP ISZERO DUP1 ISZERO PUSH2 0x116A JUMPI RETURNDATASIZE PUSH1 0x0 DUP1 RETURNDATACOPY RETURNDATASIZE PUSH1 0x0 REVERT JUMPDEST POP PUSH2 0x1179 PUSH1 0x2 DUP1 SLOAD PUSH1 0x1 ADD SWAP1 SSTORE JUMP JUMPDEST PUSH1 0x0 DUP5 DUP2 MSTORE PUSH1 0x7 PUSH1 0x20 MSTORE PUSH1 0x40 SWAP1 DUP2 SWAP1 KECCAK256 SLOAD SWAP1 MLOAD PUSH4 0x23B872DD PUSH1 0xE0 SHL DUP2 MSTORE PUSH1 0x1 PUSH1 0x1 PUSH1 0xA0 SHL SUB DUP8 AND SWAP2 PUSH4 0x23B872DD SWAP2 PUSH2 0x11B8 SWAP2 ADDRESS SWAP2 CALLER SWAP2 SWAP1 PUSH1 0x4 ADD PUSH2 0x1788 JUMP JUMPDEST PUSH1 0x0 PUSH1 0x40 MLOAD DUP1 DUP4 SUB DUP2 PUSH1 0x0 DUP8 DUP1 EXTCODESIZE ISZERO DUP1 ISZERO PUSH2 0x11D2 JUMPI PUSH1 0x0 DUP1 REVERT JUMPDEST POP GAS CALL ISZERO DUP1 ISZERO PUSH2 0x11E6 JUMPI RETURNDATASIZE PUSH1 0x0 DUP1 RETURNDATACOPY RETURNDATASIZE PUSH1 0x0 REVERT JUMPDEST POP POP POP PUSH1 0x0 DUP6 DUP2 MSTORE PUSH1 0x7 PUSH1 0x20 SWAP1 DUP2 MSTORE PUSH1 0x40 DUP1 DUP4 KECCAK256 PUSH1 0x3 DUP2 ADD DUP1 SLOAD CALLER PUSH1 0x1 PUSH1 0x1 PUSH1 0xA0 SHL SUB NOT SWAP1 SWAP2 AND DUP2 OR SWAP1 SWAP2 SSTORE PUSH1 0x5 DUP3 ADD DUP1 SLOAD PUSH3 0x10001 PUSH3 0xFFFFFF NOT SWAP1 SWAP2 AND OR SWAP1 SSTORE TIMESTAMP PUSH1 0x6 DUP4 ADD DUP2 SWAP1 SSTORE DUP3 SLOAD PUSH1 0x4 SWAP1 SWAP4 ADD SLOAD DUP5 MLOAD DUP8 DUP2 MSTORE SWAP6 DUP7 ADD SWAP3 SWAP1 SWAP3 MSTORE SWAP3 DUP5 ADD MSTORE PUSH1 0x1 PUSH1 0x60 DUP5 ADD MSTORE PUSH1 0x80 DUP4 ADD SWAP4 SWAP1 SWAP4 MSTORE PUSH1 0xA0 DUP3 ADD MSTORE SWAP1 SWAP2 POP PUSH32 0x7752124F116BBB96319AD16CD4F3B15C653914AAD26EA3E4B6024B7D0DCF5D7 SWAP1 PUSH1 0xC0 ADD PUSH1 0x40 MLOAD DUP1 SWAP2 SUB SWAP1 LOG2 POP POP PUSH1 0x0 DUP1 SLOAD PUSH1 0xFF NOT AND SWAP1 SSTORE POP POP POP JUMP JUMPDEST PUSH1 0x0 DUP2 PUSH2 0x12A8 DUP4 PUSH2 0xE04 JUMP JUMPDEST PUSH2 0xE2B SWAP2 SWAP1 PUSH2 0x188B JUMP JUMPDEST PUSH1 0x0 SLOAD PUSH1 0xFF AND ISZERO PUSH2 0x12D5 JUMPI PUSH1 0x40 MLOAD PUSH3 0x461BCD PUSH1 0xE5 SHL DUP2 MSTORE PUSH1 0x4 ADD PUSH2 0x2DC SWAP1 PUSH2 0x17FB JUMP JUMPDEST PUSH1 0x0 DUP1 SLOAD PUSH1 0xFF NOT AND PUSH1 0x1 OR SWAP1 SSTORE DUP1 PUSH2 0x131C JUMPI PUSH1 0x40 MLOAD PUSH3 0x461BCD PUSH1 0xE5 SHL DUP2 MSTORE PUSH1 0x20 PUSH1 0x4 DUP3 ADD MSTORE PUSH1 0xA PUSH1 0x24 DUP3 ADD MSTORE PUSH10 0x5072696365203D3D203 PUSH1 0xB4 SHL PUSH1 0x44 DUP3 ADD MSTORE PUSH1 0x64 ADD PUSH2 0x2DC JUMP JUMPDEST PUSH1 0x5 SLOAD CALLVALUE EQ PUSH2 0x1366 JUMPI PUSH1 0x40 MLOAD PUSH3 0x461BCD PUSH1 0xE5 SHL DUP2 MSTORE PUSH1 0x20 PUSH1 0x4 DUP3 ADD MSTORE PUSH1 0x16 PUSH1 0x24 DUP3 ADD MSTORE PUSH22 0x507269636520213D206C697374696E67207072696365 PUSH1 0x50 SHL PUSH1 0x44 DUP3 ADD MSTORE PUSH1 0x64 ADD PUSH2 0x2DC JUMP JUMPDEST PUSH1 0x0 JUMPDEST DUP3 DUP2 LT ISZERO PUSH2 0x151B JUMPI PUSH2 0x137F PUSH1 0x1 DUP1 SLOAD PUSH1 0x1 ADD SWAP1 SSTORE JUMP JUMPDEST PUSH1 0x0 PUSH2 0x138A PUSH1 0x1 SLOAD SWAP1 JUMP JUMPDEST PUSH1 0x40 DUP1 MLOAD PUSH2 0x120 DUP2 ADD DUP3 MSTORE DUP3 DUP2 MSTORE PUSH1 0x1 PUSH1 0x1 PUSH1 0xA0 SHL SUB DUP9 DUP2 AND PUSH1 0x20 DUP1 DUP5 ADD SWAP2 DUP3 MSTORE CALLER DUP5 DUP7 ADD SWAP1 DUP2 MSTORE PUSH1 0x0 PUSH1 0x60 DUP7 ADD DUP2 DUP2 MSTORE PUSH1 0x80 DUP8 ADD DUP13 DUP2 MSTORE PUSH1 0xA0 DUP9 ADD DUP4 DUP2 MSTORE PUSH1 0xC0 DUP10 ADD DUP5 DUP2 MSTORE PUSH1 0xE0 DUP11 ADD DUP6 DUP2 MSTORE TIMESTAMP PUSH2 0x100 DUP1 DUP14 ADD SWAP2 SWAP1 SWAP2 MSTORE DUP14 DUP8 MSTORE PUSH1 0x7 SWAP1 SWAP9 MSTORE SWAP11 SWAP1 SWAP5 KECCAK256 DUP10 MLOAD DUP2 SSTORE SWAP7 MLOAD PUSH1 0x1 DUP9 ADD DUP1 SLOAD SWAP2 DUP11 AND PUSH1 0x1 PUSH1 0x1 PUSH1 0xA0 SHL SUB NOT SWAP3 DUP4 AND OR SWAP1 SSTORE SWAP5 MLOAD PUSH1 0x2 DUP1 DUP10 ADD DUP1 SLOAD SWAP3 DUP12 AND SWAP3 DUP9 AND SWAP3 SWAP1 SWAP3 OR SWAP1 SWAP2 SSTORE SWAP3 MLOAD PUSH1 0x3 DUP9 ADD DUP1 SLOAD SWAP2 SWAP1 SWAP10 AND SWAP6 AND SWAP5 SWAP1 SWAP5 OR SWAP1 SWAP7 SSTORE SWAP5 MLOAD PUSH1 0x4 DUP6 ADD SSTORE SWAP1 MLOAD PUSH1 0x5 DUP5 ADD DUP1 SLOAD SWAP3 MLOAD ISZERO ISZERO SWAP1 SWAP4 MUL PUSH2 0xFF00 NOT SWAP2 ISZERO ISZERO SWAP2 SWAP1 SWAP2 AND PUSH2 0xFFFF NOT SWAP1 SWAP3 AND SWAP2 SWAP1 SWAP2 OR OR DUP1 DUP3 SSTORE SWAP5 MLOAD SWAP6 SWAP7 POP SWAP3 SWAP5 SWAP1 SWAP4 SWAP1 SWAP3 SWAP2 PUSH3 0xFF0000 NOT SWAP1 SWAP2 AND SWAP1 PUSH3 0x10000 SWAP1 DUP5 SWAP1 DUP2 GT ISZERO PUSH2 0x1492 JUMPI PUSH2 0x1492 PUSH2 0x18D3 JUMP JUMPDEST MUL OR SWAP1 SSTORE POP PUSH2 0x100 SWAP2 SWAP1 SWAP2 ADD MLOAD PUSH1 0x6 SWAP1 SWAP2 ADD SSTORE PUSH1 0x40 MLOAD PUSH4 0x23B872DD PUSH1 0xE0 SHL DUP2 MSTORE PUSH1 0x1 PUSH1 0x1 PUSH1 0xA0 SHL SUB DUP7 AND SWAP1 PUSH4 0x23B872DD SWAP1 PUSH2 0x14D5 SWAP1 CALLER SWAP1 ADDRESS SWAP1 DUP7 SWAP1 PUSH1 0x4 ADD PUSH2 0x1788 JUMP JUMPDEST PUSH1 0x0 PUSH1 0x40 MLOAD DUP1 DUP4 SUB DUP2 PUSH1 0x0 DUP8 DUP1 EXTCODESIZE ISZERO DUP1 ISZERO PUSH2 0x14EF JUMPI PUSH1 0x0 DUP1 REVERT JUMPDEST POP GAS CALL ISZERO DUP1 ISZERO PUSH2 0x1503 JUMPI RETURNDATASIZE PUSH1 0x0 DUP1 RETURNDATACOPY RETURNDATASIZE PUSH1 0x0 REVERT JUMPDEST POP POP POP POP POP DUP1 DUP1 PUSH2 0x1513 SWAP1 PUSH2 0x18A2 JUMP JUMPDEST SWAP2 POP POP PUSH2 0x1369 JUMP JUMPDEST POP POP PUSH1 0x0 DUP1 SLOAD PUSH1 0xFF NOT AND SWAP1 SSTORE POP POP JUMP JUMPDEST DUP1 SLOAD DUP1 PUSH2 0x157A JUMPI PUSH1 0x40 MLOAD PUSH3 0x461BCD PUSH1 0xE5 SHL DUP2 MSTORE PUSH1 0x20 PUSH1 0x4 DUP3 ADD MSTORE PUSH1 0x1B PUSH1 0x24 DUP3 ADD MSTORE PUSH32 0x436F756E7465723A2064656372656D656E74206F766572666C6F770000000000 PUSH1 0x44 DUP3 ADD MSTORE PUSH1 0x64 ADD PUSH2 0x2DC JUMP JUMPDEST PUSH1 0x0 NOT ADD SWAP1 SSTORE JUMP JUMPDEST PUSH1 0x40 DUP1 MLOAD PUSH2 0x120 DUP2 ADD DUP3 MSTORE PUSH1 0x0 DUP1 DUP3 MSTORE PUSH1 0x20 DUP3 ADD DUP2 SWAP1 MSTORE SWAP2 DUP2 ADD DUP3 SWAP1 MSTORE PUSH1 0x60 DUP2 ADD DUP3 SWAP1 MSTORE PUSH1 0x80 DUP2 ADD DUP3 SWAP1 MSTORE PUSH1 0xA0 DUP2 ADD DUP3 SWAP1 MSTORE PUSH1 0xC0 DUP2 ADD DUP3 SWAP1 MSTORE SWAP1 PUSH1 0xE0 DUP3 ADD SWAP1 DUP2 MSTORE PUSH1 0x20 ADD PUSH1 0x0 DUP2 MSTORE POP SWAP1 JUMP JUMPDEST PUSH1 0x0 PUSH1 0x20 DUP3 DUP5 SUB SLT ISZERO PUSH2 0x15E0 JUMPI PUSH1 0x0 DUP1 REVERT JUMPDEST DUP2 MLOAD PUSH2 0x15EB DUP2 PUSH2 0x1915 JUMP JUMPDEST SWAP4 SWAP3 POP POP POP JUMP JUMPDEST PUSH1 0x0 DUP1 PUSH1 0x40 DUP4 DUP6 SUB SLT ISZERO PUSH2 0x1605 JUMPI PUSH1 0x0 DUP1 REVERT JUMPDEST DUP3 CALLDATALOAD PUSH2 0x1610 DUP2 PUSH2 0x1915 JUMP JUMPDEST SWAP5 PUSH1 0x20 SWAP4 SWAP1 SWAP4 ADD CALLDATALOAD SWAP4 POP POP POP JUMP JUMPDEST PUSH1 0x0 DUP1 PUSH1 0x0 PUSH1 0x60 DUP5 DUP7 SUB SLT ISZERO PUSH2 0x1633 JUMPI PUSH1 0x0 DUP1 REVERT JUMPDEST DUP4 CALLDATALOAD PUSH2 0x163E DUP2 PUSH2 0x1915 JUMP JUMPDEST SWAP6 PUSH1 0x20 DUP6 ADD CALLDATALOAD SWAP6 POP PUSH1 0x40 SWAP1 SWAP5 ADD CALLDATALOAD SWAP4 SWAP3 POP POP POP JUMP JUMPDEST PUSH1 0x0 DUP1 PUSH1 0x0 DUP1 PUSH1 0x80 DUP6 DUP8 SUB SLT ISZERO PUSH2 0x1669 JUMPI PUSH1 0x0 DUP1 REVERT JUMPDEST DUP5 CALLDATALOAD PUSH2 0x1674 DUP2 PUSH2 0x1915 JUMP JUMPDEST SWAP4 POP PUSH1 0x20 DUP6 ADD CALLDATALOAD SWAP3 POP PUSH1 0x40 DUP6 ADD CALLDATALOAD SWAP2 POP PUSH1 0x60 DUP6 ADD CALLDATALOAD PUSH2 0x1692 DUP2 PUSH2 0x1915 JUMP JUMPDEST SWAP4 SWAP7 SWAP3 SWAP6 POP SWAP1 SWAP4 POP POP JUMP JUMPDEST PUSH1 0x0 PUSH1 0x20 DUP3 DUP5 SUB SLT ISZERO PUSH2 0x16AF JUMPI PUSH1 0x0 DUP1 REVERT JUMPDEST POP CALLDATALOAD SWAP2 SWAP1 POP JUMP JUMPDEST PUSH1 0x3 DUP2 LT PUSH2 0x16D4 JUMPI PUSH4 0x4E487B71 PUSH1 0xE0 SHL PUSH1 0x0 MSTORE PUSH1 0x21 PUSH1 0x4 MSTORE PUSH1 0x24 PUSH1 0x0 REVERT JUMPDEST SWAP1 MSTORE JUMP JUMPDEST DUP1 MLOAD DUP3 MSTORE PUSH1 0x20 DUP2 ADD MLOAD PUSH1 0x1 DUP1 PUSH1 0xA0 SHL SUB DUP1 DUP3 AND PUSH1 0x20 DUP6 ADD MSTORE DUP1 PUSH1 0x40 DUP5 ADD MLOAD AND PUSH1 0x40 DUP6 ADD MSTORE DUP1 PUSH1 0x60 DUP5 ADD MLOAD AND PUSH1 0x60 DUP6 ADD MSTORE POP POP PUSH1 0x80 DUP2 ADD MLOAD PUSH1 0x80 DUP4 ADD MSTORE PUSH1 0xA0 DUP2 ADD MLOAD PUSH2 0x1727 PUSH1 0xA0 DUP5 ADD DUP3 ISZERO ISZERO SWAP1 MSTORE JUMP JUMPDEST POP PUSH1 0xC0 DUP2 ADD MLOAD PUSH2 0x173B PUSH1 0xC0 DUP5 ADD DUP3 ISZERO ISZERO SWAP1 MSTORE JUMP JUMPDEST POP PUSH1 0xE0 DUP2 ADD MLOAD PUSH2 0x174E PUSH1 0xE0 DUP5 ADD DUP3 PUSH2 0x16B6 JUMP JUMPDEST POP PUSH2 0x100 SWAP1 DUP2 ADD MLOAD SWAP2 ADD MSTORE JUMP JUMPDEST PUSH1 0x1 PUSH1 0x1 PUSH1 0xA0 SHL SUB DUP5 DUP2 AND DUP3 MSTORE DUP4 AND PUSH1 0x20 DUP3 ADD MSTORE PUSH1 0x60 DUP2 ADD PUSH2 0x1780 PUSH1 0x40 DUP4 ADD DUP5 PUSH2 0x16B6 JUMP JUMPDEST SWAP5 SWAP4 POP POP POP POP JUMP JUMPDEST PUSH1 0x1 PUSH1 0x1 PUSH1 0xA0 SHL SUB SWAP4 DUP5 AND DUP2 MSTORE SWAP2 SWAP1 SWAP3 AND PUSH1 0x20 DUP3 ADD MSTORE PUSH1 0x40 DUP2 ADD SWAP2 SWAP1 SWAP2 MSTORE PUSH1 0x60 ADD SWAP1 JUMP JUMPDEST PUSH1 0x20 DUP1 DUP3 MSTORE DUP3 MLOAD DUP3 DUP3 ADD DUP2 SWAP1 MSTORE PUSH1 0x0 SWAP2 SWAP1 DUP5 DUP3 ADD SWAP1 PUSH1 0x40 DUP6 ADD SWAP1 DUP5 JUMPDEST DUP2 DUP2 LT ISZERO PUSH2 0x17EF JUMPI PUSH2 0x17DB DUP4 DUP6 MLOAD PUSH2 0x16D8 JUMP JUMPDEST SWAP3 DUP5 ADD SWAP3 PUSH2 0x120 SWAP3 SWAP1 SWAP3 ADD SWAP2 PUSH1 0x1 ADD PUSH2 0x17C8 JUMP JUMPDEST POP SWAP1 SWAP7 SWAP6 POP POP POP POP POP POP JUMP JUMPDEST PUSH1 0x20 DUP1 DUP3 MSTORE PUSH1 0xE SWAP1 DUP3 ADD MSTORE PUSH14 0x4E6F2072652D656E7472616E6379 PUSH1 0x90 SHL PUSH1 0x40 DUP3 ADD MSTORE PUSH1 0x60 ADD SWAP1 JUMP JUMPDEST PUSH2 0x120 DUP2 ADD PUSH2 0xE2B DUP3 DUP5 PUSH2 0x16D8 JUMP JUMPDEST PUSH1 0x0 DUP3 NOT DUP3 GT ISZERO PUSH2 0x1845 JUMPI PUSH2 0x1845 PUSH2 0x18BD JUMP JUMPDEST POP ADD SWAP1 JUMP JUMPDEST PUSH1 0x0 DUP3 PUSH2 0x1867 JUMPI PUSH4 0x4E487B71 PUSH1 0xE0 SHL PUSH1 0x0 MSTORE PUSH1 0x12 PUSH1 0x4 MSTORE PUSH1 0x24 PUSH1 0x0 REVERT JUMPDEST POP DIV SWAP1 JUMP JUMPDEST PUSH1 0x0 DUP2 PUSH1 0x0 NOT DIV DUP4 GT DUP3 ISZERO ISZERO AND ISZERO PUSH2 0x1886 JUMPI PUSH2 0x1886 PUSH2 0x18BD JUMP JUMPDEST POP MUL SWAP1 JUMP JUMPDEST PUSH1 0x0 DUP3 DUP3 LT ISZERO PUSH2 0x189D JUMPI PUSH2 0x189D PUSH2 0x18BD JUMP JUMPDEST POP SUB SWAP1 JUMP JUMPDEST PUSH1 0x0 PUSH1 0x0 NOT DUP3 EQ ISZERO PUSH2 0x18B6 JUMPI PUSH2 0x18B6 PUSH2 0x18BD JUMP JUMPDEST POP PUSH1 0x1 ADD SWAP1 JUMP JUMPDEST PUSH4 0x4E487B71 PUSH1 0xE0 SHL PUSH1 0x0 MSTORE PUSH1 0x11 PUSH1 0x4 MSTORE PUSH1 0x24 PUSH1 0x0 REVERT JUMPDEST PUSH4 0x4E487B71 PUSH1 0xE0 SHL PUSH1 0x0 MSTORE PUSH1 0x21 PUSH1 0x4 MSTORE PUSH1 0x24 PUSH1 0x0 REVERT JUMPDEST PUSH4 0x4E487B71 PUSH1 0xE0 SHL PUSH1 0x0 MSTORE PUSH1 0x32 PUSH1 0x4 MSTORE PUSH1 0x24 PUSH1 0x0 REVERT JUMPDEST PUSH4 0x4E487B71 PUSH1 0xE0 SHL PUSH1 0x0 MSTORE PUSH1 0x41 PUSH1 0x4 MSTORE PUSH1 0x24 PUSH1 0x0 REVERT JUMPDEST PUSH1 0x1 PUSH1 0x1 PUSH1 0xA0 SHL SUB DUP2 AND DUP2 EQ PUSH2 0xE01 JUMPI PUSH1 0x0 DUP1 REVERT INVALID LOG2 PUSH5 0x6970667358 0x22 SLT KECCAK256 PUSH14 0x1996D15B4A2550F701F6CA4066F9 0xCF 0xC9 0xB1 0xCF PUSH21 0xA1E4E27EB7D00B87D20AB75964736F6C6343000807 STOP CALLER "
		},
		"gasEstimates": {
			"creation": {
				"codeDepositCost": "1299200",
				"executionCost": "1349",
				"totalCost": "1300549"
			},
			"external": {
				"buy(address,uint256)": "infinite",
				"cancelSell(uint256)": "infinite",
				"changePrice(address,uint256,uint256)": "infinite",
				"createGround(address,uint256,uint256)": "infinite",
				"feeAccount()": "2360",
				"feePercent()": "2318",
				"fetchAllGrounds()": "infinite",
				"fetchGround(uint256)": "16224",
				"getCommissionPrcie(uint256)": "infinite",
				"getFeePercent()": "2381",
				"getTotalNewPrice(uint256)": "2689",
				"getTotalPrice(uint256)": "4819",
				"initialize()": "129360",
				"putItemToResell(address,uint256,uint256,address)": "infinite",
				"setFeePercet(uint256)": "22380"
			}
		},
		"methodIdentifiers": {
			"buy(address,uint256)": "cce7ec13",
			"cancelSell(uint256)": "07c9cd45",
			"changePrice(address,uint256,uint256)": "741cbae4",
			"createGround(address,uint256,uint256)": "d93cdea0",
			"feeAccount()": "65e17c9d",
			"feePercent()": "7fd6f15c",
			"fetchAllGrounds()": "13b4935a",
			"fetchGround(uint256)": "75ec68a9",
			"getCommissionPrcie(uint256)": "d8401b6f",
			"getFeePercent()": "be74264d",
			"getTotalNewPrice(uint256)": "9bc704dc",
			"getTotalPrice(uint256)": "ca7dd375",
			"initialize()": "8129fc1c",
			"putItemToResell(address,uint256,uint256,address)": "6781ea59",
			"setFeePercet(uint256)": "354bfb8b"
		}
	},
	"abi": [
		{
			"anonymous": false,
			"inputs": [
				{
					"indexed": true,
					"internalType": "uint256",
					"name": "groundId",
					"type": "uint256"
				},
				{
					"indexed": false,
					"internalType": "address",
					"name": "seller",
					"type": "address"
				},
				{
					"indexed": false,
					"internalType": "address",
					"name": "owner",
					"type": "address"
				},
				{
					"indexed": false,
					"internalType": "uint256",
					"name": "price",
					"type": "uint256"
				},
				{
					"indexed": false,
					"internalType": "bool",
					"name": "sold",
					"type": "bool"
				},
				{
					"indexed": false,
					"internalType": "bool",
					"name": "cancel",
					"type": "bool"
				},
				{
					"indexed": false,
					"internalType": "uint256",
					"name": "timeStamp",
					"type": "uint256"
				}
			],
			"name": "Buy",
			"type": "event"
		},
		{
			"anonymous": false,
			"inputs": [
				{
					"indexed": true,
					"internalType": "uint256",
					"name": "groundId",
					"type": "uint256"
				},
				{
					"indexed": false,
					"internalType": "address",
					"name": "_seller",
					"type": "address"
				},
				{
					"indexed": false,
					"internalType": "uint256",
					"name": "price",
					"type": "uint256"
				}
			],
			"name": "ChangePrice",
			"type": "event"
		},
		{
			"anonymous": false,
			"inputs": [
				{
					"indexed": true,
					"internalType": "uint256",
					"name": "groundId",
					"type": "uint256"
				},
				{
					"indexed": false,
					"internalType": "address",
					"name": "_from",
					"type": "address"
				},
				{
					"indexed": false,
					"internalType": "address",
					"name": "_to",
					"type": "address"
				},
				{
					"indexed": false,
					"internalType": "enum Water.Status",
					"name": "status",
					"type": "uint8"
				}
			],
			"name": "ChangeStatus",
			"type": "event"
		},
		{
			"anonymous": false,
			"inputs": [
				{
					"indexed": false,
					"internalType": "uint8",
					"name": "version",
					"type": "uint8"
				}
			],
			"name": "Initialized",
			"type": "event"
		},
		{
			"inputs": [
				{
					"internalType": "address",
					"name": "nftContract",
					"type": "address"
				},
				{
					"internalType": "uint256",
					"name": "groundId",
					"type": "uint256"
				}
			],
			"name": "buy",
			"outputs": [],
			"stateMutability": "payable",
			"type": "function"
		},
		{
			"inputs": [
				{
					"internalType": "uint256",
					"name": "groundId",
					"type": "uint256"
				}
			],
			"name": "cancelSell",
			"outputs": [],
			"stateMutability": "nonpayable",
			"type": "function"
		},
		{
			"inputs": [
				{
					"internalType": "address",
					"name": "nftContract",
					"type": "address"
				},
				{
					"internalType": "uint256",
					"name": "groundId",
					"type": "uint256"
				},
				{
					"internalType": "uint256",
					"name": "newPrice",
					"type": "uint256"
				}
			],
			"name": "changePrice",
			"outputs": [],
			"stateMutability": "payable",
			"type": "function"
		},
		{
			"inputs": [
				{
					"internalType": "address",
					"name": "nftContract",
					"type": "address"
				},
				{
					"internalType": "uint256",
					"name": "mintAmount",
					"type": "uint256"
				},
				{
					"internalType": "uint256",
					"name": "price",
					"type": "uint256"
				}
			],
			"name": "createGround",
			"outputs": [],
			"stateMutability": "payable",
			"type": "function"
		},
		{
			"inputs": [],
			"name": "feeAccount",
			"outputs": [
				{
					"internalType": "address payable",
					"name": "",
					"type": "address"
				}
			],
			"stateMutability": "view",
			"type": "function"
		},
		{
			"inputs": [],
			"name": "feePercent",
			"outputs": [
				{
					"internalType": "uint256",
					"name": "",
					"type": "uint256"
				}
			],
			"stateMutability": "view",
			"type": "function"
		},
		{
			"inputs": [],
			"name": "fetchAllGrounds",
			"outputs": [
				{
					"components": [
						{
							"internalType": "uint256",
							"name": "groundId",
							"type": "uint256"
						},
						{
							"internalType": "address",
							"name": "nftContract",
							"type": "address"
						},
						{
							"internalType": "address payable",
							"name": "seller",
							"type": "address"
						},
						{
							"internalType": "address payable",
							"name": "owner",
							"type": "address"
						},
						{
							"internalType": "uint256",
							"name": "price",
							"type": "uint256"
						},
						{
							"internalType": "bool",
							"name": "sold",
							"type": "bool"
						},
						{
							"internalType": "bool",
							"name": "cancel",
							"type": "bool"
						},
						{
							"internalType": "enum Water.Status",
							"name": "status",
							"type": "uint8"
						},
						{
							"internalType": "uint256",
							"name": "timeStamp",
							"type": "uint256"
						}
					],
					"internalType": "struct Water.Ground[]",
					"name": "",
					"type": "tuple[]"
				}
			],
			"stateMutability": "view",
			"type": "function"
		},
		{
			"inputs": [
				{
					"internalType": "uint256",
					"name": "_groundId",
					"type": "uint256"
				}
			],
			"name": "fetchGround",
			"outputs": [
				{
					"components": [
						{
							"internalType": "uint256",
							"name": "groundId",
							"type": "uint256"
						},
						{
							"internalType": "address",
							"name": "nftContract",
							"type": "address"
						},
						{
							"internalType": "address payable",
							"name": "seller",
							"type": "address"
						},
						{
							"internalType": "address payable",
							"name": "owner",
							"type": "address"
						},
						{
							"internalType": "uint256",
							"name": "price",
							"type": "uint256"
						},
						{
							"internalType": "bool",
							"name": "sold",
							"type": "bool"
						},
						{
							"internalType": "bool",
							"name": "cancel",
							"type": "bool"
						},
						{
							"internalType": "enum Water.Status",
							"name": "status",
							"type": "uint8"
						},
						{
							"internalType": "uint256",
							"name": "timeStamp",
							"type": "uint256"
						}
					],
					"internalType": "struct Water.Ground",
					"name": "",
					"type": "tuple"
				}
			],
			"stateMutability": "view",
			"type": "function"
		},
		{
			"inputs": [
				{
					"internalType": "uint256",
					"name": "_newPrice",
					"type": "uint256"
				}
			],
			"name": "getCommissionPrcie",
			"outputs": [
				{
					"internalType": "uint256",
					"name": "",
					"type": "uint256"
				}
			],
			"stateMutability": "view",
			"type": "function"
		},
		{
			"inputs": [],
			"name": "getFeePercent",
			"outputs": [
				{
					"internalType": "uint256",
					"name": "",
					"type": "uint256"
				}
			],
			"stateMutability": "view",
			"type": "function"
		},
		{
			"inputs": [
				{
					"internalType": "uint256",
					"name": "_newPrice",
					"type": "uint256"
				}
			],
			"name": "getTotalNewPrice",
			"outputs": [
				{
					"internalType": "uint256",
					"name": "",
					"type": "uint256"
				}
			],
			"stateMutability": "view",
			"type": "function"
		},
		{
			"inputs": [
				{
					"internalType": "uint256",
					"name": "_groundId",
					"type": "uint256"
				}
			],
			"name": "getTotalPrice",
			"outputs": [
				{
					"internalType": "uint256",
					"name": "",
					"type": "uint256"
				}
			],
			"stateMutability": "view",
			"type": "function"
		},
		{
			"inputs": [],
			"name": "initialize",
			"outputs": [],
			"stateMutability": "nonpayable",
			"type": "function"
		},
		{
			"inputs": [
				{
					"internalType": "address",
					"name": "nftContract",
					"type": "address"
				},
				{
					"internalType": "uint256",
					"name": "groundId",
					"type": "uint256"
				},
				{
					"internalType": "uint256",
					"name": "newPrice",
					"type": "uint256"
				},
				{
					"internalType": "address",
					"name": "reallOwner",
					"type": "address"
				}
			],
			"name": "putItemToResell",
			"outputs": [],
			"stateMutability": "payable",
			"type": "function"
		},
		{
			"inputs": [
				{
					"internalType": "uint256",
					"name": "_feePercent",
					"type": "uint256"
				}
			],
			"name": "setFeePercet",
			"outputs": [],
			"stateMutability": "nonpayable",
			"type": "function"
		}
	]
}